{
  "contracts/PactFact.sol": {
    "PactFact": {
      "abi": [
        {
          "inputs": [
            {
              "internalType": "uint256",
              "name": "timeoutDays",
              "type": "uint256"
            }
          ],
          "stateMutability": "nonpayable",
          "type": "constructor"
        },
        {
          "anonymous": false,
          "inputs": [
            {
              "indexed": false,
              "internalType": "uint256",
              "name": "pactId",
              "type": "uint256"
            },
            {
              "indexed": false,
              "internalType": "enum PactFact.PactState",
              "name": "state",
              "type": "uint8"
            }
          ],
          "name": "CancelPact",
          "type": "event"
        },
        {
          "anonymous": false,
          "inputs": [
            {
              "indexed": false,
              "internalType": "address",
              "name": "account",
              "type": "address"
            },
            {
              "indexed": false,
              "internalType": "uint256",
              "name": "amount",
              "type": "uint256"
            }
          ],
          "name": "IncreaseAccountBalance",
          "type": "event"
        },
        {
          "anonymous": false,
          "inputs": [
            {
              "indexed": false,
              "internalType": "uint256",
              "name": "pactId",
              "type": "uint256"
            },
            {
              "indexed": false,
              "internalType": "bool",
              "name": "answer",
              "type": "bool"
            },
            {
              "indexed": false,
              "internalType": "bytes32",
              "name": "salt",
              "type": "bytes32"
            }
          ],
          "name": "InvalidAnswer",
          "type": "event"
        },
        {
          "anonymous": false,
          "inputs": [
            {
              "components": [
                {
                  "internalType": "address",
                  "name": "p1",
                  "type": "address"
                },
                {
                  "internalType": "address",
                  "name": "p2",
                  "type": "address"
                },
                {
                  "internalType": "uint256",
                  "name": "p1Deposit",
                  "type": "uint256"
                },
                {
                  "internalType": "uint256",
                  "name": "p2Deposit",
                  "type": "uint256"
                },
                {
                  "components": [
                    {
                      "internalType": "uint256",
                      "name": "p1",
                      "type": "uint256"
                    },
                    {
                      "internalType": "uint256",
                      "name": "p2",
                      "type": "uint256"
                    },
                    {
                      "internalType": "uint256",
                      "name": "burn",
                      "type": "uint256"
                    }
                  ],
                  "internalType": "struct PactFact.Payout[4]",
                  "name": "payoutMatrix",
                  "type": "tuple[4]"
                },
                {
                  "internalType": "string",
                  "name": "tags",
                  "type": "string"
                },
                {
                  "internalType": "bytes32",
                  "name": "answer1Hash",
                  "type": "bytes32"
                },
                {
                  "internalType": "bool",
                  "name": "answer2",
                  "type": "bool"
                },
                {
                  "internalType": "uint256",
                  "name": "answer2Block",
                  "type": "uint256"
                },
                {
                  "internalType": "bool",
                  "name": "answer1",
                  "type": "bool"
                },
                {
                  "internalType": "bytes32",
                  "name": "answer1Salt",
                  "type": "bytes32"
                },
                {
                  "internalType": "enum PactFact.PactState",
                  "name": "state",
                  "type": "uint8"
                }
              ],
              "indexed": false,
              "internalType": "struct PactFact.Pact",
              "name": "pact",
              "type": "tuple"
            }
          ],
          "name": "ProposePact",
          "type": "event"
        },
        {
          "anonymous": false,
          "inputs": [
            {
              "indexed": false,
              "internalType": "address",
              "name": "from",
              "type": "address"
            },
            {
              "indexed": false,
              "internalType": "uint256",
              "name": "amount",
              "type": "uint256"
            }
          ],
          "name": "ReceiveEther",
          "type": "event"
        },
        {
          "anonymous": false,
          "inputs": [
            {
              "indexed": false,
              "internalType": "uint256",
              "name": "pactId",
              "type": "uint256"
            },
            {
              "indexed": false,
              "internalType": "bool",
              "name": "answer",
              "type": "bool"
            },
            {
              "indexed": false,
              "internalType": "bytes32",
              "name": "salt",
              "type": "bytes32"
            },
            {
              "indexed": false,
              "internalType": "enum PactFact.PactState",
              "name": "state",
              "type": "uint8"
            }
          ],
          "name": "ResolveValidPact",
          "type": "event"
        },
        {
          "anonymous": false,
          "inputs": [
            {
              "indexed": false,
              "internalType": "uint256",
              "name": "pactId",
              "type": "uint256"
            },
            {
              "indexed": false,
              "internalType": "enum PactFact.PactState",
              "name": "state",
              "type": "uint8"
            }
          ],
          "name": "SealPact",
          "type": "event"
        },
        {
          "anonymous": false,
          "inputs": [
            {
              "indexed": false,
              "internalType": "uint256",
              "name": "pactId",
              "type": "uint256"
            },
            {
              "indexed": false,
              "internalType": "bytes32",
              "name": "answerHash",
              "type": "bytes32"
            },
            {
              "indexed": false,
              "internalType": "enum PactFact.PactState",
              "name": "state",
              "type": "uint8"
            }
          ],
          "name": "SubmitAnswer1Hash",
          "type": "event"
        },
        {
          "anonymous": false,
          "inputs": [
            {
              "indexed": false,
              "internalType": "uint256",
              "name": "pactId",
              "type": "uint256"
            },
            {
              "indexed": false,
              "internalType": "bool",
              "name": "answer",
              "type": "bool"
            },
            {
              "indexed": false,
              "internalType": "uint256",
              "name": "block",
              "type": "uint256"
            },
            {
              "indexed": false,
              "internalType": "enum PactFact.PactState",
              "name": "state",
              "type": "uint8"
            }
          ],
          "name": "SubmitAnswer2",
          "type": "event"
        },
        {
          "anonymous": false,
          "inputs": [
            {
              "indexed": false,
              "internalType": "uint256",
              "name": "pactId",
              "type": "uint256"
            },
            {
              "indexed": false,
              "internalType": "enum PactFact.PactState",
              "name": "state",
              "type": "uint8"
            }
          ],
          "name": "TimeoutPact",
          "type": "event"
        },
        {
          "anonymous": false,
          "inputs": [
            {
              "indexed": false,
              "internalType": "address",
              "name": "to",
              "type": "address"
            },
            {
              "indexed": false,
              "internalType": "uint256",
              "name": "amount",
              "type": "uint256"
            }
          ],
          "name": "WithdrawEther",
          "type": "event"
        },
        {
          "inputs": [],
          "name": "TIMEOUT",
          "outputs": [
            {
              "internalType": "uint256",
              "name": "",
              "type": "uint256"
            }
          ],
          "stateMutability": "view",
          "type": "function"
        },
        {
          "inputs": [
            {
              "internalType": "address",
              "name": "",
              "type": "address"
            }
          ],
          "name": "accountBalances",
          "outputs": [
            {
              "internalType": "uint256",
              "name": "",
              "type": "uint256"
            }
          ],
          "stateMutability": "view",
          "type": "function"
        },
        {
          "inputs": [
            {
              "internalType": "uint256",
              "name": "pactId",
              "type": "uint256"
            }
          ],
          "name": "cancelPact",
          "outputs": [],
          "stateMutability": "nonpayable",
          "type": "function"
        },
        {
          "inputs": [
            {
              "internalType": "bool",
              "name": "answer",
              "type": "bool"
            },
            {
              "internalType": "bytes32",
              "name": "salt",
              "type": "bytes32"
            }
          ],
          "name": "hashAnswer",
          "outputs": [
            {
              "internalType": "bytes32",
              "name": "",
              "type": "bytes32"
            }
          ],
          "stateMutability": "pure",
          "type": "function"
        },
        {
          "inputs": [],
          "name": "pactCount",
          "outputs": [
            {
              "internalType": "uint256",
              "name": "",
              "type": "uint256"
            }
          ],
          "stateMutability": "view",
          "type": "function"
        },
        {
          "inputs": [
            {
              "internalType": "uint256",
              "name": "",
              "type": "uint256"
            }
          ],
          "name": "pacts",
          "outputs": [
            {
              "internalType": "address",
              "name": "p1",
              "type": "address"
            },
            {
              "internalType": "address",
              "name": "p2",
              "type": "address"
            },
            {
              "internalType": "uint256",
              "name": "p1Deposit",
              "type": "uint256"
            },
            {
              "internalType": "uint256",
              "name": "p2Deposit",
              "type": "uint256"
            },
            {
              "internalType": "string",
              "name": "tags",
              "type": "string"
            },
            {
              "internalType": "bytes32",
              "name": "answer1Hash",
              "type": "bytes32"
            },
            {
              "internalType": "bool",
              "name": "answer2",
              "type": "bool"
            },
            {
              "internalType": "uint256",
              "name": "answer2Block",
              "type": "uint256"
            },
            {
              "internalType": "bool",
              "name": "answer1",
              "type": "bool"
            },
            {
              "internalType": "bytes32",
              "name": "answer1Salt",
              "type": "bytes32"
            },
            {
              "internalType": "enum PactFact.PactState",
              "name": "state",
              "type": "uint8"
            }
          ],
          "stateMutability": "view",
          "type": "function"
        },
        {
          "inputs": [
            {
              "internalType": "address",
              "name": "p2",
              "type": "address"
            },
            {
              "internalType": "uint256",
              "name": "p1Deposit",
              "type": "uint256"
            },
            {
              "internalType": "uint256",
              "name": "p2Deposit",
              "type": "uint256"
            },
            {
              "components": [
                {
                  "internalType": "uint256",
                  "name": "p1",
                  "type": "uint256"
                },
                {
                  "internalType": "uint256",
                  "name": "p2",
                  "type": "uint256"
                },
                {
                  "internalType": "uint256",
                  "name": "burn",
                  "type": "uint256"
                }
              ],
              "internalType": "struct PactFact.Payout",
              "name": "payoutYY",
              "type": "tuple"
            },
            {
              "components": [
                {
                  "internalType": "uint256",
                  "name": "p1",
                  "type": "uint256"
                },
                {
                  "internalType": "uint256",
                  "name": "p2",
                  "type": "uint256"
                },
                {
                  "internalType": "uint256",
                  "name": "burn",
                  "type": "uint256"
                }
              ],
              "internalType": "struct PactFact.Payout",
              "name": "payoutYN",
              "type": "tuple"
            },
            {
              "components": [
                {
                  "internalType": "uint256",
                  "name": "p1",
                  "type": "uint256"
                },
                {
                  "internalType": "uint256",
                  "name": "p2",
                  "type": "uint256"
                },
                {
                  "internalType": "uint256",
                  "name": "burn",
                  "type": "uint256"
                }
              ],
              "internalType": "struct PactFact.Payout",
              "name": "payoutNY",
              "type": "tuple"
            },
            {
              "components": [
                {
                  "internalType": "uint256",
                  "name": "p1",
                  "type": "uint256"
                },
                {
                  "internalType": "uint256",
                  "name": "p2",
                  "type": "uint256"
                },
                {
                  "internalType": "uint256",
                  "name": "burn",
                  "type": "uint256"
                }
              ],
              "internalType": "struct PactFact.Payout",
              "name": "payoutNN",
              "type": "tuple"
            },
            {
              "internalType": "string",
              "name": "tags",
              "type": "string"
            }
          ],
          "name": "proposePact",
          "outputs": [],
          "stateMutability": "payable",
          "type": "function"
        },
        {
          "inputs": [
            {
              "internalType": "uint256",
              "name": "pactId",
              "type": "uint256"
            }
          ],
          "name": "sealPact",
          "outputs": [],
          "stateMutability": "payable",
          "type": "function"
        },
        {
          "inputs": [
            {
              "internalType": "uint256",
              "name": "pactId",
              "type": "uint256"
            },
            {
              "internalType": "bool",
              "name": "answer",
              "type": "bool"
            },
            {
              "internalType": "bytes32",
              "name": "salt",
              "type": "bytes32"
            }
          ],
          "name": "submitAnswer1",
          "outputs": [],
          "stateMutability": "nonpayable",
          "type": "function"
        },
        {
          "inputs": [
            {
              "internalType": "uint256",
              "name": "pactId",
              "type": "uint256"
            },
            {
              "internalType": "bytes32",
              "name": "answerHash",
              "type": "bytes32"
            }
          ],
          "name": "submitAnswer1Hash",
          "outputs": [],
          "stateMutability": "nonpayable",
          "type": "function"
        },
        {
          "inputs": [
            {
              "internalType": "uint256",
              "name": "pactId",
              "type": "uint256"
            },
            {
              "internalType": "bool",
              "name": "answer",
              "type": "bool"
            }
          ],
          "name": "submitAnswer2",
          "outputs": [],
          "stateMutability": "nonpayable",
          "type": "function"
        },
        {
          "inputs": [
            {
              "internalType": "uint256",
              "name": "pactId",
              "type": "uint256"
            }
          ],
          "name": "timeOutPact",
          "outputs": [],
          "stateMutability": "nonpayable",
          "type": "function"
        },
        {
          "inputs": [
            {
              "internalType": "uint256",
              "name": "p1Deposit",
              "type": "uint256"
            },
            {
              "internalType": "uint256",
              "name": "p2Deposit",
              "type": "uint256"
            },
            {
              "components": [
                {
                  "internalType": "uint256",
                  "name": "p1",
                  "type": "uint256"
                },
                {
                  "internalType": "uint256",
                  "name": "p2",
                  "type": "uint256"
                },
                {
                  "internalType": "uint256",
                  "name": "burn",
                  "type": "uint256"
                }
              ],
              "internalType": "struct PactFact.Payout",
              "name": "payoutYY",
              "type": "tuple"
            },
            {
              "components": [
                {
                  "internalType": "uint256",
                  "name": "p1",
                  "type": "uint256"
                },
                {
                  "internalType": "uint256",
                  "name": "p2",
                  "type": "uint256"
                },
                {
                  "internalType": "uint256",
                  "name": "burn",
                  "type": "uint256"
                }
              ],
              "internalType": "struct PactFact.Payout",
              "name": "payoutYN",
              "type": "tuple"
            },
            {
              "components": [
                {
                  "internalType": "uint256",
                  "name": "p1",
                  "type": "uint256"
                },
                {
                  "internalType": "uint256",
                  "name": "p2",
                  "type": "uint256"
                },
                {
                  "internalType": "uint256",
                  "name": "burn",
                  "type": "uint256"
                }
              ],
              "internalType": "struct PactFact.Payout",
              "name": "payoutNY",
              "type": "tuple"
            },
            {
              "components": [
                {
                  "internalType": "uint256",
                  "name": "p1",
                  "type": "uint256"
                },
                {
                  "internalType": "uint256",
                  "name": "p2",
                  "type": "uint256"
                },
                {
                  "internalType": "uint256",
                  "name": "burn",
                  "type": "uint256"
                }
              ],
              "internalType": "struct PactFact.Payout",
              "name": "payoutNN",
              "type": "tuple"
            }
          ],
          "name": "validateMatrix",
          "outputs": [],
          "stateMutability": "pure",
          "type": "function"
        },
        {
          "inputs": [
            {
              "internalType": "address",
              "name": "to",
              "type": "address"
            }
          ],
          "name": "withdraw",
          "outputs": [],
          "stateMutability": "nonpayable",
          "type": "function"
        },
        {
          "stateMutability": "payable",
          "type": "receive"
        }
      ],
      "evm": {
        "bytecode": {
          "linkReferences": {},
          "object": "60a06040523480156200001157600080fd5b50604051620039b0380380620039b083398181016040528101906200003791906200006d565b62015180816200004891906200009f565b608081815250505062000158565b60008151905062000067816200013e565b92915050565b60006020828403121562000086576200008562000139565b5b6000620000968482850162000056565b91505092915050565b6000620000ac8262000100565b9150620000b98362000100565b9250817fffffffffffffffffffffffffffffffffffffffffffffffffffffffffffffffff0483118215151615620000f557620000f46200010a565b5b828202905092915050565b6000819050919050565b7f4e487b7100000000000000000000000000000000000000000000000000000000600052601160045260246000fd5b600080fd5b620001498162000100565b81146200015557600080fd5b50565b6080516138356200017b600039600081816109bd01526115d001526138356000f3fe6080604052600436106100e15760003560e01c80636ff96d171161007f578063a3a8682711610059578063a3a86827146102ec578063e2868e7a14610315578063f10fb3da1461033e578063f56f48f21461036957610121565b80636ff96d17146102565780637e4820d814610293578063847a9e0b146102d057610121565b80632c8582fb116100bb5780632c8582fb146101b25780632d451d0f146101db57806351cff8d9146102045780635b9cd10a1461022d57610121565b80630a2f86da146101265780630edf25f51461014f5780631f4974791461019657610121565b36610121577ff32a9f77675fd5917534c7746608fd3e309eac68fbdcbf5925e24ca97a7043963334604051610117929190612861565b60405180910390a1005b600080fd5b34801561013257600080fd5b5061014d60048036038101906101489190611fa3565b610394565b005b34801561015b57600080fd5b5061017660048036038101906101719190611f76565b61056f565b60405161018d9b9a999897969594939291906127af565b60405180910390f35b6101b060048036038101906101ab9190611f76565b6106b8565b005b3480156101be57600080fd5b506101d960048036038101906101d49190611f76565b61089a565b005b3480156101e757600080fd5b5061020260048036038101906101fd9190612036565b610ab1565b005b34801561021057600080fd5b5061022b60048036038101906102269190611e30565b610c5d565b005b34801561023957600080fd5b50610254600480360381019061024f9190612076565b610d68565b005b34801561026257600080fd5b5061027d60048036038101906102789190611e30565b610f11565b60405161028a9190612b47565b60405180910390f35b34801561029f57600080fd5b506102ba60048036038101906102b59190611f36565b610f29565b6040516102c7919061288a565b60405180910390f35b6102ea60048036038101906102e59190611e5d565b610f5c565b005b3480156102f857600080fd5b50610313600480360381019061030e9190611f76565b6111a5565b005b34801561032157600080fd5b5061033c60048036038101906103379190611fe3565b611373565b005b34801561034a57600080fd5b506103536115c8565b6040516103609190612b47565b60405180910390f35b34801561037557600080fd5b5061037e6115ce565b60405161038b9190612b47565b60405180910390f35b6000600260008481526020019081526020016000209050600360068111156103bf576103be613013565b5b8160160160009054906101000a900460ff1660068111156103e3576103e2613013565b5b14610423576040517f08c379a000000000000000000000000000000000000000000000000000000000815260040161041a90612a45565b60405180910390fd5b3373ffffffffffffffffffffffffffffffffffffffff168160010160009054906101000a900473ffffffffffffffffffffffffffffffffffffffff1673ffffffffffffffffffffffffffffffffffffffff16146104b5576040517f08c379a00000000000000000000000000000000000000000000000000000000081526004016104ac90612965565b60405180910390fd5b818160120160006101000a81548160ff02191690831515021790555043816013018190555060048160160160006101000a81548160ff0219169083600681111561050257610501613013565b5b02179055507f8c519cdbe21cf251cf06f8f9d7d750b9bbb2e8f2f38c0936bc7ace41db406522838260120160009054906101000a900460ff1683601301548460160160009054906101000a900460ff166040516105629493929190612bde565b60405180910390a1505050565b60026020528060005260406000206000915090508060000160009054906101000a900473ffffffffffffffffffffffffffffffffffffffff16908060010160009054906101000a900473ffffffffffffffffffffffffffffffffffffffff16908060020154908060030154908060100180546105ea90612eb9565b80601f016020809104026020016040519081016040528092919081815260200182805461061690612eb9565b80156106635780601f1061063857610100808354040283529160200191610663565b820191906000526020600020905b81548152906001019060200180831161064657829003601f168201915b5050505050908060110154908060120160009054906101000a900460ff16908060130154908060140160009054906101000a900460ff16908060150154908060160160009054906101000a900460ff1690508b565b6000600260008381526020019081526020016000209050600060068111156106e3576106e2613013565b5b8160160160009054906101000a900460ff16600681111561070757610706613013565b5b14610747576040517f08c379a000000000000000000000000000000000000000000000000000000000815260040161073e90612a25565b60405180910390fd5b3373ffffffffffffffffffffffffffffffffffffffff168160010160009054906101000a900473ffffffffffffffffffffffffffffffffffffffff1673ffffffffffffffffffffffffffffffffffffffff16146107d9576040517f08c379a00000000000000000000000000000000000000000000000000000000081526004016107d0906129c5565b60405180910390fd5b8060030154341461081f576040517f08c379a000000000000000000000000000000000000000000000000000000000815260040161081690612925565b60405180910390fd5b60028160160160006101000a81548160ff0219169083600681111561084757610846613013565b5b02179055507f802dabd127ab1cb2f508c4b573914e7a7c87655ce06722edbbebd42b10f7a596828260160160009054906101000a900460ff1660405161088e929190612c5a565b60405180910390a15050565b6000600260008381526020019081526020016000209050600460068111156108c5576108c4613013565b5b8160160160009054906101000a900460ff1660068111156108e9576108e8613013565b5b14610929576040517f08c379a0000000000000000000000000000000000000000000000000000000008152600401610920906128e5565b60405180910390fd5b8060010160009054906101000a900473ffffffffffffffffffffffffffffffffffffffff1673ffffffffffffffffffffffffffffffffffffffff163373ffffffffffffffffffffffffffffffffffffffff16146109bb576040517f08c379a00000000000000000000000000000000000000000000000000000000081526004016109b290612a05565b60405180910390fd5b7f000000000000000000000000000000000000000000000000000000000000000081601301546109eb9190612cf2565b431015610a2d576040517f08c379a0000000000000000000000000000000000000000000000000000000008152600401610a24906128a5565b60405180910390fd5b60058160160160006101000a81548160ff02191690836006811115610a5557610a54613013565b5b0217905550610a63826115f2565b7f1298e8412738ab53eae8076a7ec2c244acc3f16c33ca1bb088fc8ca4fe187e74828260160160009054906101000a900460ff16604051610aa5929190612c5a565b60405180910390a15050565b600060026000848152602001908152602001600020905060026006811115610adc57610adb613013565b5b8160160160009054906101000a900460ff166006811115610b0057610aff613013565b5b14610b40576040517f08c379a0000000000000000000000000000000000000000000000000000000008152600401610b3790612985565b60405180910390fd5b3373ffffffffffffffffffffffffffffffffffffffff168160000160009054906101000a900473ffffffffffffffffffffffffffffffffffffffff1673ffffffffffffffffffffffffffffffffffffffff1614610bd2576040517f08c379a0000000000000000000000000000000000000000000000000000000008152600401610bc9906129e5565b60405180910390fd5b81816011018190555060038160160160006101000a81548160ff02191690836006811115610c0357610c02613013565b5b02179055507f3bd3c4c5c531bcb5e716b2ccc90104e86d8df90828515ab0d4530d02509ea5df8382601101548360160160009054906101000a900460ff16604051610c5093929190612c23565b60405180910390a1505050565b60008060008373ffffffffffffffffffffffffffffffffffffffff1673ffffffffffffffffffffffffffffffffffffffff16815260200190815260200160002054905060008060008473ffffffffffffffffffffffffffffffffffffffff1673ffffffffffffffffffffffffffffffffffffffff168152602001908152602001600020819055508173ffffffffffffffffffffffffffffffffffffffff166108fc829081150290604051600060405180830381858888f19350505050158015610d2a573d6000803e3d6000fd5b507fdb35132c111efe920cede025e819975671cfd1b8fcc1174762c8670c4e94c2118282604051610d5c929190612861565b60405180910390a15050565b60008587610d769190612cf2565b9050846040013585602001358660000135610d919190612cf2565b610d9b9190612cf2565b8114610ddc576040517f08c379a0000000000000000000000000000000000000000000000000000000008152600401610dd390612b05565b60405180910390fd5b836040013584602001358560000135610df59190612cf2565b610dff9190612cf2565b8114610e40576040517f08c379a0000000000000000000000000000000000000000000000000000000008152600401610e3790612a65565b60405180910390fd5b826040013583602001358460000135610e599190612cf2565b610e639190612cf2565b8114610ea4576040517f08c379a0000000000000000000000000000000000000000000000000000000008152600401610e9b906129a5565b60405180910390fd5b816040013582602001358360000135610ebd9190612cf2565b610ec79190612cf2565b8114610f08576040517f08c379a0000000000000000000000000000000000000000000000000000000008152600401610eff90612945565b60405180910390fd5b50505050505050565b60006020528060005260406000206000915090505481565b60008282604051602001610f3e929190612783565b60405160208183030381529060405280519060200120905092915050565b873414610f9e576040517f08c379a0000000000000000000000000000000000000000000000000000000008152600401610f9590612aa5565b60405180910390fd5b610fac888888888888610d68565b60006002600060015481526020019081526020016000209050338160000160006101000a81548173ffffffffffffffffffffffffffffffffffffffff021916908373ffffffffffffffffffffffffffffffffffffffff160217905550898160010160006101000a81548173ffffffffffffffffffffffffffffffffffffffff021916908373ffffffffffffffffffffffffffffffffffffffff160217905550888160020181905550878160030181905550868160040160006004811061107557611074613071565b5b600302018181611085919061375e565b90505085816004016001600481106110a05761109f613071565b5b6003020181816110b0919061375e565b90505084816004016002600481106110cb576110ca613071565b5b6003020181816110db919061375e565b90505083816004016003600481106110f6576110f5613071565b5b600302018181611106919061375e565b905050828282601001919061111c929190611cc4565b5060008160160160006101000a81548160ff0219169083600681111561114557611144613013565b5b02179055506001600081548092919061115d90612f6d565b91905055507fd93c07e6d2930c0b25150e2d51c102a0dc67b32ec91d7582a92c4f6e61ce3a32816040516111919190612b25565b60405180910390a150505050505050505050565b6000600260008381526020019081526020016000209050600060068111156111d0576111cf613013565b5b8160160160009054906101000a900460ff1660068111156111f4576111f3613013565b5b14611234576040517f08c379a000000000000000000000000000000000000000000000000000000000815260040161122b90612905565b60405180910390fd5b3373ffffffffffffffffffffffffffffffffffffffff168160000160009054906101000a900473ffffffffffffffffffffffffffffffffffffffff1673ffffffffffffffffffffffffffffffffffffffff16146112c6576040517f08c379a00000000000000000000000000000000000000000000000000000000081526004016112bd90612ac5565b60405180910390fd5b60018160160160006101000a81548160ff021916908360068111156112ee576112ed613013565b5b02179055506113258160000160009054906101000a900473ffffffffffffffffffffffffffffffffffffffff168260020154611885565b7fe43c1de399fa9e7b593892fee78094d0c09bf97c0c52094e46b324b5e96949e0828260160160009054906101000a900460ff16604051611367929190612c5a565b60405180910390a15050565b60006002600085815260200190815260200160002090506004600681111561139e5761139d613013565b5b8160160160009054906101000a900460ff1660068111156113c2576113c1613013565b5b14611402576040517f08c379a00000000000000000000000000000000000000000000000000000000081526004016113f990612a85565b60405180910390fd5b8060000160009054906101000a900473ffffffffffffffffffffffffffffffffffffffff1673ffffffffffffffffffffffffffffffffffffffff163373ffffffffffffffffffffffffffffffffffffffff1614611494576040517f08c379a000000000000000000000000000000000000000000000000000000000815260040161148b906128c5565b60405180910390fd5b828160140160006101000a81548160ff02191690831515021790555081816015018190555060006114c58484610f29565b905081601101548114611527577f880b3536f22b8a3305eff5008daa498e1309a219e6013d53622848754710b587858360140160009054906101000a900460ff16846015015460405161151a93929190612b62565b60405180910390a16115c1565b60068260160160006101000a81548160ff0219169083600681111561154f5761154e613013565b5b021790555061155d85611917565b7ff29b5a479b9ae259e2be6d0141f4db810dd113de2d329007eccae006b409fe69858360140160009054906101000a900460ff1684601501548560160160009054906101000a900460ff166040516115b89493929190612b99565b60405180910390a15b5050505050565b60015481565b7f000000000000000000000000000000000000000000000000000000000000000081565b600060026000838152602001908152602001600020604051806101800160405290816000820160009054906101000a900473ffffffffffffffffffffffffffffffffffffffff1673ffffffffffffffffffffffffffffffffffffffff1673ffffffffffffffffffffffffffffffffffffffff1681526020016001820160009054906101000a900473ffffffffffffffffffffffffffffffffffffffff1673ffffffffffffffffffffffffffffffffffffffff1673ffffffffffffffffffffffffffffffffffffffff168152602001600282015481526020016003820154815260200160048201600480602002604051908101604052809291906000905b82821015611735578382600302016040518060600160405290816000820154815260200160018201548152602001600282015481525050815260200190600101906116ef565b50505050815260200160108201805461174d90612eb9565b80601f016020809104026020016040519081016040528092919081815260200182805461177990612eb9565b80156117c65780601f1061179b576101008083540402835291602001916117c6565b820191906000526020600020905b8154815290600101906020018083116117a957829003601f168201915b50505050508152602001601182015481526020016012820160009054906101000a900460ff16151515158152602001601382015481526020016014820160009054906101000a900460ff16151515158152602001601582015481526020016016820160009054906101000a900460ff16600681111561184857611847613013565b5b600681111561185a57611859613013565b5b81525050905061188181602001518260600151836040015161187c9190612cf2565b611885565b5050565b806000808473ffffffffffffffffffffffffffffffffffffffff1673ffffffffffffffffffffffffffffffffffffffff16815260200190815260200160002060008282546118d39190612cf2565b925050819055507ffb7dc1a1f27a348f858cd8c345b43cbbe6cc5f96a89e5a6133c8c134c1cf9c01828260405161190b929190612861565b60405180910390a15050565b600060026000838152602001908152602001600020604051806101800160405290816000820160009054906101000a900473ffffffffffffffffffffffffffffffffffffffff1673ffffffffffffffffffffffffffffffffffffffff1673ffffffffffffffffffffffffffffffffffffffff1681526020016001820160009054906101000a900473ffffffffffffffffffffffffffffffffffffffff1673ffffffffffffffffffffffffffffffffffffffff1673ffffffffffffffffffffffffffffffffffffffff168152602001600282015481526020016003820154815260200160048201600480602002604051908101604052809291906000905b82821015611a5a57838260030201604051806060016040529081600082015481526020016001820154815260200160028201548152505081526020019060010190611a14565b505050508152602001601082018054611a7290612eb9565b80601f0160208091040260200160405190810160405280929190818152602001828054611a9e90612eb9565b8015611aeb5780601f10611ac057610100808354040283529160200191611aeb565b820191906000526020600020905b815481529060010190602001808311611ace57829003601f168201915b50505050508152602001601182015481526020016012820160009054906101000a900460ff16151515158152602001601382015481526020016014820160009054906101000a900460ff16151515158152602001601582015481526020016016820160009054906101000a900460ff166006811115611b6d57611b6c613013565b5b6006811115611b7f57611b7e613013565b5b8152505090506000611b9a8261012001518360e00151611be9565b9050600082608001518260ff1660048110611bb857611bb7613071565b5b60200201519050611bd183600001518260000151611885565b611be383602001518260200151611885565b50505050565b600060011515831515148015611c03575060011515821515145b15611c115760009050611cbe565b60011515831515148015611c29575060001515821515145b15611c375760019050611cbe565b60001515831515148015611c4f575060011515821515145b15611c5d5760029050611cbe565b60001515831515148015611c75575060001515821515145b15611c835760039050611cbe565b6040517f08c379a0000000000000000000000000000000000000000000000000000000008152600401611cb590612ae5565b60405180910390fd5b92915050565b828054611cd090612eb9565b90600052602060002090601f016020900481019282611cf25760008555611d39565b82601f10611d0b57803560ff1916838001178555611d39565b82800160010185558215611d39579182015b82811115611d38578235825591602001919060010190611d1d565b5b509050611d469190611d4a565b5090565b5b80821115611d63576000816000905550600101611d4b565b5090565b600081359050611d76816137a3565b92915050565b600081359050611d8b816137ba565b92915050565b600081359050611da0816137d1565b92915050565b60008083601f840112611dbc57611dbb6130c5565b5b8235905067ffffffffffffffff811115611dd957611dd86130c0565b5b602083019150836001820283011115611df557611df46130cf565b5b9250929050565b600060608284031215611e1257611e116130ca565b5b81905092915050565b600081359050611e2a816137e8565b92915050565b600060208284031215611e4657611e456130d9565b5b6000611e5484828501611d67565b91505092915050565b60008060008060008060008060006102008a8c031215611e8057611e7f6130d9565b5b6000611e8e8c828d01611d67565b9950506020611e9f8c828d01611e1b565b9850506040611eb08c828d01611e1b565b9750506060611ec18c828d01611dfc565b96505060c0611ed28c828d01611dfc565b955050610120611ee48c828d01611dfc565b945050610180611ef68c828d01611dfc565b9350506101e08a013567ffffffffffffffff811115611f1857611f176130d4565b5b611f248c828d01611da6565b92509250509295985092959850929598565b60008060408385031215611f4d57611f4c6130d9565b5b6000611f5b85828601611d7c565b9250506020611f6c85828601611d91565b9150509250929050565b600060208284031215611f8c57611f8b6130d9565b5b6000611f9a84828501611e1b565b91505092915050565b60008060408385031215611fba57611fb96130d9565b5b6000611fc885828601611e1b565b9250506020611fd985828601611d7c565b9150509250929050565b600080600060608486031215611ffc57611ffb6130d9565b5b600061200a86828701611e1b565b935050602061201b86828701611d7c565b925050604061202c86828701611d91565b9150509250925092565b6000806040838503121561204d5761204c6130d9565b5b600061205b85828601611e1b565b925050602061206c85828601611d91565b9150509250929050565b6000806000806000806101c08789031215612094576120936130d9565b5b60006120a289828a01611e1b565b96505060206120b389828a01611e1b565b95505060406120c489828a01611dfc565b94505060a06120d589828a01611dfc565b9350506101006120e789828a01611dfc565b9250506101606120f989828a01611dfc565b9150509295509295509295565b60006121128383612700565b60608301905092915050565b61212781612d96565b82525050565b61213681612d96565b82525050565b61214581612ca2565b61214f8184612cc5565b925061215a82612c83565b8060005b8381101561218a57816121718782612106565b965061217c83612cb8565b92505060018101905061215e565b505050505050565b61219b81612da8565b82525050565b6121aa81612da8565b82525050565b6121c16121bc82612da8565b612fb6565b82525050565b6121d081612db4565b82525050565b6121df81612db4565b82525050565b6121f66121f182612db4565b612fc8565b82525050565b61220581612dfb565b82525050565b61221481612dfb565b82525050565b600061222582612cad565b61222f8185612ce1565b935061223f818560208601612e1f565b612248816130de565b840191505092915050565b6000815461226081612eb9565b61226a8186612cd0565b945060018216600081146122855760018114612297576122ca565b60ff19831686526020860193506122ca565b6122a085612c8d565b60005b838110156122c2578154818901526001820191506020810190506122a3565b808801955050505b50505092915050565b60006122e0604d83612ce1565b91506122eb82613116565b606082019050919050565b6000612303602e83612ce1565b915061230e8261318b565b604082019050919050565b6000612326602f83612ce1565b9150612331826131da565b604082019050919050565b6000612349602283612ce1565b915061235482613229565b604082019050919050565b600061236c603583612ce1565b915061237782613278565b604082019050919050565b600061238f602d83612ce1565b915061239a826132c7565b604082019050919050565b60006123b2602e83612ce1565b91506123bd82613316565b604082019050919050565b60006123d5602783612ce1565b91506123e082613365565b604082019050919050565b60006123f8602d83612ce1565b9150612403826133b4565b604082019050919050565b600061241b602983612ce1565b915061242682613403565b604082019050919050565b600061243e603283612ce1565b915061244982613452565b604082019050919050565b6000612461602c83612ce1565b915061246c826134a1565b604082019050919050565b6000612484602083612ce1565b915061248f826134f0565b602082019050919050565b60006124a7603683612ce1565b91506124b282613519565b604082019050919050565b60006124ca602d83612ce1565b91506124d582613568565b604082019050919050565b60006124ed603183612ce1565b91506124f8826135b7565b604082019050919050565b6000612510602b83612ce1565b915061251b82613606565b604082019050919050565b6000612533602b83612ce1565b915061253e82613655565b604082019050919050565b6000612556601c83612ce1565b9150612561826136a4565b602082019050919050565b6000612579602d83612ce1565b9150612584826136cd565b604082019050919050565b60006102e0830160008084015490506125a781612eeb565b6125b4600087018261211e565b50600184015490506125c581612eeb565b6125d2602087018261211e565b50600284015490506125e381612f53565b6125f06040870182612765565b506003840154905061260181612f53565b61260e6060870182612765565b5060048401612620608087018261213c565b50601084018583036102008701526126388382612253565b9250506011840154905061264b81612f1f565b6126596102208701826121c7565b506012840154905061266a81612f05565b612678610240870182612192565b506013840154905061268981612f53565b612697610260870182612765565b50601484015490506126a881612f05565b6126b6610280870182612192565b50601584015490506126c781612f1f565b6126d56102a08701826121c7565b50601684015490506126e681612f39565b6126f46102c08701826121fc565b50819250505092915050565b60608201600080830154905061271581612f53565b6127226000860182612765565b506001830154905061273381612f53565b6127406020860182612765565b506002830154905061275181612f53565b61275e6040860182612765565b5050505050565b61276e81612df1565b82525050565b61277d81612df1565b82525050565b600061278f82856121b0565b60018201915061279f82846121e5565b6020820191508190509392505050565b6000610160820190506127c5600083018e61212d565b6127d2602083018d61212d565b6127df604083018c612774565b6127ec606083018b612774565b81810360808301526127fe818a61221a565b905061280d60a08301896121d6565b61281a60c08301886121a1565b61282760e0830187612774565b6128356101008301866121a1565b6128436101208301856121d6565b61285161014083018461220b565b9c9b505050505050505050505050565b6000604082019050612876600083018561212d565b6128836020830184612774565b9392505050565b600060208201905061289f60008301846121d6565b92915050565b600060208201905081810360008301526128be816122d3565b9050919050565b600060208201905081810360008301526128de816122f6565b9050919050565b600060208201905081810360008301526128fe81612319565b9050919050565b6000602082019050818103600083015261291e8161233c565b9050919050565b6000602082019050818103600083015261293e8161235f565b9050919050565b6000602082019050818103600083015261295e81612382565b9050919050565b6000602082019050818103600083015261297e816123a5565b9050919050565b6000602082019050818103600083015261299e816123c8565b9050919050565b600060208201905081810360008301526129be816123eb565b9050919050565b600060208201905081810360008301526129de8161240e565b9050919050565b600060208201905081810360008301526129fe81612431565b9050919050565b60006020820190508181036000830152612a1e81612454565b9050919050565b60006020820190508181036000830152612a3e81612477565b9050919050565b60006020820190508181036000830152612a5e8161249a565b9050919050565b60006020820190508181036000830152612a7e816124bd565b9050919050565b60006020820190508181036000830152612a9e816124e0565b9050919050565b60006020820190508181036000830152612abe81612503565b9050919050565b60006020820190508181036000830152612ade81612526565b9050919050565b60006020820190508181036000830152612afe81612549565b9050919050565b60006020820190508181036000830152612b1e8161256c565b9050919050565b60006020820190508181036000830152612b3f818461258f565b905092915050565b6000602082019050612b5c6000830184612774565b92915050565b6000606082019050612b776000830186612774565b612b8460208301856121a1565b612b9160408301846121d6565b949350505050565b6000608082019050612bae6000830187612774565b612bbb60208301866121a1565b612bc860408301856121d6565b612bd5606083018461220b565b95945050505050565b6000608082019050612bf36000830187612774565b612c0060208301866121a1565b612c0d6040830185612774565b612c1a606083018461220b565b95945050505050565b6000606082019050612c386000830186612774565b612c4560208301856121d6565b612c52604083018461220b565b949350505050565b6000604082019050612c6f6000830185612774565b612c7c602083018461220b565b9392505050565b6000819050919050565b60008190508160005260206000209050919050565b600060049050919050565b600081519050919050565b6000600382019050919050565b600081905092915050565b600082825260208201905092915050565b600082825260208201905092915050565b6000612cfd82612df1565b9150612d0883612df1565b9250827fffffffffffffffffffffffffffffffffffffffffffffffffffffffffffffffff03821115612d3d57612d3c612fe4565b5b828201905092915050565b600073ffffffffffffffffffffffffffffffffffffffff82169050919050565b600060ff82169050919050565b6000819050919050565b600060ff82169050919050565b6000819050919050565b6000612da182612dd1565b9050919050565b60008115159050919050565b6000819050919050565b6000819050612dcc8261378f565b919050565b600073ffffffffffffffffffffffffffffffffffffffff82169050919050565b6000819050919050565b6000612e0682612dbe565b9050919050565b6000612e1882612df1565b9050919050565b60005b83811015612e3d578082015181840152602081019050612e22565b83811115612e4c576000848401525b50505050565b600081016000830180612e64816130aa565b9050612e70818461376c565b505050600181016020830180612e85816130aa565b9050612e91818461376c565b505050600281016040830180612ea6816130aa565b9050612eb2818461376c565b5050505050565b60006002820490506001821680612ed157607f821691505b60208210811415612ee557612ee4613042565b5b50919050565b6000612efe612ef983613109565b612d48565b9050919050565b6000612f18612f1383613109565b612d68565b9050919050565b6000612f32612f2d83613109565b612d75565b9050919050565b6000612f4c612f4783613109565b612d7f565b9050919050565b6000612f66612f6183613109565b612d8c565b9050919050565b6000612f7882612df1565b91507fffffffffffffffffffffffffffffffffffffffffffffffffffffffffffffffff821415612fab57612faa612fe4565b5b600182019050919050565b6000612fc182612fd2565b9050919050565b6000819050919050565b6000612fdd826130fc565b9050919050565b7f4e487b7100000000000000000000000000000000000000000000000000000000600052601160045260246000fd5b7f4e487b7100000000000000000000000000000000000000000000000000000000600052602160045260246000fd5b7f4e487b7100000000000000000000000000000000000000000000000000000000600052602260045260246000fd5b7f4e487b7100000000000000000000000000000000000000000000000000000000600052603260045260246000fd5b6000819050919050565b600081356130b7816137e8565b80915050919050565b600080fd5b600080fd5b600080fd5b600080fd5b600080fd5b600080fd5b6000601f19601f8301169050919050565b60008160001b9050919050565b60008160f81b9050919050565b60008160001c9050919050565b7f74696d656f7574506163743a20426c6f636b206d75737420626520677265617460008201527f6572207468616e206f7220657175616c20746f20616e73776572203220626c6f60208201527f636b202b2074696d656f75742e00000000000000000000000000000000000000604082015250565b7f7375626d6974416e73776572313a204d6573736167652073656e646572206d7560008201527f737420626520706172747920312e000000000000000000000000000000000000602082015250565b7f74696d656f7574506163743a2050616374206d757374206861766520616e737760008201527f65722032207375626d69747465642e0000000000000000000000000000000000602082015250565b7f63616e63656c506163743a2050616374206d7573742062652070726f706f736560008201527f642e000000000000000000000000000000000000000000000000000000000000602082015250565b7f7365616c506163743a204d6573736167652076616c7565206e6f74206571756160008201527f6c20746f2070617274792032206465706f7369742e0000000000000000000000602082015250565b7f4465706f73697420746f74616c20646f6573206e6f7420657175616c204e4e2060008201527f7061796f757420746f74616c2e00000000000000000000000000000000000000602082015250565b7f7375626d6974416e73776572323a204d6573736167652073656e646572206d7560008201527f737420626520706172747920322e000000000000000000000000000000000000602082015250565b7f7375626d6974416e7377657231486173683a2050616374206d7573742062652060008201527f7365616c65642e00000000000000000000000000000000000000000000000000602082015250565b7f4465706f73697420746f74616c20646f6573206e6f7420657175616c204e592060008201527f7061796f757420746f74616c2e00000000000000000000000000000000000000602082015250565b7f7365616c506163743a204d6573736167652073656e646572206d75737420626560008201527f20706172747920322e0000000000000000000000000000000000000000000000602082015250565b7f7375626d6974416e7377657231486173683a204d6573736167652073656e646560008201527f72206d75737420626520706172747920312e0000000000000000000000000000602082015250565b7f74696d656f7574506163743a204d6573736167652073656e646572206d75737460008201527f20626520706172747920322e0000000000000000000000000000000000000000602082015250565b7f7365616c506163743a2050616374206d7573742062652070726f706f7365642e600082015250565b7f7375626d6974416e73776572323a2050616374206d757374206861766520616e60008201527f7377657220312068617368207375626d69747465642e00000000000000000000602082015250565b7f4465706f73697420746f74616c20646f6573206e6f7420657175616c20594e2060008201527f7061796f757420746f74616c2e00000000000000000000000000000000000000602082015250565b7f7375626d6974416e73776572313a2050616374206d757374206861766520616e60008201527f737765722032207375626d69747465642e000000000000000000000000000000602082015250565b7f4d6573736167652076616c7565206e6f7420657175616c20746f20706172747960008201527f2031206465706f7369742e000000000000000000000000000000000000000000602082015250565b7f63616e63656c506163743a204d6573736167652073656e646572206d7573742060008201527f626520706172747920312e000000000000000000000000000000000000000000602082015250565b7f4661696c656420746f2066696e64207061796f757420696e6465782e00000000600082015250565b7f4465706f73697420746f74616c20646f6573206e6f7420657175616c2059592060008201527f7061796f757420746f74616c2e00000000000000000000000000000000000000602082015250565b60007fffffffffffffffffffffffffffffffffffffffffffffffffffffffffffffffff613748846130ef565b9350801983169250808416831791505092915050565b6137688282612e52565b5050565b61377582612e0d565b613788613781826130a0565b835461371c565b8255505050565b600781106137a05761379f613013565b5b50565b6137ac81612d96565b81146137b757600080fd5b50565b6137c381612da8565b81146137ce57600080fd5b50565b6137da81612db4565b81146137e557600080fd5b50565b6137f181612df1565b81146137fc57600080fd5b5056fea264697066735822122072cd1e0e692146dcd5d35034e4f6ae2fbc01ff32daef6d763dad9a004020184864736f6c63430008050033",
          "opcodes": "PUSH1 0xA0 PUSH1 0x40 MSTORE CALLVALUE DUP1 ISZERO PUSH3 0x11 JUMPI PUSH1 0x0 DUP1 REVERT JUMPDEST POP PUSH1 0x40 MLOAD PUSH3 0x39B0 CODESIZE SUB DUP1 PUSH3 0x39B0 DUP4 CODECOPY DUP2 DUP2 ADD PUSH1 0x40 MSTORE DUP2 ADD SWAP1 PUSH3 0x37 SWAP2 SWAP1 PUSH3 0x6D JUMP JUMPDEST PUSH3 0x15180 DUP2 PUSH3 0x48 SWAP2 SWAP1 PUSH3 0x9F JUMP JUMPDEST PUSH1 0x80 DUP2 DUP2 MSTORE POP POP POP PUSH3 0x158 JUMP JUMPDEST PUSH1 0x0 DUP2 MLOAD SWAP1 POP PUSH3 0x67 DUP2 PUSH3 0x13E JUMP JUMPDEST SWAP3 SWAP2 POP POP JUMP JUMPDEST PUSH1 0x0 PUSH1 0x20 DUP3 DUP5 SUB SLT ISZERO PUSH3 0x86 JUMPI PUSH3 0x85 PUSH3 0x139 JUMP JUMPDEST JUMPDEST PUSH1 0x0 PUSH3 0x96 DUP5 DUP3 DUP6 ADD PUSH3 0x56 JUMP JUMPDEST SWAP2 POP POP SWAP3 SWAP2 POP POP JUMP JUMPDEST PUSH1 0x0 PUSH3 0xAC DUP3 PUSH3 0x100 JUMP JUMPDEST SWAP2 POP PUSH3 0xB9 DUP4 PUSH3 0x100 JUMP JUMPDEST SWAP3 POP DUP2 PUSH32 0xFFFFFFFFFFFFFFFFFFFFFFFFFFFFFFFFFFFFFFFFFFFFFFFFFFFFFFFFFFFFFFFF DIV DUP4 GT DUP3 ISZERO ISZERO AND ISZERO PUSH3 0xF5 JUMPI PUSH3 0xF4 PUSH3 0x10A JUMP JUMPDEST JUMPDEST DUP3 DUP3 MUL SWAP1 POP SWAP3 SWAP2 POP POP JUMP JUMPDEST PUSH1 0x0 DUP2 SWAP1 POP SWAP2 SWAP1 POP JUMP JUMPDEST PUSH32 0x4E487B7100000000000000000000000000000000000000000000000000000000 PUSH1 0x0 MSTORE PUSH1 0x11 PUSH1 0x4 MSTORE PUSH1 0x24 PUSH1 0x0 REVERT JUMPDEST PUSH1 0x0 DUP1 REVERT JUMPDEST PUSH3 0x149 DUP2 PUSH3 0x100 JUMP JUMPDEST DUP2 EQ PUSH3 0x155 JUMPI PUSH1 0x0 DUP1 REVERT JUMPDEST POP JUMP JUMPDEST PUSH1 0x80 MLOAD PUSH2 0x3835 PUSH3 0x17B PUSH1 0x0 CODECOPY PUSH1 0x0 DUP2 DUP2 PUSH2 0x9BD ADD MSTORE PUSH2 0x15D0 ADD MSTORE PUSH2 0x3835 PUSH1 0x0 RETURN INVALID PUSH1 0x80 PUSH1 0x40 MSTORE PUSH1 0x4 CALLDATASIZE LT PUSH2 0xE1 JUMPI PUSH1 0x0 CALLDATALOAD PUSH1 0xE0 SHR DUP1 PUSH4 0x6FF96D17 GT PUSH2 0x7F JUMPI DUP1 PUSH4 0xA3A86827 GT PUSH2 0x59 JUMPI DUP1 PUSH4 0xA3A86827 EQ PUSH2 0x2EC JUMPI DUP1 PUSH4 0xE2868E7A EQ PUSH2 0x315 JUMPI DUP1 PUSH4 0xF10FB3DA EQ PUSH2 0x33E JUMPI DUP1 PUSH4 0xF56F48F2 EQ PUSH2 0x369 JUMPI PUSH2 0x121 JUMP JUMPDEST DUP1 PUSH4 0x6FF96D17 EQ PUSH2 0x256 JUMPI DUP1 PUSH4 0x7E4820D8 EQ PUSH2 0x293 JUMPI DUP1 PUSH4 0x847A9E0B EQ PUSH2 0x2D0 JUMPI PUSH2 0x121 JUMP JUMPDEST DUP1 PUSH4 0x2C8582FB GT PUSH2 0xBB JUMPI DUP1 PUSH4 0x2C8582FB EQ PUSH2 0x1B2 JUMPI DUP1 PUSH4 0x2D451D0F EQ PUSH2 0x1DB JUMPI DUP1 PUSH4 0x51CFF8D9 EQ PUSH2 0x204 JUMPI DUP1 PUSH4 0x5B9CD10A EQ PUSH2 0x22D JUMPI PUSH2 0x121 JUMP JUMPDEST DUP1 PUSH4 0xA2F86DA EQ PUSH2 0x126 JUMPI DUP1 PUSH4 0xEDF25F5 EQ PUSH2 0x14F JUMPI DUP1 PUSH4 0x1F497479 EQ PUSH2 0x196 JUMPI PUSH2 0x121 JUMP JUMPDEST CALLDATASIZE PUSH2 0x121 JUMPI PUSH32 0xF32A9F77675FD5917534C7746608FD3E309EAC68FBDCBF5925E24CA97A704396 CALLER CALLVALUE PUSH1 0x40 MLOAD PUSH2 0x117 SWAP3 SWAP2 SWAP1 PUSH2 0x2861 JUMP JUMPDEST PUSH1 0x40 MLOAD DUP1 SWAP2 SUB SWAP1 LOG1 STOP JUMPDEST PUSH1 0x0 DUP1 REVERT JUMPDEST CALLVALUE DUP1 ISZERO PUSH2 0x132 JUMPI PUSH1 0x0 DUP1 REVERT JUMPDEST POP PUSH2 0x14D PUSH1 0x4 DUP1 CALLDATASIZE SUB DUP2 ADD SWAP1 PUSH2 0x148 SWAP2 SWAP1 PUSH2 0x1FA3 JUMP JUMPDEST PUSH2 0x394 JUMP JUMPDEST STOP JUMPDEST CALLVALUE DUP1 ISZERO PUSH2 0x15B JUMPI PUSH1 0x0 DUP1 REVERT JUMPDEST POP PUSH2 0x176 PUSH1 0x4 DUP1 CALLDATASIZE SUB DUP2 ADD SWAP1 PUSH2 0x171 SWAP2 SWAP1 PUSH2 0x1F76 JUMP JUMPDEST PUSH2 0x56F JUMP JUMPDEST PUSH1 0x40 MLOAD PUSH2 0x18D SWAP12 SWAP11 SWAP10 SWAP9 SWAP8 SWAP7 SWAP6 SWAP5 SWAP4 SWAP3 SWAP2 SWAP1 PUSH2 0x27AF JUMP JUMPDEST PUSH1 0x40 MLOAD DUP1 SWAP2 SUB SWAP1 RETURN JUMPDEST PUSH2 0x1B0 PUSH1 0x4 DUP1 CALLDATASIZE SUB DUP2 ADD SWAP1 PUSH2 0x1AB SWAP2 SWAP1 PUSH2 0x1F76 JUMP JUMPDEST PUSH2 0x6B8 JUMP JUMPDEST STOP JUMPDEST CALLVALUE DUP1 ISZERO PUSH2 0x1BE JUMPI PUSH1 0x0 DUP1 REVERT JUMPDEST POP PUSH2 0x1D9 PUSH1 0x4 DUP1 CALLDATASIZE SUB DUP2 ADD SWAP1 PUSH2 0x1D4 SWAP2 SWAP1 PUSH2 0x1F76 JUMP JUMPDEST PUSH2 0x89A JUMP JUMPDEST STOP JUMPDEST CALLVALUE DUP1 ISZERO PUSH2 0x1E7 JUMPI PUSH1 0x0 DUP1 REVERT JUMPDEST POP PUSH2 0x202 PUSH1 0x4 DUP1 CALLDATASIZE SUB DUP2 ADD SWAP1 PUSH2 0x1FD SWAP2 SWAP1 PUSH2 0x2036 JUMP JUMPDEST PUSH2 0xAB1 JUMP JUMPDEST STOP JUMPDEST CALLVALUE DUP1 ISZERO PUSH2 0x210 JUMPI PUSH1 0x0 DUP1 REVERT JUMPDEST POP PUSH2 0x22B PUSH1 0x4 DUP1 CALLDATASIZE SUB DUP2 ADD SWAP1 PUSH2 0x226 SWAP2 SWAP1 PUSH2 0x1E30 JUMP JUMPDEST PUSH2 0xC5D JUMP JUMPDEST STOP JUMPDEST CALLVALUE DUP1 ISZERO PUSH2 0x239 JUMPI PUSH1 0x0 DUP1 REVERT JUMPDEST POP PUSH2 0x254 PUSH1 0x4 DUP1 CALLDATASIZE SUB DUP2 ADD SWAP1 PUSH2 0x24F SWAP2 SWAP1 PUSH2 0x2076 JUMP JUMPDEST PUSH2 0xD68 JUMP JUMPDEST STOP JUMPDEST CALLVALUE DUP1 ISZERO PUSH2 0x262 JUMPI PUSH1 0x0 DUP1 REVERT JUMPDEST POP PUSH2 0x27D PUSH1 0x4 DUP1 CALLDATASIZE SUB DUP2 ADD SWAP1 PUSH2 0x278 SWAP2 SWAP1 PUSH2 0x1E30 JUMP JUMPDEST PUSH2 0xF11 JUMP JUMPDEST PUSH1 0x40 MLOAD PUSH2 0x28A SWAP2 SWAP1 PUSH2 0x2B47 JUMP JUMPDEST PUSH1 0x40 MLOAD DUP1 SWAP2 SUB SWAP1 RETURN JUMPDEST CALLVALUE DUP1 ISZERO PUSH2 0x29F JUMPI PUSH1 0x0 DUP1 REVERT JUMPDEST POP PUSH2 0x2BA PUSH1 0x4 DUP1 CALLDATASIZE SUB DUP2 ADD SWAP1 PUSH2 0x2B5 SWAP2 SWAP1 PUSH2 0x1F36 JUMP JUMPDEST PUSH2 0xF29 JUMP JUMPDEST PUSH1 0x40 MLOAD PUSH2 0x2C7 SWAP2 SWAP1 PUSH2 0x288A JUMP JUMPDEST PUSH1 0x40 MLOAD DUP1 SWAP2 SUB SWAP1 RETURN JUMPDEST PUSH2 0x2EA PUSH1 0x4 DUP1 CALLDATASIZE SUB DUP2 ADD SWAP1 PUSH2 0x2E5 SWAP2 SWAP1 PUSH2 0x1E5D JUMP JUMPDEST PUSH2 0xF5C JUMP JUMPDEST STOP JUMPDEST CALLVALUE DUP1 ISZERO PUSH2 0x2F8 JUMPI PUSH1 0x0 DUP1 REVERT JUMPDEST POP PUSH2 0x313 PUSH1 0x4 DUP1 CALLDATASIZE SUB DUP2 ADD SWAP1 PUSH2 0x30E SWAP2 SWAP1 PUSH2 0x1F76 JUMP JUMPDEST PUSH2 0x11A5 JUMP JUMPDEST STOP JUMPDEST CALLVALUE DUP1 ISZERO PUSH2 0x321 JUMPI PUSH1 0x0 DUP1 REVERT JUMPDEST POP PUSH2 0x33C PUSH1 0x4 DUP1 CALLDATASIZE SUB DUP2 ADD SWAP1 PUSH2 0x337 SWAP2 SWAP1 PUSH2 0x1FE3 JUMP JUMPDEST PUSH2 0x1373 JUMP JUMPDEST STOP JUMPDEST CALLVALUE DUP1 ISZERO PUSH2 0x34A JUMPI PUSH1 0x0 DUP1 REVERT JUMPDEST POP PUSH2 0x353 PUSH2 0x15C8 JUMP JUMPDEST PUSH1 0x40 MLOAD PUSH2 0x360 SWAP2 SWAP1 PUSH2 0x2B47 JUMP JUMPDEST PUSH1 0x40 MLOAD DUP1 SWAP2 SUB SWAP1 RETURN JUMPDEST CALLVALUE DUP1 ISZERO PUSH2 0x375 JUMPI PUSH1 0x0 DUP1 REVERT JUMPDEST POP PUSH2 0x37E PUSH2 0x15CE JUMP JUMPDEST PUSH1 0x40 MLOAD PUSH2 0x38B SWAP2 SWAP1 PUSH2 0x2B47 JUMP JUMPDEST PUSH1 0x40 MLOAD DUP1 SWAP2 SUB SWAP1 RETURN JUMPDEST PUSH1 0x0 PUSH1 0x2 PUSH1 0x0 DUP5 DUP2 MSTORE PUSH1 0x20 ADD SWAP1 DUP2 MSTORE PUSH1 0x20 ADD PUSH1 0x0 KECCAK256 SWAP1 POP PUSH1 0x3 PUSH1 0x6 DUP2 GT ISZERO PUSH2 0x3BF JUMPI PUSH2 0x3BE PUSH2 0x3013 JUMP JUMPDEST JUMPDEST DUP2 PUSH1 0x16 ADD PUSH1 0x0 SWAP1 SLOAD SWAP1 PUSH2 0x100 EXP SWAP1 DIV PUSH1 0xFF AND PUSH1 0x6 DUP2 GT ISZERO PUSH2 0x3E3 JUMPI PUSH2 0x3E2 PUSH2 0x3013 JUMP JUMPDEST JUMPDEST EQ PUSH2 0x423 JUMPI PUSH1 0x40 MLOAD PUSH32 0x8C379A000000000000000000000000000000000000000000000000000000000 DUP2 MSTORE PUSH1 0x4 ADD PUSH2 0x41A SWAP1 PUSH2 0x2A45 JUMP JUMPDEST PUSH1 0x40 MLOAD DUP1 SWAP2 SUB SWAP1 REVERT JUMPDEST CALLER PUSH20 0xFFFFFFFFFFFFFFFFFFFFFFFFFFFFFFFFFFFFFFFF AND DUP2 PUSH1 0x1 ADD PUSH1 0x0 SWAP1 SLOAD SWAP1 PUSH2 0x100 EXP SWAP1 DIV PUSH20 0xFFFFFFFFFFFFFFFFFFFFFFFFFFFFFFFFFFFFFFFF AND PUSH20 0xFFFFFFFFFFFFFFFFFFFFFFFFFFFFFFFFFFFFFFFF AND EQ PUSH2 0x4B5 JUMPI PUSH1 0x40 MLOAD PUSH32 0x8C379A000000000000000000000000000000000000000000000000000000000 DUP2 MSTORE PUSH1 0x4 ADD PUSH2 0x4AC SWAP1 PUSH2 0x2965 JUMP JUMPDEST PUSH1 0x40 MLOAD DUP1 SWAP2 SUB SWAP1 REVERT JUMPDEST DUP2 DUP2 PUSH1 0x12 ADD PUSH1 0x0 PUSH2 0x100 EXP DUP2 SLOAD DUP2 PUSH1 0xFF MUL NOT AND SWAP1 DUP4 ISZERO ISZERO MUL OR SWAP1 SSTORE POP NUMBER DUP2 PUSH1 0x13 ADD DUP2 SWAP1 SSTORE POP PUSH1 0x4 DUP2 PUSH1 0x16 ADD PUSH1 0x0 PUSH2 0x100 EXP DUP2 SLOAD DUP2 PUSH1 0xFF MUL NOT AND SWAP1 DUP4 PUSH1 0x6 DUP2 GT ISZERO PUSH2 0x502 JUMPI PUSH2 0x501 PUSH2 0x3013 JUMP JUMPDEST JUMPDEST MUL OR SWAP1 SSTORE POP PUSH32 0x8C519CDBE21CF251CF06F8F9D7D750B9BBB2E8F2F38C0936BC7ACE41DB406522 DUP4 DUP3 PUSH1 0x12 ADD PUSH1 0x0 SWAP1 SLOAD SWAP1 PUSH2 0x100 EXP SWAP1 DIV PUSH1 0xFF AND DUP4 PUSH1 0x13 ADD SLOAD DUP5 PUSH1 0x16 ADD PUSH1 0x0 SWAP1 SLOAD SWAP1 PUSH2 0x100 EXP SWAP1 DIV PUSH1 0xFF AND PUSH1 0x40 MLOAD PUSH2 0x562 SWAP5 SWAP4 SWAP3 SWAP2 SWAP1 PUSH2 0x2BDE JUMP JUMPDEST PUSH1 0x40 MLOAD DUP1 SWAP2 SUB SWAP1 LOG1 POP POP POP JUMP JUMPDEST PUSH1 0x2 PUSH1 0x20 MSTORE DUP1 PUSH1 0x0 MSTORE PUSH1 0x40 PUSH1 0x0 KECCAK256 PUSH1 0x0 SWAP2 POP SWAP1 POP DUP1 PUSH1 0x0 ADD PUSH1 0x0 SWAP1 SLOAD SWAP1 PUSH2 0x100 EXP SWAP1 DIV PUSH20 0xFFFFFFFFFFFFFFFFFFFFFFFFFFFFFFFFFFFFFFFF AND SWAP1 DUP1 PUSH1 0x1 ADD PUSH1 0x0 SWAP1 SLOAD SWAP1 PUSH2 0x100 EXP SWAP1 DIV PUSH20 0xFFFFFFFFFFFFFFFFFFFFFFFFFFFFFFFFFFFFFFFF AND SWAP1 DUP1 PUSH1 0x2 ADD SLOAD SWAP1 DUP1 PUSH1 0x3 ADD SLOAD SWAP1 DUP1 PUSH1 0x10 ADD DUP1 SLOAD PUSH2 0x5EA SWAP1 PUSH2 0x2EB9 JUMP JUMPDEST DUP1 PUSH1 0x1F ADD PUSH1 0x20 DUP1 SWAP2 DIV MUL PUSH1 0x20 ADD PUSH1 0x40 MLOAD SWAP1 DUP2 ADD PUSH1 0x40 MSTORE DUP1 SWAP3 SWAP2 SWAP1 DUP2 DUP2 MSTORE PUSH1 0x20 ADD DUP3 DUP1 SLOAD PUSH2 0x616 SWAP1 PUSH2 0x2EB9 JUMP JUMPDEST DUP1 ISZERO PUSH2 0x663 JUMPI DUP1 PUSH1 0x1F LT PUSH2 0x638 JUMPI PUSH2 0x100 DUP1 DUP4 SLOAD DIV MUL DUP4 MSTORE SWAP2 PUSH1 0x20 ADD SWAP2 PUSH2 0x663 JUMP JUMPDEST DUP3 ADD SWAP2 SWAP1 PUSH1 0x0 MSTORE PUSH1 0x20 PUSH1 0x0 KECCAK256 SWAP1 JUMPDEST DUP2 SLOAD DUP2 MSTORE SWAP1 PUSH1 0x1 ADD SWAP1 PUSH1 0x20 ADD DUP1 DUP4 GT PUSH2 0x646 JUMPI DUP3 SWAP1 SUB PUSH1 0x1F AND DUP3 ADD SWAP2 JUMPDEST POP POP POP POP POP SWAP1 DUP1 PUSH1 0x11 ADD SLOAD SWAP1 DUP1 PUSH1 0x12 ADD PUSH1 0x0 SWAP1 SLOAD SWAP1 PUSH2 0x100 EXP SWAP1 DIV PUSH1 0xFF AND SWAP1 DUP1 PUSH1 0x13 ADD SLOAD SWAP1 DUP1 PUSH1 0x14 ADD PUSH1 0x0 SWAP1 SLOAD SWAP1 PUSH2 0x100 EXP SWAP1 DIV PUSH1 0xFF AND SWAP1 DUP1 PUSH1 0x15 ADD SLOAD SWAP1 DUP1 PUSH1 0x16 ADD PUSH1 0x0 SWAP1 SLOAD SWAP1 PUSH2 0x100 EXP SWAP1 DIV PUSH1 0xFF AND SWAP1 POP DUP12 JUMP JUMPDEST PUSH1 0x0 PUSH1 0x2 PUSH1 0x0 DUP4 DUP2 MSTORE PUSH1 0x20 ADD SWAP1 DUP2 MSTORE PUSH1 0x20 ADD PUSH1 0x0 KECCAK256 SWAP1 POP PUSH1 0x0 PUSH1 0x6 DUP2 GT ISZERO PUSH2 0x6E3 JUMPI PUSH2 0x6E2 PUSH2 0x3013 JUMP JUMPDEST JUMPDEST DUP2 PUSH1 0x16 ADD PUSH1 0x0 SWAP1 SLOAD SWAP1 PUSH2 0x100 EXP SWAP1 DIV PUSH1 0xFF AND PUSH1 0x6 DUP2 GT ISZERO PUSH2 0x707 JUMPI PUSH2 0x706 PUSH2 0x3013 JUMP JUMPDEST JUMPDEST EQ PUSH2 0x747 JUMPI PUSH1 0x40 MLOAD PUSH32 0x8C379A000000000000000000000000000000000000000000000000000000000 DUP2 MSTORE PUSH1 0x4 ADD PUSH2 0x73E SWAP1 PUSH2 0x2A25 JUMP JUMPDEST PUSH1 0x40 MLOAD DUP1 SWAP2 SUB SWAP1 REVERT JUMPDEST CALLER PUSH20 0xFFFFFFFFFFFFFFFFFFFFFFFFFFFFFFFFFFFFFFFF AND DUP2 PUSH1 0x1 ADD PUSH1 0x0 SWAP1 SLOAD SWAP1 PUSH2 0x100 EXP SWAP1 DIV PUSH20 0xFFFFFFFFFFFFFFFFFFFFFFFFFFFFFFFFFFFFFFFF AND PUSH20 0xFFFFFFFFFFFFFFFFFFFFFFFFFFFFFFFFFFFFFFFF AND EQ PUSH2 0x7D9 JUMPI PUSH1 0x40 MLOAD PUSH32 0x8C379A000000000000000000000000000000000000000000000000000000000 DUP2 MSTORE PUSH1 0x4 ADD PUSH2 0x7D0 SWAP1 PUSH2 0x29C5 JUMP JUMPDEST PUSH1 0x40 MLOAD DUP1 SWAP2 SUB SWAP1 REVERT JUMPDEST DUP1 PUSH1 0x3 ADD SLOAD CALLVALUE EQ PUSH2 0x81F JUMPI PUSH1 0x40 MLOAD PUSH32 0x8C379A000000000000000000000000000000000000000000000000000000000 DUP2 MSTORE PUSH1 0x4 ADD PUSH2 0x816 SWAP1 PUSH2 0x2925 JUMP JUMPDEST PUSH1 0x40 MLOAD DUP1 SWAP2 SUB SWAP1 REVERT JUMPDEST PUSH1 0x2 DUP2 PUSH1 0x16 ADD PUSH1 0x0 PUSH2 0x100 EXP DUP2 SLOAD DUP2 PUSH1 0xFF MUL NOT AND SWAP1 DUP4 PUSH1 0x6 DUP2 GT ISZERO PUSH2 0x847 JUMPI PUSH2 0x846 PUSH2 0x3013 JUMP JUMPDEST JUMPDEST MUL OR SWAP1 SSTORE POP PUSH32 0x802DABD127AB1CB2F508C4B573914E7A7C87655CE06722EDBBEBD42B10F7A596 DUP3 DUP3 PUSH1 0x16 ADD PUSH1 0x0 SWAP1 SLOAD SWAP1 PUSH2 0x100 EXP SWAP1 DIV PUSH1 0xFF AND PUSH1 0x40 MLOAD PUSH2 0x88E SWAP3 SWAP2 SWAP1 PUSH2 0x2C5A JUMP JUMPDEST PUSH1 0x40 MLOAD DUP1 SWAP2 SUB SWAP1 LOG1 POP POP JUMP JUMPDEST PUSH1 0x0 PUSH1 0x2 PUSH1 0x0 DUP4 DUP2 MSTORE PUSH1 0x20 ADD SWAP1 DUP2 MSTORE PUSH1 0x20 ADD PUSH1 0x0 KECCAK256 SWAP1 POP PUSH1 0x4 PUSH1 0x6 DUP2 GT ISZERO PUSH2 0x8C5 JUMPI PUSH2 0x8C4 PUSH2 0x3013 JUMP JUMPDEST JUMPDEST DUP2 PUSH1 0x16 ADD PUSH1 0x0 SWAP1 SLOAD SWAP1 PUSH2 0x100 EXP SWAP1 DIV PUSH1 0xFF AND PUSH1 0x6 DUP2 GT ISZERO PUSH2 0x8E9 JUMPI PUSH2 0x8E8 PUSH2 0x3013 JUMP JUMPDEST JUMPDEST EQ PUSH2 0x929 JUMPI PUSH1 0x40 MLOAD PUSH32 0x8C379A000000000000000000000000000000000000000000000000000000000 DUP2 MSTORE PUSH1 0x4 ADD PUSH2 0x920 SWAP1 PUSH2 0x28E5 JUMP JUMPDEST PUSH1 0x40 MLOAD DUP1 SWAP2 SUB SWAP1 REVERT JUMPDEST DUP1 PUSH1 0x1 ADD PUSH1 0x0 SWAP1 SLOAD SWAP1 PUSH2 0x100 EXP SWAP1 DIV PUSH20 0xFFFFFFFFFFFFFFFFFFFFFFFFFFFFFFFFFFFFFFFF AND PUSH20 0xFFFFFFFFFFFFFFFFFFFFFFFFFFFFFFFFFFFFFFFF AND CALLER PUSH20 0xFFFFFFFFFFFFFFFFFFFFFFFFFFFFFFFFFFFFFFFF AND EQ PUSH2 0x9BB JUMPI PUSH1 0x40 MLOAD PUSH32 0x8C379A000000000000000000000000000000000000000000000000000000000 DUP2 MSTORE PUSH1 0x4 ADD PUSH2 0x9B2 SWAP1 PUSH2 0x2A05 JUMP JUMPDEST PUSH1 0x40 MLOAD DUP1 SWAP2 SUB SWAP1 REVERT JUMPDEST PUSH32 0x0 DUP2 PUSH1 0x13 ADD SLOAD PUSH2 0x9EB SWAP2 SWAP1 PUSH2 0x2CF2 JUMP JUMPDEST NUMBER LT ISZERO PUSH2 0xA2D JUMPI PUSH1 0x40 MLOAD PUSH32 0x8C379A000000000000000000000000000000000000000000000000000000000 DUP2 MSTORE PUSH1 0x4 ADD PUSH2 0xA24 SWAP1 PUSH2 0x28A5 JUMP JUMPDEST PUSH1 0x40 MLOAD DUP1 SWAP2 SUB SWAP1 REVERT JUMPDEST PUSH1 0x5 DUP2 PUSH1 0x16 ADD PUSH1 0x0 PUSH2 0x100 EXP DUP2 SLOAD DUP2 PUSH1 0xFF MUL NOT AND SWAP1 DUP4 PUSH1 0x6 DUP2 GT ISZERO PUSH2 0xA55 JUMPI PUSH2 0xA54 PUSH2 0x3013 JUMP JUMPDEST JUMPDEST MUL OR SWAP1 SSTORE POP PUSH2 0xA63 DUP3 PUSH2 0x15F2 JUMP JUMPDEST PUSH32 0x1298E8412738AB53EAE8076A7EC2C244ACC3F16C33CA1BB088FC8CA4FE187E74 DUP3 DUP3 PUSH1 0x16 ADD PUSH1 0x0 SWAP1 SLOAD SWAP1 PUSH2 0x100 EXP SWAP1 DIV PUSH1 0xFF AND PUSH1 0x40 MLOAD PUSH2 0xAA5 SWAP3 SWAP2 SWAP1 PUSH2 0x2C5A JUMP JUMPDEST PUSH1 0x40 MLOAD DUP1 SWAP2 SUB SWAP1 LOG1 POP POP JUMP JUMPDEST PUSH1 0x0 PUSH1 0x2 PUSH1 0x0 DUP5 DUP2 MSTORE PUSH1 0x20 ADD SWAP1 DUP2 MSTORE PUSH1 0x20 ADD PUSH1 0x0 KECCAK256 SWAP1 POP PUSH1 0x2 PUSH1 0x6 DUP2 GT ISZERO PUSH2 0xADC JUMPI PUSH2 0xADB PUSH2 0x3013 JUMP JUMPDEST JUMPDEST DUP2 PUSH1 0x16 ADD PUSH1 0x0 SWAP1 SLOAD SWAP1 PUSH2 0x100 EXP SWAP1 DIV PUSH1 0xFF AND PUSH1 0x6 DUP2 GT ISZERO PUSH2 0xB00 JUMPI PUSH2 0xAFF PUSH2 0x3013 JUMP JUMPDEST JUMPDEST EQ PUSH2 0xB40 JUMPI PUSH1 0x40 MLOAD PUSH32 0x8C379A000000000000000000000000000000000000000000000000000000000 DUP2 MSTORE PUSH1 0x4 ADD PUSH2 0xB37 SWAP1 PUSH2 0x2985 JUMP JUMPDEST PUSH1 0x40 MLOAD DUP1 SWAP2 SUB SWAP1 REVERT JUMPDEST CALLER PUSH20 0xFFFFFFFFFFFFFFFFFFFFFFFFFFFFFFFFFFFFFFFF AND DUP2 PUSH1 0x0 ADD PUSH1 0x0 SWAP1 SLOAD SWAP1 PUSH2 0x100 EXP SWAP1 DIV PUSH20 0xFFFFFFFFFFFFFFFFFFFFFFFFFFFFFFFFFFFFFFFF AND PUSH20 0xFFFFFFFFFFFFFFFFFFFFFFFFFFFFFFFFFFFFFFFF AND EQ PUSH2 0xBD2 JUMPI PUSH1 0x40 MLOAD PUSH32 0x8C379A000000000000000000000000000000000000000000000000000000000 DUP2 MSTORE PUSH1 0x4 ADD PUSH2 0xBC9 SWAP1 PUSH2 0x29E5 JUMP JUMPDEST PUSH1 0x40 MLOAD DUP1 SWAP2 SUB SWAP1 REVERT JUMPDEST DUP2 DUP2 PUSH1 0x11 ADD DUP2 SWAP1 SSTORE POP PUSH1 0x3 DUP2 PUSH1 0x16 ADD PUSH1 0x0 PUSH2 0x100 EXP DUP2 SLOAD DUP2 PUSH1 0xFF MUL NOT AND SWAP1 DUP4 PUSH1 0x6 DUP2 GT ISZERO PUSH2 0xC03 JUMPI PUSH2 0xC02 PUSH2 0x3013 JUMP JUMPDEST JUMPDEST MUL OR SWAP1 SSTORE POP PUSH32 0x3BD3C4C5C531BCB5E716B2CCC90104E86D8DF90828515AB0D4530D02509EA5DF DUP4 DUP3 PUSH1 0x11 ADD SLOAD DUP4 PUSH1 0x16 ADD PUSH1 0x0 SWAP1 SLOAD SWAP1 PUSH2 0x100 EXP SWAP1 DIV PUSH1 0xFF AND PUSH1 0x40 MLOAD PUSH2 0xC50 SWAP4 SWAP3 SWAP2 SWAP1 PUSH2 0x2C23 JUMP JUMPDEST PUSH1 0x40 MLOAD DUP1 SWAP2 SUB SWAP1 LOG1 POP POP POP JUMP JUMPDEST PUSH1 0x0 DUP1 PUSH1 0x0 DUP4 PUSH20 0xFFFFFFFFFFFFFFFFFFFFFFFFFFFFFFFFFFFFFFFF AND PUSH20 0xFFFFFFFFFFFFFFFFFFFFFFFFFFFFFFFFFFFFFFFF AND DUP2 MSTORE PUSH1 0x20 ADD SWAP1 DUP2 MSTORE PUSH1 0x20 ADD PUSH1 0x0 KECCAK256 SLOAD SWAP1 POP PUSH1 0x0 DUP1 PUSH1 0x0 DUP5 PUSH20 0xFFFFFFFFFFFFFFFFFFFFFFFFFFFFFFFFFFFFFFFF AND PUSH20 0xFFFFFFFFFFFFFFFFFFFFFFFFFFFFFFFFFFFFFFFF AND DUP2 MSTORE PUSH1 0x20 ADD SWAP1 DUP2 MSTORE PUSH1 0x20 ADD PUSH1 0x0 KECCAK256 DUP2 SWAP1 SSTORE POP DUP2 PUSH20 0xFFFFFFFFFFFFFFFFFFFFFFFFFFFFFFFFFFFFFFFF AND PUSH2 0x8FC DUP3 SWAP1 DUP2 ISZERO MUL SWAP1 PUSH1 0x40 MLOAD PUSH1 0x0 PUSH1 0x40 MLOAD DUP1 DUP4 SUB DUP2 DUP6 DUP9 DUP9 CALL SWAP4 POP POP POP POP ISZERO DUP1 ISZERO PUSH2 0xD2A JUMPI RETURNDATASIZE PUSH1 0x0 DUP1 RETURNDATACOPY RETURNDATASIZE PUSH1 0x0 REVERT JUMPDEST POP PUSH32 0xDB35132C111EFE920CEDE025E819975671CFD1B8FCC1174762C8670C4E94C211 DUP3 DUP3 PUSH1 0x40 MLOAD PUSH2 0xD5C SWAP3 SWAP2 SWAP1 PUSH2 0x2861 JUMP JUMPDEST PUSH1 0x40 MLOAD DUP1 SWAP2 SUB SWAP1 LOG1 POP POP JUMP JUMPDEST PUSH1 0x0 DUP6 DUP8 PUSH2 0xD76 SWAP2 SWAP1 PUSH2 0x2CF2 JUMP JUMPDEST SWAP1 POP DUP5 PUSH1 0x40 ADD CALLDATALOAD DUP6 PUSH1 0x20 ADD CALLDATALOAD DUP7 PUSH1 0x0 ADD CALLDATALOAD PUSH2 0xD91 SWAP2 SWAP1 PUSH2 0x2CF2 JUMP JUMPDEST PUSH2 0xD9B SWAP2 SWAP1 PUSH2 0x2CF2 JUMP JUMPDEST DUP2 EQ PUSH2 0xDDC JUMPI PUSH1 0x40 MLOAD PUSH32 0x8C379A000000000000000000000000000000000000000000000000000000000 DUP2 MSTORE PUSH1 0x4 ADD PUSH2 0xDD3 SWAP1 PUSH2 0x2B05 JUMP JUMPDEST PUSH1 0x40 MLOAD DUP1 SWAP2 SUB SWAP1 REVERT JUMPDEST DUP4 PUSH1 0x40 ADD CALLDATALOAD DUP5 PUSH1 0x20 ADD CALLDATALOAD DUP6 PUSH1 0x0 ADD CALLDATALOAD PUSH2 0xDF5 SWAP2 SWAP1 PUSH2 0x2CF2 JUMP JUMPDEST PUSH2 0xDFF SWAP2 SWAP1 PUSH2 0x2CF2 JUMP JUMPDEST DUP2 EQ PUSH2 0xE40 JUMPI PUSH1 0x40 MLOAD PUSH32 0x8C379A000000000000000000000000000000000000000000000000000000000 DUP2 MSTORE PUSH1 0x4 ADD PUSH2 0xE37 SWAP1 PUSH2 0x2A65 JUMP JUMPDEST PUSH1 0x40 MLOAD DUP1 SWAP2 SUB SWAP1 REVERT JUMPDEST DUP3 PUSH1 0x40 ADD CALLDATALOAD DUP4 PUSH1 0x20 ADD CALLDATALOAD DUP5 PUSH1 0x0 ADD CALLDATALOAD PUSH2 0xE59 SWAP2 SWAP1 PUSH2 0x2CF2 JUMP JUMPDEST PUSH2 0xE63 SWAP2 SWAP1 PUSH2 0x2CF2 JUMP JUMPDEST DUP2 EQ PUSH2 0xEA4 JUMPI PUSH1 0x40 MLOAD PUSH32 0x8C379A000000000000000000000000000000000000000000000000000000000 DUP2 MSTORE PUSH1 0x4 ADD PUSH2 0xE9B SWAP1 PUSH2 0x29A5 JUMP JUMPDEST PUSH1 0x40 MLOAD DUP1 SWAP2 SUB SWAP1 REVERT JUMPDEST DUP2 PUSH1 0x40 ADD CALLDATALOAD DUP3 PUSH1 0x20 ADD CALLDATALOAD DUP4 PUSH1 0x0 ADD CALLDATALOAD PUSH2 0xEBD SWAP2 SWAP1 PUSH2 0x2CF2 JUMP JUMPDEST PUSH2 0xEC7 SWAP2 SWAP1 PUSH2 0x2CF2 JUMP JUMPDEST DUP2 EQ PUSH2 0xF08 JUMPI PUSH1 0x40 MLOAD PUSH32 0x8C379A000000000000000000000000000000000000000000000000000000000 DUP2 MSTORE PUSH1 0x4 ADD PUSH2 0xEFF SWAP1 PUSH2 0x2945 JUMP JUMPDEST PUSH1 0x40 MLOAD DUP1 SWAP2 SUB SWAP1 REVERT JUMPDEST POP POP POP POP POP POP POP JUMP JUMPDEST PUSH1 0x0 PUSH1 0x20 MSTORE DUP1 PUSH1 0x0 MSTORE PUSH1 0x40 PUSH1 0x0 KECCAK256 PUSH1 0x0 SWAP2 POP SWAP1 POP SLOAD DUP2 JUMP JUMPDEST PUSH1 0x0 DUP3 DUP3 PUSH1 0x40 MLOAD PUSH1 0x20 ADD PUSH2 0xF3E SWAP3 SWAP2 SWAP1 PUSH2 0x2783 JUMP JUMPDEST PUSH1 0x40 MLOAD PUSH1 0x20 DUP2 DUP4 SUB SUB DUP2 MSTORE SWAP1 PUSH1 0x40 MSTORE DUP1 MLOAD SWAP1 PUSH1 0x20 ADD KECCAK256 SWAP1 POP SWAP3 SWAP2 POP POP JUMP JUMPDEST DUP8 CALLVALUE EQ PUSH2 0xF9E JUMPI PUSH1 0x40 MLOAD PUSH32 0x8C379A000000000000000000000000000000000000000000000000000000000 DUP2 MSTORE PUSH1 0x4 ADD PUSH2 0xF95 SWAP1 PUSH2 0x2AA5 JUMP JUMPDEST PUSH1 0x40 MLOAD DUP1 SWAP2 SUB SWAP1 REVERT JUMPDEST PUSH2 0xFAC DUP9 DUP9 DUP9 DUP9 DUP9 DUP9 PUSH2 0xD68 JUMP JUMPDEST PUSH1 0x0 PUSH1 0x2 PUSH1 0x0 PUSH1 0x1 SLOAD DUP2 MSTORE PUSH1 0x20 ADD SWAP1 DUP2 MSTORE PUSH1 0x20 ADD PUSH1 0x0 KECCAK256 SWAP1 POP CALLER DUP2 PUSH1 0x0 ADD PUSH1 0x0 PUSH2 0x100 EXP DUP2 SLOAD DUP2 PUSH20 0xFFFFFFFFFFFFFFFFFFFFFFFFFFFFFFFFFFFFFFFF MUL NOT AND SWAP1 DUP4 PUSH20 0xFFFFFFFFFFFFFFFFFFFFFFFFFFFFFFFFFFFFFFFF AND MUL OR SWAP1 SSTORE POP DUP10 DUP2 PUSH1 0x1 ADD PUSH1 0x0 PUSH2 0x100 EXP DUP2 SLOAD DUP2 PUSH20 0xFFFFFFFFFFFFFFFFFFFFFFFFFFFFFFFFFFFFFFFF MUL NOT AND SWAP1 DUP4 PUSH20 0xFFFFFFFFFFFFFFFFFFFFFFFFFFFFFFFFFFFFFFFF AND MUL OR SWAP1 SSTORE POP DUP9 DUP2 PUSH1 0x2 ADD DUP2 SWAP1 SSTORE POP DUP8 DUP2 PUSH1 0x3 ADD DUP2 SWAP1 SSTORE POP DUP7 DUP2 PUSH1 0x4 ADD PUSH1 0x0 PUSH1 0x4 DUP2 LT PUSH2 0x1075 JUMPI PUSH2 0x1074 PUSH2 0x3071 JUMP JUMPDEST JUMPDEST PUSH1 0x3 MUL ADD DUP2 DUP2 PUSH2 0x1085 SWAP2 SWAP1 PUSH2 0x375E JUMP JUMPDEST SWAP1 POP POP DUP6 DUP2 PUSH1 0x4 ADD PUSH1 0x1 PUSH1 0x4 DUP2 LT PUSH2 0x10A0 JUMPI PUSH2 0x109F PUSH2 0x3071 JUMP JUMPDEST JUMPDEST PUSH1 0x3 MUL ADD DUP2 DUP2 PUSH2 0x10B0 SWAP2 SWAP1 PUSH2 0x375E JUMP JUMPDEST SWAP1 POP POP DUP5 DUP2 PUSH1 0x4 ADD PUSH1 0x2 PUSH1 0x4 DUP2 LT PUSH2 0x10CB JUMPI PUSH2 0x10CA PUSH2 0x3071 JUMP JUMPDEST JUMPDEST PUSH1 0x3 MUL ADD DUP2 DUP2 PUSH2 0x10DB SWAP2 SWAP1 PUSH2 0x375E JUMP JUMPDEST SWAP1 POP POP DUP4 DUP2 PUSH1 0x4 ADD PUSH1 0x3 PUSH1 0x4 DUP2 LT PUSH2 0x10F6 JUMPI PUSH2 0x10F5 PUSH2 0x3071 JUMP JUMPDEST JUMPDEST PUSH1 0x3 MUL ADD DUP2 DUP2 PUSH2 0x1106 SWAP2 SWAP1 PUSH2 0x375E JUMP JUMPDEST SWAP1 POP POP DUP3 DUP3 DUP3 PUSH1 0x10 ADD SWAP2 SWAP1 PUSH2 0x111C SWAP3 SWAP2 SWAP1 PUSH2 0x1CC4 JUMP JUMPDEST POP PUSH1 0x0 DUP2 PUSH1 0x16 ADD PUSH1 0x0 PUSH2 0x100 EXP DUP2 SLOAD DUP2 PUSH1 0xFF MUL NOT AND SWAP1 DUP4 PUSH1 0x6 DUP2 GT ISZERO PUSH2 0x1145 JUMPI PUSH2 0x1144 PUSH2 0x3013 JUMP JUMPDEST JUMPDEST MUL OR SWAP1 SSTORE POP PUSH1 0x1 PUSH1 0x0 DUP2 SLOAD DUP1 SWAP3 SWAP2 SWAP1 PUSH2 0x115D SWAP1 PUSH2 0x2F6D JUMP JUMPDEST SWAP2 SWAP1 POP SSTORE POP PUSH32 0xD93C07E6D2930C0B25150E2D51C102A0DC67B32EC91D7582A92C4F6E61CE3A32 DUP2 PUSH1 0x40 MLOAD PUSH2 0x1191 SWAP2 SWAP1 PUSH2 0x2B25 JUMP JUMPDEST PUSH1 0x40 MLOAD DUP1 SWAP2 SUB SWAP1 LOG1 POP POP POP POP POP POP POP POP POP POP JUMP JUMPDEST PUSH1 0x0 PUSH1 0x2 PUSH1 0x0 DUP4 DUP2 MSTORE PUSH1 0x20 ADD SWAP1 DUP2 MSTORE PUSH1 0x20 ADD PUSH1 0x0 KECCAK256 SWAP1 POP PUSH1 0x0 PUSH1 0x6 DUP2 GT ISZERO PUSH2 0x11D0 JUMPI PUSH2 0x11CF PUSH2 0x3013 JUMP JUMPDEST JUMPDEST DUP2 PUSH1 0x16 ADD PUSH1 0x0 SWAP1 SLOAD SWAP1 PUSH2 0x100 EXP SWAP1 DIV PUSH1 0xFF AND PUSH1 0x6 DUP2 GT ISZERO PUSH2 0x11F4 JUMPI PUSH2 0x11F3 PUSH2 0x3013 JUMP JUMPDEST JUMPDEST EQ PUSH2 0x1234 JUMPI PUSH1 0x40 MLOAD PUSH32 0x8C379A000000000000000000000000000000000000000000000000000000000 DUP2 MSTORE PUSH1 0x4 ADD PUSH2 0x122B SWAP1 PUSH2 0x2905 JUMP JUMPDEST PUSH1 0x40 MLOAD DUP1 SWAP2 SUB SWAP1 REVERT JUMPDEST CALLER PUSH20 0xFFFFFFFFFFFFFFFFFFFFFFFFFFFFFFFFFFFFFFFF AND DUP2 PUSH1 0x0 ADD PUSH1 0x0 SWAP1 SLOAD SWAP1 PUSH2 0x100 EXP SWAP1 DIV PUSH20 0xFFFFFFFFFFFFFFFFFFFFFFFFFFFFFFFFFFFFFFFF AND PUSH20 0xFFFFFFFFFFFFFFFFFFFFFFFFFFFFFFFFFFFFFFFF AND EQ PUSH2 0x12C6 JUMPI PUSH1 0x40 MLOAD PUSH32 0x8C379A000000000000000000000000000000000000000000000000000000000 DUP2 MSTORE PUSH1 0x4 ADD PUSH2 0x12BD SWAP1 PUSH2 0x2AC5 JUMP JUMPDEST PUSH1 0x40 MLOAD DUP1 SWAP2 SUB SWAP1 REVERT JUMPDEST PUSH1 0x1 DUP2 PUSH1 0x16 ADD PUSH1 0x0 PUSH2 0x100 EXP DUP2 SLOAD DUP2 PUSH1 0xFF MUL NOT AND SWAP1 DUP4 PUSH1 0x6 DUP2 GT ISZERO PUSH2 0x12EE JUMPI PUSH2 0x12ED PUSH2 0x3013 JUMP JUMPDEST JUMPDEST MUL OR SWAP1 SSTORE POP PUSH2 0x1325 DUP2 PUSH1 0x0 ADD PUSH1 0x0 SWAP1 SLOAD SWAP1 PUSH2 0x100 EXP SWAP1 DIV PUSH20 0xFFFFFFFFFFFFFFFFFFFFFFFFFFFFFFFFFFFFFFFF AND DUP3 PUSH1 0x2 ADD SLOAD PUSH2 0x1885 JUMP JUMPDEST PUSH32 0xE43C1DE399FA9E7B593892FEE78094D0C09BF97C0C52094E46B324B5E96949E0 DUP3 DUP3 PUSH1 0x16 ADD PUSH1 0x0 SWAP1 SLOAD SWAP1 PUSH2 0x100 EXP SWAP1 DIV PUSH1 0xFF AND PUSH1 0x40 MLOAD PUSH2 0x1367 SWAP3 SWAP2 SWAP1 PUSH2 0x2C5A JUMP JUMPDEST PUSH1 0x40 MLOAD DUP1 SWAP2 SUB SWAP1 LOG1 POP POP JUMP JUMPDEST PUSH1 0x0 PUSH1 0x2 PUSH1 0x0 DUP6 DUP2 MSTORE PUSH1 0x20 ADD SWAP1 DUP2 MSTORE PUSH1 0x20 ADD PUSH1 0x0 KECCAK256 SWAP1 POP PUSH1 0x4 PUSH1 0x6 DUP2 GT ISZERO PUSH2 0x139E JUMPI PUSH2 0x139D PUSH2 0x3013 JUMP JUMPDEST JUMPDEST DUP2 PUSH1 0x16 ADD PUSH1 0x0 SWAP1 SLOAD SWAP1 PUSH2 0x100 EXP SWAP1 DIV PUSH1 0xFF AND PUSH1 0x6 DUP2 GT ISZERO PUSH2 0x13C2 JUMPI PUSH2 0x13C1 PUSH2 0x3013 JUMP JUMPDEST JUMPDEST EQ PUSH2 0x1402 JUMPI PUSH1 0x40 MLOAD PUSH32 0x8C379A000000000000000000000000000000000000000000000000000000000 DUP2 MSTORE PUSH1 0x4 ADD PUSH2 0x13F9 SWAP1 PUSH2 0x2A85 JUMP JUMPDEST PUSH1 0x40 MLOAD DUP1 SWAP2 SUB SWAP1 REVERT JUMPDEST DUP1 PUSH1 0x0 ADD PUSH1 0x0 SWAP1 SLOAD SWAP1 PUSH2 0x100 EXP SWAP1 DIV PUSH20 0xFFFFFFFFFFFFFFFFFFFFFFFFFFFFFFFFFFFFFFFF AND PUSH20 0xFFFFFFFFFFFFFFFFFFFFFFFFFFFFFFFFFFFFFFFF AND CALLER PUSH20 0xFFFFFFFFFFFFFFFFFFFFFFFFFFFFFFFFFFFFFFFF AND EQ PUSH2 0x1494 JUMPI PUSH1 0x40 MLOAD PUSH32 0x8C379A000000000000000000000000000000000000000000000000000000000 DUP2 MSTORE PUSH1 0x4 ADD PUSH2 0x148B SWAP1 PUSH2 0x28C5 JUMP JUMPDEST PUSH1 0x40 MLOAD DUP1 SWAP2 SUB SWAP1 REVERT JUMPDEST DUP3 DUP2 PUSH1 0x14 ADD PUSH1 0x0 PUSH2 0x100 EXP DUP2 SLOAD DUP2 PUSH1 0xFF MUL NOT AND SWAP1 DUP4 ISZERO ISZERO MUL OR SWAP1 SSTORE POP DUP2 DUP2 PUSH1 0x15 ADD DUP2 SWAP1 SSTORE POP PUSH1 0x0 PUSH2 0x14C5 DUP5 DUP5 PUSH2 0xF29 JUMP JUMPDEST SWAP1 POP DUP2 PUSH1 0x11 ADD SLOAD DUP2 EQ PUSH2 0x1527 JUMPI PUSH32 0x880B3536F22B8A3305EFF5008DAA498E1309A219E6013D53622848754710B587 DUP6 DUP4 PUSH1 0x14 ADD PUSH1 0x0 SWAP1 SLOAD SWAP1 PUSH2 0x100 EXP SWAP1 DIV PUSH1 0xFF AND DUP5 PUSH1 0x15 ADD SLOAD PUSH1 0x40 MLOAD PUSH2 0x151A SWAP4 SWAP3 SWAP2 SWAP1 PUSH2 0x2B62 JUMP JUMPDEST PUSH1 0x40 MLOAD DUP1 SWAP2 SUB SWAP1 LOG1 PUSH2 0x15C1 JUMP JUMPDEST PUSH1 0x6 DUP3 PUSH1 0x16 ADD PUSH1 0x0 PUSH2 0x100 EXP DUP2 SLOAD DUP2 PUSH1 0xFF MUL NOT AND SWAP1 DUP4 PUSH1 0x6 DUP2 GT ISZERO PUSH2 0x154F JUMPI PUSH2 0x154E PUSH2 0x3013 JUMP JUMPDEST JUMPDEST MUL OR SWAP1 SSTORE POP PUSH2 0x155D DUP6 PUSH2 0x1917 JUMP JUMPDEST PUSH32 0xF29B5A479B9AE259E2BE6D0141F4DB810DD113DE2D329007ECCAE006B409FE69 DUP6 DUP4 PUSH1 0x14 ADD PUSH1 0x0 SWAP1 SLOAD SWAP1 PUSH2 0x100 EXP SWAP1 DIV PUSH1 0xFF AND DUP5 PUSH1 0x15 ADD SLOAD DUP6 PUSH1 0x16 ADD PUSH1 0x0 SWAP1 SLOAD SWAP1 PUSH2 0x100 EXP SWAP1 DIV PUSH1 0xFF AND PUSH1 0x40 MLOAD PUSH2 0x15B8 SWAP5 SWAP4 SWAP3 SWAP2 SWAP1 PUSH2 0x2B99 JUMP JUMPDEST PUSH1 0x40 MLOAD DUP1 SWAP2 SUB SWAP1 LOG1 JUMPDEST POP POP POP POP POP JUMP JUMPDEST PUSH1 0x1 SLOAD DUP2 JUMP JUMPDEST PUSH32 0x0 DUP2 JUMP JUMPDEST PUSH1 0x0 PUSH1 0x2 PUSH1 0x0 DUP4 DUP2 MSTORE PUSH1 0x20 ADD SWAP1 DUP2 MSTORE PUSH1 0x20 ADD PUSH1 0x0 KECCAK256 PUSH1 0x40 MLOAD DUP1 PUSH2 0x180 ADD PUSH1 0x40 MSTORE SWAP1 DUP2 PUSH1 0x0 DUP3 ADD PUSH1 0x0 SWAP1 SLOAD SWAP1 PUSH2 0x100 EXP SWAP1 DIV PUSH20 0xFFFFFFFFFFFFFFFFFFFFFFFFFFFFFFFFFFFFFFFF AND PUSH20 0xFFFFFFFFFFFFFFFFFFFFFFFFFFFFFFFFFFFFFFFF AND PUSH20 0xFFFFFFFFFFFFFFFFFFFFFFFFFFFFFFFFFFFFFFFF AND DUP2 MSTORE PUSH1 0x20 ADD PUSH1 0x1 DUP3 ADD PUSH1 0x0 SWAP1 SLOAD SWAP1 PUSH2 0x100 EXP SWAP1 DIV PUSH20 0xFFFFFFFFFFFFFFFFFFFFFFFFFFFFFFFFFFFFFFFF AND PUSH20 0xFFFFFFFFFFFFFFFFFFFFFFFFFFFFFFFFFFFFFFFF AND PUSH20 0xFFFFFFFFFFFFFFFFFFFFFFFFFFFFFFFFFFFFFFFF AND DUP2 MSTORE PUSH1 0x20 ADD PUSH1 0x2 DUP3 ADD SLOAD DUP2 MSTORE PUSH1 0x20 ADD PUSH1 0x3 DUP3 ADD SLOAD DUP2 MSTORE PUSH1 0x20 ADD PUSH1 0x4 DUP3 ADD PUSH1 0x4 DUP1 PUSH1 0x20 MUL PUSH1 0x40 MLOAD SWAP1 DUP2 ADD PUSH1 0x40 MSTORE DUP1 SWAP3 SWAP2 SWAP1 PUSH1 0x0 SWAP1 JUMPDEST DUP3 DUP3 LT ISZERO PUSH2 0x1735 JUMPI DUP4 DUP3 PUSH1 0x3 MUL ADD PUSH1 0x40 MLOAD DUP1 PUSH1 0x60 ADD PUSH1 0x40 MSTORE SWAP1 DUP2 PUSH1 0x0 DUP3 ADD SLOAD DUP2 MSTORE PUSH1 0x20 ADD PUSH1 0x1 DUP3 ADD SLOAD DUP2 MSTORE PUSH1 0x20 ADD PUSH1 0x2 DUP3 ADD SLOAD DUP2 MSTORE POP POP DUP2 MSTORE PUSH1 0x20 ADD SWAP1 PUSH1 0x1 ADD SWAP1 PUSH2 0x16EF JUMP JUMPDEST POP POP POP POP DUP2 MSTORE PUSH1 0x20 ADD PUSH1 0x10 DUP3 ADD DUP1 SLOAD PUSH2 0x174D SWAP1 PUSH2 0x2EB9 JUMP JUMPDEST DUP1 PUSH1 0x1F ADD PUSH1 0x20 DUP1 SWAP2 DIV MUL PUSH1 0x20 ADD PUSH1 0x40 MLOAD SWAP1 DUP2 ADD PUSH1 0x40 MSTORE DUP1 SWAP3 SWAP2 SWAP1 DUP2 DUP2 MSTORE PUSH1 0x20 ADD DUP3 DUP1 SLOAD PUSH2 0x1779 SWAP1 PUSH2 0x2EB9 JUMP JUMPDEST DUP1 ISZERO PUSH2 0x17C6 JUMPI DUP1 PUSH1 0x1F LT PUSH2 0x179B JUMPI PUSH2 0x100 DUP1 DUP4 SLOAD DIV MUL DUP4 MSTORE SWAP2 PUSH1 0x20 ADD SWAP2 PUSH2 0x17C6 JUMP JUMPDEST DUP3 ADD SWAP2 SWAP1 PUSH1 0x0 MSTORE PUSH1 0x20 PUSH1 0x0 KECCAK256 SWAP1 JUMPDEST DUP2 SLOAD DUP2 MSTORE SWAP1 PUSH1 0x1 ADD SWAP1 PUSH1 0x20 ADD DUP1 DUP4 GT PUSH2 0x17A9 JUMPI DUP3 SWAP1 SUB PUSH1 0x1F AND DUP3 ADD SWAP2 JUMPDEST POP POP POP POP POP DUP2 MSTORE PUSH1 0x20 ADD PUSH1 0x11 DUP3 ADD SLOAD DUP2 MSTORE PUSH1 0x20 ADD PUSH1 0x12 DUP3 ADD PUSH1 0x0 SWAP1 SLOAD SWAP1 PUSH2 0x100 EXP SWAP1 DIV PUSH1 0xFF AND ISZERO ISZERO ISZERO ISZERO DUP2 MSTORE PUSH1 0x20 ADD PUSH1 0x13 DUP3 ADD SLOAD DUP2 MSTORE PUSH1 0x20 ADD PUSH1 0x14 DUP3 ADD PUSH1 0x0 SWAP1 SLOAD SWAP1 PUSH2 0x100 EXP SWAP1 DIV PUSH1 0xFF AND ISZERO ISZERO ISZERO ISZERO DUP2 MSTORE PUSH1 0x20 ADD PUSH1 0x15 DUP3 ADD SLOAD DUP2 MSTORE PUSH1 0x20 ADD PUSH1 0x16 DUP3 ADD PUSH1 0x0 SWAP1 SLOAD SWAP1 PUSH2 0x100 EXP SWAP1 DIV PUSH1 0xFF AND PUSH1 0x6 DUP2 GT ISZERO PUSH2 0x1848 JUMPI PUSH2 0x1847 PUSH2 0x3013 JUMP JUMPDEST JUMPDEST PUSH1 0x6 DUP2 GT ISZERO PUSH2 0x185A JUMPI PUSH2 0x1859 PUSH2 0x3013 JUMP JUMPDEST JUMPDEST DUP2 MSTORE POP POP SWAP1 POP PUSH2 0x1881 DUP2 PUSH1 0x20 ADD MLOAD DUP3 PUSH1 0x60 ADD MLOAD DUP4 PUSH1 0x40 ADD MLOAD PUSH2 0x187C SWAP2 SWAP1 PUSH2 0x2CF2 JUMP JUMPDEST PUSH2 0x1885 JUMP JUMPDEST POP POP JUMP JUMPDEST DUP1 PUSH1 0x0 DUP1 DUP5 PUSH20 0xFFFFFFFFFFFFFFFFFFFFFFFFFFFFFFFFFFFFFFFF AND PUSH20 0xFFFFFFFFFFFFFFFFFFFFFFFFFFFFFFFFFFFFFFFF AND DUP2 MSTORE PUSH1 0x20 ADD SWAP1 DUP2 MSTORE PUSH1 0x20 ADD PUSH1 0x0 KECCAK256 PUSH1 0x0 DUP3 DUP3 SLOAD PUSH2 0x18D3 SWAP2 SWAP1 PUSH2 0x2CF2 JUMP JUMPDEST SWAP3 POP POP DUP2 SWAP1 SSTORE POP PUSH32 0xFB7DC1A1F27A348F858CD8C345B43CBBE6CC5F96A89E5A6133C8C134C1CF9C01 DUP3 DUP3 PUSH1 0x40 MLOAD PUSH2 0x190B SWAP3 SWAP2 SWAP1 PUSH2 0x2861 JUMP JUMPDEST PUSH1 0x40 MLOAD DUP1 SWAP2 SUB SWAP1 LOG1 POP POP JUMP JUMPDEST PUSH1 0x0 PUSH1 0x2 PUSH1 0x0 DUP4 DUP2 MSTORE PUSH1 0x20 ADD SWAP1 DUP2 MSTORE PUSH1 0x20 ADD PUSH1 0x0 KECCAK256 PUSH1 0x40 MLOAD DUP1 PUSH2 0x180 ADD PUSH1 0x40 MSTORE SWAP1 DUP2 PUSH1 0x0 DUP3 ADD PUSH1 0x0 SWAP1 SLOAD SWAP1 PUSH2 0x100 EXP SWAP1 DIV PUSH20 0xFFFFFFFFFFFFFFFFFFFFFFFFFFFFFFFFFFFFFFFF AND PUSH20 0xFFFFFFFFFFFFFFFFFFFFFFFFFFFFFFFFFFFFFFFF AND PUSH20 0xFFFFFFFFFFFFFFFFFFFFFFFFFFFFFFFFFFFFFFFF AND DUP2 MSTORE PUSH1 0x20 ADD PUSH1 0x1 DUP3 ADD PUSH1 0x0 SWAP1 SLOAD SWAP1 PUSH2 0x100 EXP SWAP1 DIV PUSH20 0xFFFFFFFFFFFFFFFFFFFFFFFFFFFFFFFFFFFFFFFF AND PUSH20 0xFFFFFFFFFFFFFFFFFFFFFFFFFFFFFFFFFFFFFFFF AND PUSH20 0xFFFFFFFFFFFFFFFFFFFFFFFFFFFFFFFFFFFFFFFF AND DUP2 MSTORE PUSH1 0x20 ADD PUSH1 0x2 DUP3 ADD SLOAD DUP2 MSTORE PUSH1 0x20 ADD PUSH1 0x3 DUP3 ADD SLOAD DUP2 MSTORE PUSH1 0x20 ADD PUSH1 0x4 DUP3 ADD PUSH1 0x4 DUP1 PUSH1 0x20 MUL PUSH1 0x40 MLOAD SWAP1 DUP2 ADD PUSH1 0x40 MSTORE DUP1 SWAP3 SWAP2 SWAP1 PUSH1 0x0 SWAP1 JUMPDEST DUP3 DUP3 LT ISZERO PUSH2 0x1A5A JUMPI DUP4 DUP3 PUSH1 0x3 MUL ADD PUSH1 0x40 MLOAD DUP1 PUSH1 0x60 ADD PUSH1 0x40 MSTORE SWAP1 DUP2 PUSH1 0x0 DUP3 ADD SLOAD DUP2 MSTORE PUSH1 0x20 ADD PUSH1 0x1 DUP3 ADD SLOAD DUP2 MSTORE PUSH1 0x20 ADD PUSH1 0x2 DUP3 ADD SLOAD DUP2 MSTORE POP POP DUP2 MSTORE PUSH1 0x20 ADD SWAP1 PUSH1 0x1 ADD SWAP1 PUSH2 0x1A14 JUMP JUMPDEST POP POP POP POP DUP2 MSTORE PUSH1 0x20 ADD PUSH1 0x10 DUP3 ADD DUP1 SLOAD PUSH2 0x1A72 SWAP1 PUSH2 0x2EB9 JUMP JUMPDEST DUP1 PUSH1 0x1F ADD PUSH1 0x20 DUP1 SWAP2 DIV MUL PUSH1 0x20 ADD PUSH1 0x40 MLOAD SWAP1 DUP2 ADD PUSH1 0x40 MSTORE DUP1 SWAP3 SWAP2 SWAP1 DUP2 DUP2 MSTORE PUSH1 0x20 ADD DUP3 DUP1 SLOAD PUSH2 0x1A9E SWAP1 PUSH2 0x2EB9 JUMP JUMPDEST DUP1 ISZERO PUSH2 0x1AEB JUMPI DUP1 PUSH1 0x1F LT PUSH2 0x1AC0 JUMPI PUSH2 0x100 DUP1 DUP4 SLOAD DIV MUL DUP4 MSTORE SWAP2 PUSH1 0x20 ADD SWAP2 PUSH2 0x1AEB JUMP JUMPDEST DUP3 ADD SWAP2 SWAP1 PUSH1 0x0 MSTORE PUSH1 0x20 PUSH1 0x0 KECCAK256 SWAP1 JUMPDEST DUP2 SLOAD DUP2 MSTORE SWAP1 PUSH1 0x1 ADD SWAP1 PUSH1 0x20 ADD DUP1 DUP4 GT PUSH2 0x1ACE JUMPI DUP3 SWAP1 SUB PUSH1 0x1F AND DUP3 ADD SWAP2 JUMPDEST POP POP POP POP POP DUP2 MSTORE PUSH1 0x20 ADD PUSH1 0x11 DUP3 ADD SLOAD DUP2 MSTORE PUSH1 0x20 ADD PUSH1 0x12 DUP3 ADD PUSH1 0x0 SWAP1 SLOAD SWAP1 PUSH2 0x100 EXP SWAP1 DIV PUSH1 0xFF AND ISZERO ISZERO ISZERO ISZERO DUP2 MSTORE PUSH1 0x20 ADD PUSH1 0x13 DUP3 ADD SLOAD DUP2 MSTORE PUSH1 0x20 ADD PUSH1 0x14 DUP3 ADD PUSH1 0x0 SWAP1 SLOAD SWAP1 PUSH2 0x100 EXP SWAP1 DIV PUSH1 0xFF AND ISZERO ISZERO ISZERO ISZERO DUP2 MSTORE PUSH1 0x20 ADD PUSH1 0x15 DUP3 ADD SLOAD DUP2 MSTORE PUSH1 0x20 ADD PUSH1 0x16 DUP3 ADD PUSH1 0x0 SWAP1 SLOAD SWAP1 PUSH2 0x100 EXP SWAP1 DIV PUSH1 0xFF AND PUSH1 0x6 DUP2 GT ISZERO PUSH2 0x1B6D JUMPI PUSH2 0x1B6C PUSH2 0x3013 JUMP JUMPDEST JUMPDEST PUSH1 0x6 DUP2 GT ISZERO PUSH2 0x1B7F JUMPI PUSH2 0x1B7E PUSH2 0x3013 JUMP JUMPDEST JUMPDEST DUP2 MSTORE POP POP SWAP1 POP PUSH1 0x0 PUSH2 0x1B9A DUP3 PUSH2 0x120 ADD MLOAD DUP4 PUSH1 0xE0 ADD MLOAD PUSH2 0x1BE9 JUMP JUMPDEST SWAP1 POP PUSH1 0x0 DUP3 PUSH1 0x80 ADD MLOAD DUP3 PUSH1 0xFF AND PUSH1 0x4 DUP2 LT PUSH2 0x1BB8 JUMPI PUSH2 0x1BB7 PUSH2 0x3071 JUMP JUMPDEST JUMPDEST PUSH1 0x20 MUL ADD MLOAD SWAP1 POP PUSH2 0x1BD1 DUP4 PUSH1 0x0 ADD MLOAD DUP3 PUSH1 0x0 ADD MLOAD PUSH2 0x1885 JUMP JUMPDEST PUSH2 0x1BE3 DUP4 PUSH1 0x20 ADD MLOAD DUP3 PUSH1 0x20 ADD MLOAD PUSH2 0x1885 JUMP JUMPDEST POP POP POP POP JUMP JUMPDEST PUSH1 0x0 PUSH1 0x1 ISZERO ISZERO DUP4 ISZERO ISZERO EQ DUP1 ISZERO PUSH2 0x1C03 JUMPI POP PUSH1 0x1 ISZERO ISZERO DUP3 ISZERO ISZERO EQ JUMPDEST ISZERO PUSH2 0x1C11 JUMPI PUSH1 0x0 SWAP1 POP PUSH2 0x1CBE JUMP JUMPDEST PUSH1 0x1 ISZERO ISZERO DUP4 ISZERO ISZERO EQ DUP1 ISZERO PUSH2 0x1C29 JUMPI POP PUSH1 0x0 ISZERO ISZERO DUP3 ISZERO ISZERO EQ JUMPDEST ISZERO PUSH2 0x1C37 JUMPI PUSH1 0x1 SWAP1 POP PUSH2 0x1CBE JUMP JUMPDEST PUSH1 0x0 ISZERO ISZERO DUP4 ISZERO ISZERO EQ DUP1 ISZERO PUSH2 0x1C4F JUMPI POP PUSH1 0x1 ISZERO ISZERO DUP3 ISZERO ISZERO EQ JUMPDEST ISZERO PUSH2 0x1C5D JUMPI PUSH1 0x2 SWAP1 POP PUSH2 0x1CBE JUMP JUMPDEST PUSH1 0x0 ISZERO ISZERO DUP4 ISZERO ISZERO EQ DUP1 ISZERO PUSH2 0x1C75 JUMPI POP PUSH1 0x0 ISZERO ISZERO DUP3 ISZERO ISZERO EQ JUMPDEST ISZERO PUSH2 0x1C83 JUMPI PUSH1 0x3 SWAP1 POP PUSH2 0x1CBE JUMP JUMPDEST PUSH1 0x40 MLOAD PUSH32 0x8C379A000000000000000000000000000000000000000000000000000000000 DUP2 MSTORE PUSH1 0x4 ADD PUSH2 0x1CB5 SWAP1 PUSH2 0x2AE5 JUMP JUMPDEST PUSH1 0x40 MLOAD DUP1 SWAP2 SUB SWAP1 REVERT JUMPDEST SWAP3 SWAP2 POP POP JUMP JUMPDEST DUP3 DUP1 SLOAD PUSH2 0x1CD0 SWAP1 PUSH2 0x2EB9 JUMP JUMPDEST SWAP1 PUSH1 0x0 MSTORE PUSH1 0x20 PUSH1 0x0 KECCAK256 SWAP1 PUSH1 0x1F ADD PUSH1 0x20 SWAP1 DIV DUP2 ADD SWAP3 DUP3 PUSH2 0x1CF2 JUMPI PUSH1 0x0 DUP6 SSTORE PUSH2 0x1D39 JUMP JUMPDEST DUP3 PUSH1 0x1F LT PUSH2 0x1D0B JUMPI DUP1 CALLDATALOAD PUSH1 0xFF NOT AND DUP4 DUP1 ADD OR DUP6 SSTORE PUSH2 0x1D39 JUMP JUMPDEST DUP3 DUP1 ADD PUSH1 0x1 ADD DUP6 SSTORE DUP3 ISZERO PUSH2 0x1D39 JUMPI SWAP2 DUP3 ADD JUMPDEST DUP3 DUP2 GT ISZERO PUSH2 0x1D38 JUMPI DUP3 CALLDATALOAD DUP3 SSTORE SWAP2 PUSH1 0x20 ADD SWAP2 SWAP1 PUSH1 0x1 ADD SWAP1 PUSH2 0x1D1D JUMP JUMPDEST JUMPDEST POP SWAP1 POP PUSH2 0x1D46 SWAP2 SWAP1 PUSH2 0x1D4A JUMP JUMPDEST POP SWAP1 JUMP JUMPDEST JUMPDEST DUP1 DUP3 GT ISZERO PUSH2 0x1D63 JUMPI PUSH1 0x0 DUP2 PUSH1 0x0 SWAP1 SSTORE POP PUSH1 0x1 ADD PUSH2 0x1D4B JUMP JUMPDEST POP SWAP1 JUMP JUMPDEST PUSH1 0x0 DUP2 CALLDATALOAD SWAP1 POP PUSH2 0x1D76 DUP2 PUSH2 0x37A3 JUMP JUMPDEST SWAP3 SWAP2 POP POP JUMP JUMPDEST PUSH1 0x0 DUP2 CALLDATALOAD SWAP1 POP PUSH2 0x1D8B DUP2 PUSH2 0x37BA JUMP JUMPDEST SWAP3 SWAP2 POP POP JUMP JUMPDEST PUSH1 0x0 DUP2 CALLDATALOAD SWAP1 POP PUSH2 0x1DA0 DUP2 PUSH2 0x37D1 JUMP JUMPDEST SWAP3 SWAP2 POP POP JUMP JUMPDEST PUSH1 0x0 DUP1 DUP4 PUSH1 0x1F DUP5 ADD SLT PUSH2 0x1DBC JUMPI PUSH2 0x1DBB PUSH2 0x30C5 JUMP JUMPDEST JUMPDEST DUP3 CALLDATALOAD SWAP1 POP PUSH8 0xFFFFFFFFFFFFFFFF DUP2 GT ISZERO PUSH2 0x1DD9 JUMPI PUSH2 0x1DD8 PUSH2 0x30C0 JUMP JUMPDEST JUMPDEST PUSH1 0x20 DUP4 ADD SWAP2 POP DUP4 PUSH1 0x1 DUP3 MUL DUP4 ADD GT ISZERO PUSH2 0x1DF5 JUMPI PUSH2 0x1DF4 PUSH2 0x30CF JUMP JUMPDEST JUMPDEST SWAP3 POP SWAP3 SWAP1 POP JUMP JUMPDEST PUSH1 0x0 PUSH1 0x60 DUP3 DUP5 SUB SLT ISZERO PUSH2 0x1E12 JUMPI PUSH2 0x1E11 PUSH2 0x30CA JUMP JUMPDEST JUMPDEST DUP2 SWAP1 POP SWAP3 SWAP2 POP POP JUMP JUMPDEST PUSH1 0x0 DUP2 CALLDATALOAD SWAP1 POP PUSH2 0x1E2A DUP2 PUSH2 0x37E8 JUMP JUMPDEST SWAP3 SWAP2 POP POP JUMP JUMPDEST PUSH1 0x0 PUSH1 0x20 DUP3 DUP5 SUB SLT ISZERO PUSH2 0x1E46 JUMPI PUSH2 0x1E45 PUSH2 0x30D9 JUMP JUMPDEST JUMPDEST PUSH1 0x0 PUSH2 0x1E54 DUP5 DUP3 DUP6 ADD PUSH2 0x1D67 JUMP JUMPDEST SWAP2 POP POP SWAP3 SWAP2 POP POP JUMP JUMPDEST PUSH1 0x0 DUP1 PUSH1 0x0 DUP1 PUSH1 0x0 DUP1 PUSH1 0x0 DUP1 PUSH1 0x0 PUSH2 0x200 DUP11 DUP13 SUB SLT ISZERO PUSH2 0x1E80 JUMPI PUSH2 0x1E7F PUSH2 0x30D9 JUMP JUMPDEST JUMPDEST PUSH1 0x0 PUSH2 0x1E8E DUP13 DUP3 DUP14 ADD PUSH2 0x1D67 JUMP JUMPDEST SWAP10 POP POP PUSH1 0x20 PUSH2 0x1E9F DUP13 DUP3 DUP14 ADD PUSH2 0x1E1B JUMP JUMPDEST SWAP9 POP POP PUSH1 0x40 PUSH2 0x1EB0 DUP13 DUP3 DUP14 ADD PUSH2 0x1E1B JUMP JUMPDEST SWAP8 POP POP PUSH1 0x60 PUSH2 0x1EC1 DUP13 DUP3 DUP14 ADD PUSH2 0x1DFC JUMP JUMPDEST SWAP7 POP POP PUSH1 0xC0 PUSH2 0x1ED2 DUP13 DUP3 DUP14 ADD PUSH2 0x1DFC JUMP JUMPDEST SWAP6 POP POP PUSH2 0x120 PUSH2 0x1EE4 DUP13 DUP3 DUP14 ADD PUSH2 0x1DFC JUMP JUMPDEST SWAP5 POP POP PUSH2 0x180 PUSH2 0x1EF6 DUP13 DUP3 DUP14 ADD PUSH2 0x1DFC JUMP JUMPDEST SWAP4 POP POP PUSH2 0x1E0 DUP11 ADD CALLDATALOAD PUSH8 0xFFFFFFFFFFFFFFFF DUP2 GT ISZERO PUSH2 0x1F18 JUMPI PUSH2 0x1F17 PUSH2 0x30D4 JUMP JUMPDEST JUMPDEST PUSH2 0x1F24 DUP13 DUP3 DUP14 ADD PUSH2 0x1DA6 JUMP JUMPDEST SWAP3 POP SWAP3 POP POP SWAP3 SWAP6 SWAP9 POP SWAP3 SWAP6 SWAP9 POP SWAP3 SWAP6 SWAP9 JUMP JUMPDEST PUSH1 0x0 DUP1 PUSH1 0x40 DUP4 DUP6 SUB SLT ISZERO PUSH2 0x1F4D JUMPI PUSH2 0x1F4C PUSH2 0x30D9 JUMP JUMPDEST JUMPDEST PUSH1 0x0 PUSH2 0x1F5B DUP6 DUP3 DUP7 ADD PUSH2 0x1D7C JUMP JUMPDEST SWAP3 POP POP PUSH1 0x20 PUSH2 0x1F6C DUP6 DUP3 DUP7 ADD PUSH2 0x1D91 JUMP JUMPDEST SWAP2 POP POP SWAP3 POP SWAP3 SWAP1 POP JUMP JUMPDEST PUSH1 0x0 PUSH1 0x20 DUP3 DUP5 SUB SLT ISZERO PUSH2 0x1F8C JUMPI PUSH2 0x1F8B PUSH2 0x30D9 JUMP JUMPDEST JUMPDEST PUSH1 0x0 PUSH2 0x1F9A DUP5 DUP3 DUP6 ADD PUSH2 0x1E1B JUMP JUMPDEST SWAP2 POP POP SWAP3 SWAP2 POP POP JUMP JUMPDEST PUSH1 0x0 DUP1 PUSH1 0x40 DUP4 DUP6 SUB SLT ISZERO PUSH2 0x1FBA JUMPI PUSH2 0x1FB9 PUSH2 0x30D9 JUMP JUMPDEST JUMPDEST PUSH1 0x0 PUSH2 0x1FC8 DUP6 DUP3 DUP7 ADD PUSH2 0x1E1B JUMP JUMPDEST SWAP3 POP POP PUSH1 0x20 PUSH2 0x1FD9 DUP6 DUP3 DUP7 ADD PUSH2 0x1D7C JUMP JUMPDEST SWAP2 POP POP SWAP3 POP SWAP3 SWAP1 POP JUMP JUMPDEST PUSH1 0x0 DUP1 PUSH1 0x0 PUSH1 0x60 DUP5 DUP7 SUB SLT ISZERO PUSH2 0x1FFC JUMPI PUSH2 0x1FFB PUSH2 0x30D9 JUMP JUMPDEST JUMPDEST PUSH1 0x0 PUSH2 0x200A DUP7 DUP3 DUP8 ADD PUSH2 0x1E1B JUMP JUMPDEST SWAP4 POP POP PUSH1 0x20 PUSH2 0x201B DUP7 DUP3 DUP8 ADD PUSH2 0x1D7C JUMP JUMPDEST SWAP3 POP POP PUSH1 0x40 PUSH2 0x202C DUP7 DUP3 DUP8 ADD PUSH2 0x1D91 JUMP JUMPDEST SWAP2 POP POP SWAP3 POP SWAP3 POP SWAP3 JUMP JUMPDEST PUSH1 0x0 DUP1 PUSH1 0x40 DUP4 DUP6 SUB SLT ISZERO PUSH2 0x204D JUMPI PUSH2 0x204C PUSH2 0x30D9 JUMP JUMPDEST JUMPDEST PUSH1 0x0 PUSH2 0x205B DUP6 DUP3 DUP7 ADD PUSH2 0x1E1B JUMP JUMPDEST SWAP3 POP POP PUSH1 0x20 PUSH2 0x206C DUP6 DUP3 DUP7 ADD PUSH2 0x1D91 JUMP JUMPDEST SWAP2 POP POP SWAP3 POP SWAP3 SWAP1 POP JUMP JUMPDEST PUSH1 0x0 DUP1 PUSH1 0x0 DUP1 PUSH1 0x0 DUP1 PUSH2 0x1C0 DUP8 DUP10 SUB SLT ISZERO PUSH2 0x2094 JUMPI PUSH2 0x2093 PUSH2 0x30D9 JUMP JUMPDEST JUMPDEST PUSH1 0x0 PUSH2 0x20A2 DUP10 DUP3 DUP11 ADD PUSH2 0x1E1B JUMP JUMPDEST SWAP7 POP POP PUSH1 0x20 PUSH2 0x20B3 DUP10 DUP3 DUP11 ADD PUSH2 0x1E1B JUMP JUMPDEST SWAP6 POP POP PUSH1 0x40 PUSH2 0x20C4 DUP10 DUP3 DUP11 ADD PUSH2 0x1DFC JUMP JUMPDEST SWAP5 POP POP PUSH1 0xA0 PUSH2 0x20D5 DUP10 DUP3 DUP11 ADD PUSH2 0x1DFC JUMP JUMPDEST SWAP4 POP POP PUSH2 0x100 PUSH2 0x20E7 DUP10 DUP3 DUP11 ADD PUSH2 0x1DFC JUMP JUMPDEST SWAP3 POP POP PUSH2 0x160 PUSH2 0x20F9 DUP10 DUP3 DUP11 ADD PUSH2 0x1DFC JUMP JUMPDEST SWAP2 POP POP SWAP3 SWAP6 POP SWAP3 SWAP6 POP SWAP3 SWAP6 JUMP JUMPDEST PUSH1 0x0 PUSH2 0x2112 DUP4 DUP4 PUSH2 0x2700 JUMP JUMPDEST PUSH1 0x60 DUP4 ADD SWAP1 POP SWAP3 SWAP2 POP POP JUMP JUMPDEST PUSH2 0x2127 DUP2 PUSH2 0x2D96 JUMP JUMPDEST DUP3 MSTORE POP POP JUMP JUMPDEST PUSH2 0x2136 DUP2 PUSH2 0x2D96 JUMP JUMPDEST DUP3 MSTORE POP POP JUMP JUMPDEST PUSH2 0x2145 DUP2 PUSH2 0x2CA2 JUMP JUMPDEST PUSH2 0x214F DUP2 DUP5 PUSH2 0x2CC5 JUMP JUMPDEST SWAP3 POP PUSH2 0x215A DUP3 PUSH2 0x2C83 JUMP JUMPDEST DUP1 PUSH1 0x0 JUMPDEST DUP4 DUP2 LT ISZERO PUSH2 0x218A JUMPI DUP2 PUSH2 0x2171 DUP8 DUP3 PUSH2 0x2106 JUMP JUMPDEST SWAP7 POP PUSH2 0x217C DUP4 PUSH2 0x2CB8 JUMP JUMPDEST SWAP3 POP POP PUSH1 0x1 DUP2 ADD SWAP1 POP PUSH2 0x215E JUMP JUMPDEST POP POP POP POP POP POP JUMP JUMPDEST PUSH2 0x219B DUP2 PUSH2 0x2DA8 JUMP JUMPDEST DUP3 MSTORE POP POP JUMP JUMPDEST PUSH2 0x21AA DUP2 PUSH2 0x2DA8 JUMP JUMPDEST DUP3 MSTORE POP POP JUMP JUMPDEST PUSH2 0x21C1 PUSH2 0x21BC DUP3 PUSH2 0x2DA8 JUMP JUMPDEST PUSH2 0x2FB6 JUMP JUMPDEST DUP3 MSTORE POP POP JUMP JUMPDEST PUSH2 0x21D0 DUP2 PUSH2 0x2DB4 JUMP JUMPDEST DUP3 MSTORE POP POP JUMP JUMPDEST PUSH2 0x21DF DUP2 PUSH2 0x2DB4 JUMP JUMPDEST DUP3 MSTORE POP POP JUMP JUMPDEST PUSH2 0x21F6 PUSH2 0x21F1 DUP3 PUSH2 0x2DB4 JUMP JUMPDEST PUSH2 0x2FC8 JUMP JUMPDEST DUP3 MSTORE POP POP JUMP JUMPDEST PUSH2 0x2205 DUP2 PUSH2 0x2DFB JUMP JUMPDEST DUP3 MSTORE POP POP JUMP JUMPDEST PUSH2 0x2214 DUP2 PUSH2 0x2DFB JUMP JUMPDEST DUP3 MSTORE POP POP JUMP JUMPDEST PUSH1 0x0 PUSH2 0x2225 DUP3 PUSH2 0x2CAD JUMP JUMPDEST PUSH2 0x222F DUP2 DUP6 PUSH2 0x2CE1 JUMP JUMPDEST SWAP4 POP PUSH2 0x223F DUP2 DUP6 PUSH1 0x20 DUP7 ADD PUSH2 0x2E1F JUMP JUMPDEST PUSH2 0x2248 DUP2 PUSH2 0x30DE JUMP JUMPDEST DUP5 ADD SWAP2 POP POP SWAP3 SWAP2 POP POP JUMP JUMPDEST PUSH1 0x0 DUP2 SLOAD PUSH2 0x2260 DUP2 PUSH2 0x2EB9 JUMP JUMPDEST PUSH2 0x226A DUP2 DUP7 PUSH2 0x2CD0 JUMP JUMPDEST SWAP5 POP PUSH1 0x1 DUP3 AND PUSH1 0x0 DUP2 EQ PUSH2 0x2285 JUMPI PUSH1 0x1 DUP2 EQ PUSH2 0x2297 JUMPI PUSH2 0x22CA JUMP JUMPDEST PUSH1 0xFF NOT DUP4 AND DUP7 MSTORE PUSH1 0x20 DUP7 ADD SWAP4 POP PUSH2 0x22CA JUMP JUMPDEST PUSH2 0x22A0 DUP6 PUSH2 0x2C8D JUMP JUMPDEST PUSH1 0x0 JUMPDEST DUP4 DUP2 LT ISZERO PUSH2 0x22C2 JUMPI DUP2 SLOAD DUP2 DUP10 ADD MSTORE PUSH1 0x1 DUP3 ADD SWAP2 POP PUSH1 0x20 DUP2 ADD SWAP1 POP PUSH2 0x22A3 JUMP JUMPDEST DUP1 DUP9 ADD SWAP6 POP POP POP JUMPDEST POP POP POP SWAP3 SWAP2 POP POP JUMP JUMPDEST PUSH1 0x0 PUSH2 0x22E0 PUSH1 0x4D DUP4 PUSH2 0x2CE1 JUMP JUMPDEST SWAP2 POP PUSH2 0x22EB DUP3 PUSH2 0x3116 JUMP JUMPDEST PUSH1 0x60 DUP3 ADD SWAP1 POP SWAP2 SWAP1 POP JUMP JUMPDEST PUSH1 0x0 PUSH2 0x2303 PUSH1 0x2E DUP4 PUSH2 0x2CE1 JUMP JUMPDEST SWAP2 POP PUSH2 0x230E DUP3 PUSH2 0x318B JUMP JUMPDEST PUSH1 0x40 DUP3 ADD SWAP1 POP SWAP2 SWAP1 POP JUMP JUMPDEST PUSH1 0x0 PUSH2 0x2326 PUSH1 0x2F DUP4 PUSH2 0x2CE1 JUMP JUMPDEST SWAP2 POP PUSH2 0x2331 DUP3 PUSH2 0x31DA JUMP JUMPDEST PUSH1 0x40 DUP3 ADD SWAP1 POP SWAP2 SWAP1 POP JUMP JUMPDEST PUSH1 0x0 PUSH2 0x2349 PUSH1 0x22 DUP4 PUSH2 0x2CE1 JUMP JUMPDEST SWAP2 POP PUSH2 0x2354 DUP3 PUSH2 0x3229 JUMP JUMPDEST PUSH1 0x40 DUP3 ADD SWAP1 POP SWAP2 SWAP1 POP JUMP JUMPDEST PUSH1 0x0 PUSH2 0x236C PUSH1 0x35 DUP4 PUSH2 0x2CE1 JUMP JUMPDEST SWAP2 POP PUSH2 0x2377 DUP3 PUSH2 0x3278 JUMP JUMPDEST PUSH1 0x40 DUP3 ADD SWAP1 POP SWAP2 SWAP1 POP JUMP JUMPDEST PUSH1 0x0 PUSH2 0x238F PUSH1 0x2D DUP4 PUSH2 0x2CE1 JUMP JUMPDEST SWAP2 POP PUSH2 0x239A DUP3 PUSH2 0x32C7 JUMP JUMPDEST PUSH1 0x40 DUP3 ADD SWAP1 POP SWAP2 SWAP1 POP JUMP JUMPDEST PUSH1 0x0 PUSH2 0x23B2 PUSH1 0x2E DUP4 PUSH2 0x2CE1 JUMP JUMPDEST SWAP2 POP PUSH2 0x23BD DUP3 PUSH2 0x3316 JUMP JUMPDEST PUSH1 0x40 DUP3 ADD SWAP1 POP SWAP2 SWAP1 POP JUMP JUMPDEST PUSH1 0x0 PUSH2 0x23D5 PUSH1 0x27 DUP4 PUSH2 0x2CE1 JUMP JUMPDEST SWAP2 POP PUSH2 0x23E0 DUP3 PUSH2 0x3365 JUMP JUMPDEST PUSH1 0x40 DUP3 ADD SWAP1 POP SWAP2 SWAP1 POP JUMP JUMPDEST PUSH1 0x0 PUSH2 0x23F8 PUSH1 0x2D DUP4 PUSH2 0x2CE1 JUMP JUMPDEST SWAP2 POP PUSH2 0x2403 DUP3 PUSH2 0x33B4 JUMP JUMPDEST PUSH1 0x40 DUP3 ADD SWAP1 POP SWAP2 SWAP1 POP JUMP JUMPDEST PUSH1 0x0 PUSH2 0x241B PUSH1 0x29 DUP4 PUSH2 0x2CE1 JUMP JUMPDEST SWAP2 POP PUSH2 0x2426 DUP3 PUSH2 0x3403 JUMP JUMPDEST PUSH1 0x40 DUP3 ADD SWAP1 POP SWAP2 SWAP1 POP JUMP JUMPDEST PUSH1 0x0 PUSH2 0x243E PUSH1 0x32 DUP4 PUSH2 0x2CE1 JUMP JUMPDEST SWAP2 POP PUSH2 0x2449 DUP3 PUSH2 0x3452 JUMP JUMPDEST PUSH1 0x40 DUP3 ADD SWAP1 POP SWAP2 SWAP1 POP JUMP JUMPDEST PUSH1 0x0 PUSH2 0x2461 PUSH1 0x2C DUP4 PUSH2 0x2CE1 JUMP JUMPDEST SWAP2 POP PUSH2 0x246C DUP3 PUSH2 0x34A1 JUMP JUMPDEST PUSH1 0x40 DUP3 ADD SWAP1 POP SWAP2 SWAP1 POP JUMP JUMPDEST PUSH1 0x0 PUSH2 0x2484 PUSH1 0x20 DUP4 PUSH2 0x2CE1 JUMP JUMPDEST SWAP2 POP PUSH2 0x248F DUP3 PUSH2 0x34F0 JUMP JUMPDEST PUSH1 0x20 DUP3 ADD SWAP1 POP SWAP2 SWAP1 POP JUMP JUMPDEST PUSH1 0x0 PUSH2 0x24A7 PUSH1 0x36 DUP4 PUSH2 0x2CE1 JUMP JUMPDEST SWAP2 POP PUSH2 0x24B2 DUP3 PUSH2 0x3519 JUMP JUMPDEST PUSH1 0x40 DUP3 ADD SWAP1 POP SWAP2 SWAP1 POP JUMP JUMPDEST PUSH1 0x0 PUSH2 0x24CA PUSH1 0x2D DUP4 PUSH2 0x2CE1 JUMP JUMPDEST SWAP2 POP PUSH2 0x24D5 DUP3 PUSH2 0x3568 JUMP JUMPDEST PUSH1 0x40 DUP3 ADD SWAP1 POP SWAP2 SWAP1 POP JUMP JUMPDEST PUSH1 0x0 PUSH2 0x24ED PUSH1 0x31 DUP4 PUSH2 0x2CE1 JUMP JUMPDEST SWAP2 POP PUSH2 0x24F8 DUP3 PUSH2 0x35B7 JUMP JUMPDEST PUSH1 0x40 DUP3 ADD SWAP1 POP SWAP2 SWAP1 POP JUMP JUMPDEST PUSH1 0x0 PUSH2 0x2510 PUSH1 0x2B DUP4 PUSH2 0x2CE1 JUMP JUMPDEST SWAP2 POP PUSH2 0x251B DUP3 PUSH2 0x3606 JUMP JUMPDEST PUSH1 0x40 DUP3 ADD SWAP1 POP SWAP2 SWAP1 POP JUMP JUMPDEST PUSH1 0x0 PUSH2 0x2533 PUSH1 0x2B DUP4 PUSH2 0x2CE1 JUMP JUMPDEST SWAP2 POP PUSH2 0x253E DUP3 PUSH2 0x3655 JUMP JUMPDEST PUSH1 0x40 DUP3 ADD SWAP1 POP SWAP2 SWAP1 POP JUMP JUMPDEST PUSH1 0x0 PUSH2 0x2556 PUSH1 0x1C DUP4 PUSH2 0x2CE1 JUMP JUMPDEST SWAP2 POP PUSH2 0x2561 DUP3 PUSH2 0x36A4 JUMP JUMPDEST PUSH1 0x20 DUP3 ADD SWAP1 POP SWAP2 SWAP1 POP JUMP JUMPDEST PUSH1 0x0 PUSH2 0x2579 PUSH1 0x2D DUP4 PUSH2 0x2CE1 JUMP JUMPDEST SWAP2 POP PUSH2 0x2584 DUP3 PUSH2 0x36CD JUMP JUMPDEST PUSH1 0x40 DUP3 ADD SWAP1 POP SWAP2 SWAP1 POP JUMP JUMPDEST PUSH1 0x0 PUSH2 0x2E0 DUP4 ADD PUSH1 0x0 DUP1 DUP5 ADD SLOAD SWAP1 POP PUSH2 0x25A7 DUP2 PUSH2 0x2EEB JUMP JUMPDEST PUSH2 0x25B4 PUSH1 0x0 DUP8 ADD DUP3 PUSH2 0x211E JUMP JUMPDEST POP PUSH1 0x1 DUP5 ADD SLOAD SWAP1 POP PUSH2 0x25C5 DUP2 PUSH2 0x2EEB JUMP JUMPDEST PUSH2 0x25D2 PUSH1 0x20 DUP8 ADD DUP3 PUSH2 0x211E JUMP JUMPDEST POP PUSH1 0x2 DUP5 ADD SLOAD SWAP1 POP PUSH2 0x25E3 DUP2 PUSH2 0x2F53 JUMP JUMPDEST PUSH2 0x25F0 PUSH1 0x40 DUP8 ADD DUP3 PUSH2 0x2765 JUMP JUMPDEST POP PUSH1 0x3 DUP5 ADD SLOAD SWAP1 POP PUSH2 0x2601 DUP2 PUSH2 0x2F53 JUMP JUMPDEST PUSH2 0x260E PUSH1 0x60 DUP8 ADD DUP3 PUSH2 0x2765 JUMP JUMPDEST POP PUSH1 0x4 DUP5 ADD PUSH2 0x2620 PUSH1 0x80 DUP8 ADD DUP3 PUSH2 0x213C JUMP JUMPDEST POP PUSH1 0x10 DUP5 ADD DUP6 DUP4 SUB PUSH2 0x200 DUP8 ADD MSTORE PUSH2 0x2638 DUP4 DUP3 PUSH2 0x2253 JUMP JUMPDEST SWAP3 POP POP PUSH1 0x11 DUP5 ADD SLOAD SWAP1 POP PUSH2 0x264B DUP2 PUSH2 0x2F1F JUMP JUMPDEST PUSH2 0x2659 PUSH2 0x220 DUP8 ADD DUP3 PUSH2 0x21C7 JUMP JUMPDEST POP PUSH1 0x12 DUP5 ADD SLOAD SWAP1 POP PUSH2 0x266A DUP2 PUSH2 0x2F05 JUMP JUMPDEST PUSH2 0x2678 PUSH2 0x240 DUP8 ADD DUP3 PUSH2 0x2192 JUMP JUMPDEST POP PUSH1 0x13 DUP5 ADD SLOAD SWAP1 POP PUSH2 0x2689 DUP2 PUSH2 0x2F53 JUMP JUMPDEST PUSH2 0x2697 PUSH2 0x260 DUP8 ADD DUP3 PUSH2 0x2765 JUMP JUMPDEST POP PUSH1 0x14 DUP5 ADD SLOAD SWAP1 POP PUSH2 0x26A8 DUP2 PUSH2 0x2F05 JUMP JUMPDEST PUSH2 0x26B6 PUSH2 0x280 DUP8 ADD DUP3 PUSH2 0x2192 JUMP JUMPDEST POP PUSH1 0x15 DUP5 ADD SLOAD SWAP1 POP PUSH2 0x26C7 DUP2 PUSH2 0x2F1F JUMP JUMPDEST PUSH2 0x26D5 PUSH2 0x2A0 DUP8 ADD DUP3 PUSH2 0x21C7 JUMP JUMPDEST POP PUSH1 0x16 DUP5 ADD SLOAD SWAP1 POP PUSH2 0x26E6 DUP2 PUSH2 0x2F39 JUMP JUMPDEST PUSH2 0x26F4 PUSH2 0x2C0 DUP8 ADD DUP3 PUSH2 0x21FC JUMP JUMPDEST POP DUP2 SWAP3 POP POP POP SWAP3 SWAP2 POP POP JUMP JUMPDEST PUSH1 0x60 DUP3 ADD PUSH1 0x0 DUP1 DUP4 ADD SLOAD SWAP1 POP PUSH2 0x2715 DUP2 PUSH2 0x2F53 JUMP JUMPDEST PUSH2 0x2722 PUSH1 0x0 DUP7 ADD DUP3 PUSH2 0x2765 JUMP JUMPDEST POP PUSH1 0x1 DUP4 ADD SLOAD SWAP1 POP PUSH2 0x2733 DUP2 PUSH2 0x2F53 JUMP JUMPDEST PUSH2 0x2740 PUSH1 0x20 DUP7 ADD DUP3 PUSH2 0x2765 JUMP JUMPDEST POP PUSH1 0x2 DUP4 ADD SLOAD SWAP1 POP PUSH2 0x2751 DUP2 PUSH2 0x2F53 JUMP JUMPDEST PUSH2 0x275E PUSH1 0x40 DUP7 ADD DUP3 PUSH2 0x2765 JUMP JUMPDEST POP POP POP POP POP JUMP JUMPDEST PUSH2 0x276E DUP2 PUSH2 0x2DF1 JUMP JUMPDEST DUP3 MSTORE POP POP JUMP JUMPDEST PUSH2 0x277D DUP2 PUSH2 0x2DF1 JUMP JUMPDEST DUP3 MSTORE POP POP JUMP JUMPDEST PUSH1 0x0 PUSH2 0x278F DUP3 DUP6 PUSH2 0x21B0 JUMP JUMPDEST PUSH1 0x1 DUP3 ADD SWAP2 POP PUSH2 0x279F DUP3 DUP5 PUSH2 0x21E5 JUMP JUMPDEST PUSH1 0x20 DUP3 ADD SWAP2 POP DUP2 SWAP1 POP SWAP4 SWAP3 POP POP POP JUMP JUMPDEST PUSH1 0x0 PUSH2 0x160 DUP3 ADD SWAP1 POP PUSH2 0x27C5 PUSH1 0x0 DUP4 ADD DUP15 PUSH2 0x212D JUMP JUMPDEST PUSH2 0x27D2 PUSH1 0x20 DUP4 ADD DUP14 PUSH2 0x212D JUMP JUMPDEST PUSH2 0x27DF PUSH1 0x40 DUP4 ADD DUP13 PUSH2 0x2774 JUMP JUMPDEST PUSH2 0x27EC PUSH1 0x60 DUP4 ADD DUP12 PUSH2 0x2774 JUMP JUMPDEST DUP2 DUP2 SUB PUSH1 0x80 DUP4 ADD MSTORE PUSH2 0x27FE DUP2 DUP11 PUSH2 0x221A JUMP JUMPDEST SWAP1 POP PUSH2 0x280D PUSH1 0xA0 DUP4 ADD DUP10 PUSH2 0x21D6 JUMP JUMPDEST PUSH2 0x281A PUSH1 0xC0 DUP4 ADD DUP9 PUSH2 0x21A1 JUMP JUMPDEST PUSH2 0x2827 PUSH1 0xE0 DUP4 ADD DUP8 PUSH2 0x2774 JUMP JUMPDEST PUSH2 0x2835 PUSH2 0x100 DUP4 ADD DUP7 PUSH2 0x21A1 JUMP JUMPDEST PUSH2 0x2843 PUSH2 0x120 DUP4 ADD DUP6 PUSH2 0x21D6 JUMP JUMPDEST PUSH2 0x2851 PUSH2 0x140 DUP4 ADD DUP5 PUSH2 0x220B JUMP JUMPDEST SWAP13 SWAP12 POP POP POP POP POP POP POP POP POP POP POP POP JUMP JUMPDEST PUSH1 0x0 PUSH1 0x40 DUP3 ADD SWAP1 POP PUSH2 0x2876 PUSH1 0x0 DUP4 ADD DUP6 PUSH2 0x212D JUMP JUMPDEST PUSH2 0x2883 PUSH1 0x20 DUP4 ADD DUP5 PUSH2 0x2774 JUMP JUMPDEST SWAP4 SWAP3 POP POP POP JUMP JUMPDEST PUSH1 0x0 PUSH1 0x20 DUP3 ADD SWAP1 POP PUSH2 0x289F PUSH1 0x0 DUP4 ADD DUP5 PUSH2 0x21D6 JUMP JUMPDEST SWAP3 SWAP2 POP POP JUMP JUMPDEST PUSH1 0x0 PUSH1 0x20 DUP3 ADD SWAP1 POP DUP2 DUP2 SUB PUSH1 0x0 DUP4 ADD MSTORE PUSH2 0x28BE DUP2 PUSH2 0x22D3 JUMP JUMPDEST SWAP1 POP SWAP2 SWAP1 POP JUMP JUMPDEST PUSH1 0x0 PUSH1 0x20 DUP3 ADD SWAP1 POP DUP2 DUP2 SUB PUSH1 0x0 DUP4 ADD MSTORE PUSH2 0x28DE DUP2 PUSH2 0x22F6 JUMP JUMPDEST SWAP1 POP SWAP2 SWAP1 POP JUMP JUMPDEST PUSH1 0x0 PUSH1 0x20 DUP3 ADD SWAP1 POP DUP2 DUP2 SUB PUSH1 0x0 DUP4 ADD MSTORE PUSH2 0x28FE DUP2 PUSH2 0x2319 JUMP JUMPDEST SWAP1 POP SWAP2 SWAP1 POP JUMP JUMPDEST PUSH1 0x0 PUSH1 0x20 DUP3 ADD SWAP1 POP DUP2 DUP2 SUB PUSH1 0x0 DUP4 ADD MSTORE PUSH2 0x291E DUP2 PUSH2 0x233C JUMP JUMPDEST SWAP1 POP SWAP2 SWAP1 POP JUMP JUMPDEST PUSH1 0x0 PUSH1 0x20 DUP3 ADD SWAP1 POP DUP2 DUP2 SUB PUSH1 0x0 DUP4 ADD MSTORE PUSH2 0x293E DUP2 PUSH2 0x235F JUMP JUMPDEST SWAP1 POP SWAP2 SWAP1 POP JUMP JUMPDEST PUSH1 0x0 PUSH1 0x20 DUP3 ADD SWAP1 POP DUP2 DUP2 SUB PUSH1 0x0 DUP4 ADD MSTORE PUSH2 0x295E DUP2 PUSH2 0x2382 JUMP JUMPDEST SWAP1 POP SWAP2 SWAP1 POP JUMP JUMPDEST PUSH1 0x0 PUSH1 0x20 DUP3 ADD SWAP1 POP DUP2 DUP2 SUB PUSH1 0x0 DUP4 ADD MSTORE PUSH2 0x297E DUP2 PUSH2 0x23A5 JUMP JUMPDEST SWAP1 POP SWAP2 SWAP1 POP JUMP JUMPDEST PUSH1 0x0 PUSH1 0x20 DUP3 ADD SWAP1 POP DUP2 DUP2 SUB PUSH1 0x0 DUP4 ADD MSTORE PUSH2 0x299E DUP2 PUSH2 0x23C8 JUMP JUMPDEST SWAP1 POP SWAP2 SWAP1 POP JUMP JUMPDEST PUSH1 0x0 PUSH1 0x20 DUP3 ADD SWAP1 POP DUP2 DUP2 SUB PUSH1 0x0 DUP4 ADD MSTORE PUSH2 0x29BE DUP2 PUSH2 0x23EB JUMP JUMPDEST SWAP1 POP SWAP2 SWAP1 POP JUMP JUMPDEST PUSH1 0x0 PUSH1 0x20 DUP3 ADD SWAP1 POP DUP2 DUP2 SUB PUSH1 0x0 DUP4 ADD MSTORE PUSH2 0x29DE DUP2 PUSH2 0x240E JUMP JUMPDEST SWAP1 POP SWAP2 SWAP1 POP JUMP JUMPDEST PUSH1 0x0 PUSH1 0x20 DUP3 ADD SWAP1 POP DUP2 DUP2 SUB PUSH1 0x0 DUP4 ADD MSTORE PUSH2 0x29FE DUP2 PUSH2 0x2431 JUMP JUMPDEST SWAP1 POP SWAP2 SWAP1 POP JUMP JUMPDEST PUSH1 0x0 PUSH1 0x20 DUP3 ADD SWAP1 POP DUP2 DUP2 SUB PUSH1 0x0 DUP4 ADD MSTORE PUSH2 0x2A1E DUP2 PUSH2 0x2454 JUMP JUMPDEST SWAP1 POP SWAP2 SWAP1 POP JUMP JUMPDEST PUSH1 0x0 PUSH1 0x20 DUP3 ADD SWAP1 POP DUP2 DUP2 SUB PUSH1 0x0 DUP4 ADD MSTORE PUSH2 0x2A3E DUP2 PUSH2 0x2477 JUMP JUMPDEST SWAP1 POP SWAP2 SWAP1 POP JUMP JUMPDEST PUSH1 0x0 PUSH1 0x20 DUP3 ADD SWAP1 POP DUP2 DUP2 SUB PUSH1 0x0 DUP4 ADD MSTORE PUSH2 0x2A5E DUP2 PUSH2 0x249A JUMP JUMPDEST SWAP1 POP SWAP2 SWAP1 POP JUMP JUMPDEST PUSH1 0x0 PUSH1 0x20 DUP3 ADD SWAP1 POP DUP2 DUP2 SUB PUSH1 0x0 DUP4 ADD MSTORE PUSH2 0x2A7E DUP2 PUSH2 0x24BD JUMP JUMPDEST SWAP1 POP SWAP2 SWAP1 POP JUMP JUMPDEST PUSH1 0x0 PUSH1 0x20 DUP3 ADD SWAP1 POP DUP2 DUP2 SUB PUSH1 0x0 DUP4 ADD MSTORE PUSH2 0x2A9E DUP2 PUSH2 0x24E0 JUMP JUMPDEST SWAP1 POP SWAP2 SWAP1 POP JUMP JUMPDEST PUSH1 0x0 PUSH1 0x20 DUP3 ADD SWAP1 POP DUP2 DUP2 SUB PUSH1 0x0 DUP4 ADD MSTORE PUSH2 0x2ABE DUP2 PUSH2 0x2503 JUMP JUMPDEST SWAP1 POP SWAP2 SWAP1 POP JUMP JUMPDEST PUSH1 0x0 PUSH1 0x20 DUP3 ADD SWAP1 POP DUP2 DUP2 SUB PUSH1 0x0 DUP4 ADD MSTORE PUSH2 0x2ADE DUP2 PUSH2 0x2526 JUMP JUMPDEST SWAP1 POP SWAP2 SWAP1 POP JUMP JUMPDEST PUSH1 0x0 PUSH1 0x20 DUP3 ADD SWAP1 POP DUP2 DUP2 SUB PUSH1 0x0 DUP4 ADD MSTORE PUSH2 0x2AFE DUP2 PUSH2 0x2549 JUMP JUMPDEST SWAP1 POP SWAP2 SWAP1 POP JUMP JUMPDEST PUSH1 0x0 PUSH1 0x20 DUP3 ADD SWAP1 POP DUP2 DUP2 SUB PUSH1 0x0 DUP4 ADD MSTORE PUSH2 0x2B1E DUP2 PUSH2 0x256C JUMP JUMPDEST SWAP1 POP SWAP2 SWAP1 POP JUMP JUMPDEST PUSH1 0x0 PUSH1 0x20 DUP3 ADD SWAP1 POP DUP2 DUP2 SUB PUSH1 0x0 DUP4 ADD MSTORE PUSH2 0x2B3F DUP2 DUP5 PUSH2 0x258F JUMP JUMPDEST SWAP1 POP SWAP3 SWAP2 POP POP JUMP JUMPDEST PUSH1 0x0 PUSH1 0x20 DUP3 ADD SWAP1 POP PUSH2 0x2B5C PUSH1 0x0 DUP4 ADD DUP5 PUSH2 0x2774 JUMP JUMPDEST SWAP3 SWAP2 POP POP JUMP JUMPDEST PUSH1 0x0 PUSH1 0x60 DUP3 ADD SWAP1 POP PUSH2 0x2B77 PUSH1 0x0 DUP4 ADD DUP7 PUSH2 0x2774 JUMP JUMPDEST PUSH2 0x2B84 PUSH1 0x20 DUP4 ADD DUP6 PUSH2 0x21A1 JUMP JUMPDEST PUSH2 0x2B91 PUSH1 0x40 DUP4 ADD DUP5 PUSH2 0x21D6 JUMP JUMPDEST SWAP5 SWAP4 POP POP POP POP JUMP JUMPDEST PUSH1 0x0 PUSH1 0x80 DUP3 ADD SWAP1 POP PUSH2 0x2BAE PUSH1 0x0 DUP4 ADD DUP8 PUSH2 0x2774 JUMP JUMPDEST PUSH2 0x2BBB PUSH1 0x20 DUP4 ADD DUP7 PUSH2 0x21A1 JUMP JUMPDEST PUSH2 0x2BC8 PUSH1 0x40 DUP4 ADD DUP6 PUSH2 0x21D6 JUMP JUMPDEST PUSH2 0x2BD5 PUSH1 0x60 DUP4 ADD DUP5 PUSH2 0x220B JUMP JUMPDEST SWAP6 SWAP5 POP POP POP POP POP JUMP JUMPDEST PUSH1 0x0 PUSH1 0x80 DUP3 ADD SWAP1 POP PUSH2 0x2BF3 PUSH1 0x0 DUP4 ADD DUP8 PUSH2 0x2774 JUMP JUMPDEST PUSH2 0x2C00 PUSH1 0x20 DUP4 ADD DUP7 PUSH2 0x21A1 JUMP JUMPDEST PUSH2 0x2C0D PUSH1 0x40 DUP4 ADD DUP6 PUSH2 0x2774 JUMP JUMPDEST PUSH2 0x2C1A PUSH1 0x60 DUP4 ADD DUP5 PUSH2 0x220B JUMP JUMPDEST SWAP6 SWAP5 POP POP POP POP POP JUMP JUMPDEST PUSH1 0x0 PUSH1 0x60 DUP3 ADD SWAP1 POP PUSH2 0x2C38 PUSH1 0x0 DUP4 ADD DUP7 PUSH2 0x2774 JUMP JUMPDEST PUSH2 0x2C45 PUSH1 0x20 DUP4 ADD DUP6 PUSH2 0x21D6 JUMP JUMPDEST PUSH2 0x2C52 PUSH1 0x40 DUP4 ADD DUP5 PUSH2 0x220B JUMP JUMPDEST SWAP5 SWAP4 POP POP POP POP JUMP JUMPDEST PUSH1 0x0 PUSH1 0x40 DUP3 ADD SWAP1 POP PUSH2 0x2C6F PUSH1 0x0 DUP4 ADD DUP6 PUSH2 0x2774 JUMP JUMPDEST PUSH2 0x2C7C PUSH1 0x20 DUP4 ADD DUP5 PUSH2 0x220B JUMP JUMPDEST SWAP4 SWAP3 POP POP POP JUMP JUMPDEST PUSH1 0x0 DUP2 SWAP1 POP SWAP2 SWAP1 POP JUMP JUMPDEST PUSH1 0x0 DUP2 SWAP1 POP DUP2 PUSH1 0x0 MSTORE PUSH1 0x20 PUSH1 0x0 KECCAK256 SWAP1 POP SWAP2 SWAP1 POP JUMP JUMPDEST PUSH1 0x0 PUSH1 0x4 SWAP1 POP SWAP2 SWAP1 POP JUMP JUMPDEST PUSH1 0x0 DUP2 MLOAD SWAP1 POP SWAP2 SWAP1 POP JUMP JUMPDEST PUSH1 0x0 PUSH1 0x3 DUP3 ADD SWAP1 POP SWAP2 SWAP1 POP JUMP JUMPDEST PUSH1 0x0 DUP2 SWAP1 POP SWAP3 SWAP2 POP POP JUMP JUMPDEST PUSH1 0x0 DUP3 DUP3 MSTORE PUSH1 0x20 DUP3 ADD SWAP1 POP SWAP3 SWAP2 POP POP JUMP JUMPDEST PUSH1 0x0 DUP3 DUP3 MSTORE PUSH1 0x20 DUP3 ADD SWAP1 POP SWAP3 SWAP2 POP POP JUMP JUMPDEST PUSH1 0x0 PUSH2 0x2CFD DUP3 PUSH2 0x2DF1 JUMP JUMPDEST SWAP2 POP PUSH2 0x2D08 DUP4 PUSH2 0x2DF1 JUMP JUMPDEST SWAP3 POP DUP3 PUSH32 0xFFFFFFFFFFFFFFFFFFFFFFFFFFFFFFFFFFFFFFFFFFFFFFFFFFFFFFFFFFFFFFFF SUB DUP3 GT ISZERO PUSH2 0x2D3D JUMPI PUSH2 0x2D3C PUSH2 0x2FE4 JUMP JUMPDEST JUMPDEST DUP3 DUP3 ADD SWAP1 POP SWAP3 SWAP2 POP POP JUMP JUMPDEST PUSH1 0x0 PUSH20 0xFFFFFFFFFFFFFFFFFFFFFFFFFFFFFFFFFFFFFFFF DUP3 AND SWAP1 POP SWAP2 SWAP1 POP JUMP JUMPDEST PUSH1 0x0 PUSH1 0xFF DUP3 AND SWAP1 POP SWAP2 SWAP1 POP JUMP JUMPDEST PUSH1 0x0 DUP2 SWAP1 POP SWAP2 SWAP1 POP JUMP JUMPDEST PUSH1 0x0 PUSH1 0xFF DUP3 AND SWAP1 POP SWAP2 SWAP1 POP JUMP JUMPDEST PUSH1 0x0 DUP2 SWAP1 POP SWAP2 SWAP1 POP JUMP JUMPDEST PUSH1 0x0 PUSH2 0x2DA1 DUP3 PUSH2 0x2DD1 JUMP JUMPDEST SWAP1 POP SWAP2 SWAP1 POP JUMP JUMPDEST PUSH1 0x0 DUP2 ISZERO ISZERO SWAP1 POP SWAP2 SWAP1 POP JUMP JUMPDEST PUSH1 0x0 DUP2 SWAP1 POP SWAP2 SWAP1 POP JUMP JUMPDEST PUSH1 0x0 DUP2 SWAP1 POP PUSH2 0x2DCC DUP3 PUSH2 0x378F JUMP JUMPDEST SWAP2 SWAP1 POP JUMP JUMPDEST PUSH1 0x0 PUSH20 0xFFFFFFFFFFFFFFFFFFFFFFFFFFFFFFFFFFFFFFFF DUP3 AND SWAP1 POP SWAP2 SWAP1 POP JUMP JUMPDEST PUSH1 0x0 DUP2 SWAP1 POP SWAP2 SWAP1 POP JUMP JUMPDEST PUSH1 0x0 PUSH2 0x2E06 DUP3 PUSH2 0x2DBE JUMP JUMPDEST SWAP1 POP SWAP2 SWAP1 POP JUMP JUMPDEST PUSH1 0x0 PUSH2 0x2E18 DUP3 PUSH2 0x2DF1 JUMP JUMPDEST SWAP1 POP SWAP2 SWAP1 POP JUMP JUMPDEST PUSH1 0x0 JUMPDEST DUP4 DUP2 LT ISZERO PUSH2 0x2E3D JUMPI DUP1 DUP3 ADD MLOAD DUP2 DUP5 ADD MSTORE PUSH1 0x20 DUP2 ADD SWAP1 POP PUSH2 0x2E22 JUMP JUMPDEST DUP4 DUP2 GT ISZERO PUSH2 0x2E4C JUMPI PUSH1 0x0 DUP5 DUP5 ADD MSTORE JUMPDEST POP POP POP POP JUMP JUMPDEST PUSH1 0x0 DUP2 ADD PUSH1 0x0 DUP4 ADD DUP1 PUSH2 0x2E64 DUP2 PUSH2 0x30AA JUMP JUMPDEST SWAP1 POP PUSH2 0x2E70 DUP2 DUP5 PUSH2 0x376C JUMP JUMPDEST POP POP POP PUSH1 0x1 DUP2 ADD PUSH1 0x20 DUP4 ADD DUP1 PUSH2 0x2E85 DUP2 PUSH2 0x30AA JUMP JUMPDEST SWAP1 POP PUSH2 0x2E91 DUP2 DUP5 PUSH2 0x376C JUMP JUMPDEST POP POP POP PUSH1 0x2 DUP2 ADD PUSH1 0x40 DUP4 ADD DUP1 PUSH2 0x2EA6 DUP2 PUSH2 0x30AA JUMP JUMPDEST SWAP1 POP PUSH2 0x2EB2 DUP2 DUP5 PUSH2 0x376C JUMP JUMPDEST POP POP POP POP POP JUMP JUMPDEST PUSH1 0x0 PUSH1 0x2 DUP3 DIV SWAP1 POP PUSH1 0x1 DUP3 AND DUP1 PUSH2 0x2ED1 JUMPI PUSH1 0x7F DUP3 AND SWAP2 POP JUMPDEST PUSH1 0x20 DUP3 LT DUP2 EQ ISZERO PUSH2 0x2EE5 JUMPI PUSH2 0x2EE4 PUSH2 0x3042 JUMP JUMPDEST JUMPDEST POP SWAP2 SWAP1 POP JUMP JUMPDEST PUSH1 0x0 PUSH2 0x2EFE PUSH2 0x2EF9 DUP4 PUSH2 0x3109 JUMP JUMPDEST PUSH2 0x2D48 JUMP JUMPDEST SWAP1 POP SWAP2 SWAP1 POP JUMP JUMPDEST PUSH1 0x0 PUSH2 0x2F18 PUSH2 0x2F13 DUP4 PUSH2 0x3109 JUMP JUMPDEST PUSH2 0x2D68 JUMP JUMPDEST SWAP1 POP SWAP2 SWAP1 POP JUMP JUMPDEST PUSH1 0x0 PUSH2 0x2F32 PUSH2 0x2F2D DUP4 PUSH2 0x3109 JUMP JUMPDEST PUSH2 0x2D75 JUMP JUMPDEST SWAP1 POP SWAP2 SWAP1 POP JUMP JUMPDEST PUSH1 0x0 PUSH2 0x2F4C PUSH2 0x2F47 DUP4 PUSH2 0x3109 JUMP JUMPDEST PUSH2 0x2D7F JUMP JUMPDEST SWAP1 POP SWAP2 SWAP1 POP JUMP JUMPDEST PUSH1 0x0 PUSH2 0x2F66 PUSH2 0x2F61 DUP4 PUSH2 0x3109 JUMP JUMPDEST PUSH2 0x2D8C JUMP JUMPDEST SWAP1 POP SWAP2 SWAP1 POP JUMP JUMPDEST PUSH1 0x0 PUSH2 0x2F78 DUP3 PUSH2 0x2DF1 JUMP JUMPDEST SWAP2 POP PUSH32 0xFFFFFFFFFFFFFFFFFFFFFFFFFFFFFFFFFFFFFFFFFFFFFFFFFFFFFFFFFFFFFFFF DUP3 EQ ISZERO PUSH2 0x2FAB JUMPI PUSH2 0x2FAA PUSH2 0x2FE4 JUMP JUMPDEST JUMPDEST PUSH1 0x1 DUP3 ADD SWAP1 POP SWAP2 SWAP1 POP JUMP JUMPDEST PUSH1 0x0 PUSH2 0x2FC1 DUP3 PUSH2 0x2FD2 JUMP JUMPDEST SWAP1 POP SWAP2 SWAP1 POP JUMP JUMPDEST PUSH1 0x0 DUP2 SWAP1 POP SWAP2 SWAP1 POP JUMP JUMPDEST PUSH1 0x0 PUSH2 0x2FDD DUP3 PUSH2 0x30FC JUMP JUMPDEST SWAP1 POP SWAP2 SWAP1 POP JUMP JUMPDEST PUSH32 0x4E487B7100000000000000000000000000000000000000000000000000000000 PUSH1 0x0 MSTORE PUSH1 0x11 PUSH1 0x4 MSTORE PUSH1 0x24 PUSH1 0x0 REVERT JUMPDEST PUSH32 0x4E487B7100000000000000000000000000000000000000000000000000000000 PUSH1 0x0 MSTORE PUSH1 0x21 PUSH1 0x4 MSTORE PUSH1 0x24 PUSH1 0x0 REVERT JUMPDEST PUSH32 0x4E487B7100000000000000000000000000000000000000000000000000000000 PUSH1 0x0 MSTORE PUSH1 0x22 PUSH1 0x4 MSTORE PUSH1 0x24 PUSH1 0x0 REVERT JUMPDEST PUSH32 0x4E487B7100000000000000000000000000000000000000000000000000000000 PUSH1 0x0 MSTORE PUSH1 0x32 PUSH1 0x4 MSTORE PUSH1 0x24 PUSH1 0x0 REVERT JUMPDEST PUSH1 0x0 DUP2 SWAP1 POP SWAP2 SWAP1 POP JUMP JUMPDEST PUSH1 0x0 DUP2 CALLDATALOAD PUSH2 0x30B7 DUP2 PUSH2 0x37E8 JUMP JUMPDEST DUP1 SWAP2 POP POP SWAP2 SWAP1 POP JUMP JUMPDEST PUSH1 0x0 DUP1 REVERT JUMPDEST PUSH1 0x0 DUP1 REVERT JUMPDEST PUSH1 0x0 DUP1 REVERT JUMPDEST PUSH1 0x0 DUP1 REVERT JUMPDEST PUSH1 0x0 DUP1 REVERT JUMPDEST PUSH1 0x0 DUP1 REVERT JUMPDEST PUSH1 0x0 PUSH1 0x1F NOT PUSH1 0x1F DUP4 ADD AND SWAP1 POP SWAP2 SWAP1 POP JUMP JUMPDEST PUSH1 0x0 DUP2 PUSH1 0x0 SHL SWAP1 POP SWAP2 SWAP1 POP JUMP JUMPDEST PUSH1 0x0 DUP2 PUSH1 0xF8 SHL SWAP1 POP SWAP2 SWAP1 POP JUMP JUMPDEST PUSH1 0x0 DUP2 PUSH1 0x0 SHR SWAP1 POP SWAP2 SWAP1 POP JUMP JUMPDEST PUSH32 0x74696D656F7574506163743A20426C6F636B206D757374206265206772656174 PUSH1 0x0 DUP3 ADD MSTORE PUSH32 0x6572207468616E206F7220657175616C20746F20616E73776572203220626C6F PUSH1 0x20 DUP3 ADD MSTORE PUSH32 0x636B202B2074696D656F75742E00000000000000000000000000000000000000 PUSH1 0x40 DUP3 ADD MSTORE POP JUMP JUMPDEST PUSH32 0x7375626D6974416E73776572313A204D6573736167652073656E646572206D75 PUSH1 0x0 DUP3 ADD MSTORE PUSH32 0x737420626520706172747920312E000000000000000000000000000000000000 PUSH1 0x20 DUP3 ADD MSTORE POP JUMP JUMPDEST PUSH32 0x74696D656F7574506163743A2050616374206D757374206861766520616E7377 PUSH1 0x0 DUP3 ADD MSTORE PUSH32 0x65722032207375626D69747465642E0000000000000000000000000000000000 PUSH1 0x20 DUP3 ADD MSTORE POP JUMP JUMPDEST PUSH32 0x63616E63656C506163743A2050616374206D7573742062652070726F706F7365 PUSH1 0x0 DUP3 ADD MSTORE PUSH32 0x642E000000000000000000000000000000000000000000000000000000000000 PUSH1 0x20 DUP3 ADD MSTORE POP JUMP JUMPDEST PUSH32 0x7365616C506163743A204D6573736167652076616C7565206E6F742065717561 PUSH1 0x0 DUP3 ADD MSTORE PUSH32 0x6C20746F2070617274792032206465706F7369742E0000000000000000000000 PUSH1 0x20 DUP3 ADD MSTORE POP JUMP JUMPDEST PUSH32 0x4465706F73697420746F74616C20646F6573206E6F7420657175616C204E4E20 PUSH1 0x0 DUP3 ADD MSTORE PUSH32 0x7061796F757420746F74616C2E00000000000000000000000000000000000000 PUSH1 0x20 DUP3 ADD MSTORE POP JUMP JUMPDEST PUSH32 0x7375626D6974416E73776572323A204D6573736167652073656E646572206D75 PUSH1 0x0 DUP3 ADD MSTORE PUSH32 0x737420626520706172747920322E000000000000000000000000000000000000 PUSH1 0x20 DUP3 ADD MSTORE POP JUMP JUMPDEST PUSH32 0x7375626D6974416E7377657231486173683A2050616374206D75737420626520 PUSH1 0x0 DUP3 ADD MSTORE PUSH32 0x7365616C65642E00000000000000000000000000000000000000000000000000 PUSH1 0x20 DUP3 ADD MSTORE POP JUMP JUMPDEST PUSH32 0x4465706F73697420746F74616C20646F6573206E6F7420657175616C204E5920 PUSH1 0x0 DUP3 ADD MSTORE PUSH32 0x7061796F757420746F74616C2E00000000000000000000000000000000000000 PUSH1 0x20 DUP3 ADD MSTORE POP JUMP JUMPDEST PUSH32 0x7365616C506163743A204D6573736167652073656E646572206D757374206265 PUSH1 0x0 DUP3 ADD MSTORE PUSH32 0x20706172747920322E0000000000000000000000000000000000000000000000 PUSH1 0x20 DUP3 ADD MSTORE POP JUMP JUMPDEST PUSH32 0x7375626D6974416E7377657231486173683A204D6573736167652073656E6465 PUSH1 0x0 DUP3 ADD MSTORE PUSH32 0x72206D75737420626520706172747920312E0000000000000000000000000000 PUSH1 0x20 DUP3 ADD MSTORE POP JUMP JUMPDEST PUSH32 0x74696D656F7574506163743A204D6573736167652073656E646572206D757374 PUSH1 0x0 DUP3 ADD MSTORE PUSH32 0x20626520706172747920322E0000000000000000000000000000000000000000 PUSH1 0x20 DUP3 ADD MSTORE POP JUMP JUMPDEST PUSH32 0x7365616C506163743A2050616374206D7573742062652070726F706F7365642E PUSH1 0x0 DUP3 ADD MSTORE POP JUMP JUMPDEST PUSH32 0x7375626D6974416E73776572323A2050616374206D757374206861766520616E PUSH1 0x0 DUP3 ADD MSTORE PUSH32 0x7377657220312068617368207375626D69747465642E00000000000000000000 PUSH1 0x20 DUP3 ADD MSTORE POP JUMP JUMPDEST PUSH32 0x4465706F73697420746F74616C20646F6573206E6F7420657175616C20594E20 PUSH1 0x0 DUP3 ADD MSTORE PUSH32 0x7061796F757420746F74616C2E00000000000000000000000000000000000000 PUSH1 0x20 DUP3 ADD MSTORE POP JUMP JUMPDEST PUSH32 0x7375626D6974416E73776572313A2050616374206D757374206861766520616E PUSH1 0x0 DUP3 ADD MSTORE PUSH32 0x737765722032207375626D69747465642E000000000000000000000000000000 PUSH1 0x20 DUP3 ADD MSTORE POP JUMP JUMPDEST PUSH32 0x4D6573736167652076616C7565206E6F7420657175616C20746F207061727479 PUSH1 0x0 DUP3 ADD MSTORE PUSH32 0x2031206465706F7369742E000000000000000000000000000000000000000000 PUSH1 0x20 DUP3 ADD MSTORE POP JUMP JUMPDEST PUSH32 0x63616E63656C506163743A204D6573736167652073656E646572206D75737420 PUSH1 0x0 DUP3 ADD MSTORE PUSH32 0x626520706172747920312E000000000000000000000000000000000000000000 PUSH1 0x20 DUP3 ADD MSTORE POP JUMP JUMPDEST PUSH32 0x4661696C656420746F2066696E64207061796F757420696E6465782E00000000 PUSH1 0x0 DUP3 ADD MSTORE POP JUMP JUMPDEST PUSH32 0x4465706F73697420746F74616C20646F6573206E6F7420657175616C20595920 PUSH1 0x0 DUP3 ADD MSTORE PUSH32 0x7061796F757420746F74616C2E00000000000000000000000000000000000000 PUSH1 0x20 DUP3 ADD MSTORE POP JUMP JUMPDEST PUSH1 0x0 PUSH32 0xFFFFFFFFFFFFFFFFFFFFFFFFFFFFFFFFFFFFFFFFFFFFFFFFFFFFFFFFFFFFFFFF PUSH2 0x3748 DUP5 PUSH2 0x30EF JUMP JUMPDEST SWAP4 POP DUP1 NOT DUP4 AND SWAP3 POP DUP1 DUP5 AND DUP4 OR SWAP2 POP POP SWAP3 SWAP2 POP POP JUMP JUMPDEST PUSH2 0x3768 DUP3 DUP3 PUSH2 0x2E52 JUMP JUMPDEST POP POP JUMP JUMPDEST PUSH2 0x3775 DUP3 PUSH2 0x2E0D JUMP JUMPDEST PUSH2 0x3788 PUSH2 0x3781 DUP3 PUSH2 0x30A0 JUMP JUMPDEST DUP4 SLOAD PUSH2 0x371C JUMP JUMPDEST DUP3 SSTORE POP POP POP JUMP JUMPDEST PUSH1 0x7 DUP2 LT PUSH2 0x37A0 JUMPI PUSH2 0x379F PUSH2 0x3013 JUMP JUMPDEST JUMPDEST POP JUMP JUMPDEST PUSH2 0x37AC DUP2 PUSH2 0x2D96 JUMP JUMPDEST DUP2 EQ PUSH2 0x37B7 JUMPI PUSH1 0x0 DUP1 REVERT JUMPDEST POP JUMP JUMPDEST PUSH2 0x37C3 DUP2 PUSH2 0x2DA8 JUMP JUMPDEST DUP2 EQ PUSH2 0x37CE JUMPI PUSH1 0x0 DUP1 REVERT JUMPDEST POP JUMP JUMPDEST PUSH2 0x37DA DUP2 PUSH2 0x2DB4 JUMP JUMPDEST DUP2 EQ PUSH2 0x37E5 JUMPI PUSH1 0x0 DUP1 REVERT JUMPDEST POP JUMP JUMPDEST PUSH2 0x37F1 DUP2 PUSH2 0x2DF1 JUMP JUMPDEST DUP2 EQ PUSH2 0x37FC JUMPI PUSH1 0x0 DUP1 REVERT JUMPDEST POP JUMP INVALID LOG2 PUSH5 0x6970667358 0x22 SLT KECCAK256 PUSH19 0xCD1E0E692146DCD5D35034E4F6AE2FBC01FF32 0xDA 0xEF PUSH14 0x763DAD9A004020184864736F6C63 NUMBER STOP ADDMOD SDIV STOP CALLER "
        },
        "methodIdentifiers": {
          "TIMEOUT()": "f56f48f2",
          "accountBalances(address)": "6ff96d17",
          "cancelPact(uint256)": "a3a86827",
          "hashAnswer(bool,bytes32)": "7e4820d8",
          "pactCount()": "f10fb3da",
          "pacts(uint256)": "0edf25f5",
          "proposePact(address,uint256,uint256,(uint256,uint256,uint256),(uint256,uint256,uint256),(uint256,uint256,uint256),(uint256,uint256,uint256),string)": "847a9e0b",
          "sealPact(uint256)": "1f497479",
          "submitAnswer1(uint256,bool,bytes32)": "e2868e7a",
          "submitAnswer1Hash(uint256,bytes32)": "2d451d0f",
          "submitAnswer2(uint256,bool)": "0a2f86da",
          "timeOutPact(uint256)": "2c8582fb",
          "validateMatrix(uint256,uint256,(uint256,uint256,uint256),(uint256,uint256,uint256),(uint256,uint256,uint256),(uint256,uint256,uint256))": "5b9cd10a",
          "withdraw(address)": "51cff8d9"
        }
      }
    }
  }
}