{
  "contracts/PactFact.sol": {
    "PactFact": {
      "abi": [
        {
          "inputs": [
            {
              "internalType": "uint256",
              "name": "timeoutDays",
              "type": "uint256"
            }
          ],
          "stateMutability": "nonpayable",
          "type": "constructor"
        },
        {
          "anonymous": false,
          "inputs": [
            {
              "indexed": false,
              "internalType": "uint256",
              "name": "pactId",
              "type": "uint256"
            },
            {
              "indexed": false,
              "internalType": "enum PactFact.PactState",
              "name": "state",
              "type": "uint8"
            }
          ],
          "name": "CancelPact",
          "type": "event"
        },
        {
          "anonymous": false,
          "inputs": [
            {
              "indexed": false,
              "internalType": "address",
              "name": "account",
              "type": "address"
            },
            {
              "indexed": false,
              "internalType": "uint256",
              "name": "amount",
              "type": "uint256"
            }
          ],
          "name": "IncreaseAccountBalance",
          "type": "event"
        },
        {
          "anonymous": false,
          "inputs": [
            {
              "indexed": false,
              "internalType": "uint256",
              "name": "pactId",
              "type": "uint256"
            },
            {
              "indexed": false,
              "internalType": "bool",
              "name": "answer",
              "type": "bool"
            },
            {
              "indexed": false,
              "internalType": "bytes32",
              "name": "salt",
              "type": "bytes32"
            }
          ],
          "name": "InvalidAnswer",
          "type": "event"
        },
        {
          "anonymous": false,
          "inputs": [
            {
              "components": [
                {
                  "internalType": "address",
                  "name": "p1",
                  "type": "address"
                },
                {
                  "internalType": "address",
                  "name": "p2",
                  "type": "address"
                },
                {
                  "internalType": "uint256",
                  "name": "p1Deposit",
                  "type": "uint256"
                },
                {
                  "internalType": "uint256",
                  "name": "p2Deposit",
                  "type": "uint256"
                },
                {
                  "components": [
                    {
                      "internalType": "uint256",
                      "name": "p1",
                      "type": "uint256"
                    },
                    {
                      "internalType": "uint256",
                      "name": "p2",
                      "type": "uint256"
                    },
                    {
                      "internalType": "uint256",
                      "name": "burn",
                      "type": "uint256"
                    }
                  ],
                  "internalType": "struct PactFact.Payout[4]",
                  "name": "payoutMatrix",
                  "type": "tuple[4]"
                },
                {
                  "internalType": "string",
                  "name": "tags",
                  "type": "string"
                },
                {
                  "internalType": "bytes32",
                  "name": "answer1Hash",
                  "type": "bytes32"
                },
                {
                  "internalType": "bool",
                  "name": "answer2",
                  "type": "bool"
                },
                {
                  "internalType": "uint256",
                  "name": "answer2Block",
                  "type": "uint256"
                },
                {
                  "internalType": "bool",
                  "name": "answer1",
                  "type": "bool"
                },
                {
                  "internalType": "bytes32",
                  "name": "answer1Salt",
                  "type": "bytes32"
                },
                {
                  "internalType": "enum PactFact.PactState",
                  "name": "state",
                  "type": "uint8"
                }
              ],
              "indexed": false,
              "internalType": "struct PactFact.Pact",
              "name": "pact",
              "type": "tuple"
            }
          ],
          "name": "ProposePact",
          "type": "event"
        },
        {
          "anonymous": false,
          "inputs": [
            {
              "indexed": false,
              "internalType": "address",
              "name": "from",
              "type": "address"
            },
            {
              "indexed": false,
              "internalType": "uint256",
              "name": "amount",
              "type": "uint256"
            }
          ],
          "name": "ReceiveEther",
          "type": "event"
        },
        {
          "anonymous": false,
          "inputs": [
            {
              "indexed": false,
              "internalType": "uint256",
              "name": "pactId",
              "type": "uint256"
            },
            {
              "indexed": false,
              "internalType": "bool",
              "name": "answer",
              "type": "bool"
            },
            {
              "indexed": false,
              "internalType": "bytes32",
              "name": "salt",
              "type": "bytes32"
            },
            {
              "indexed": false,
              "internalType": "enum PactFact.PactState",
              "name": "state",
              "type": "uint8"
            }
          ],
          "name": "ResolveValidPact",
          "type": "event"
        },
        {
          "anonymous": false,
          "inputs": [
            {
              "indexed": false,
              "internalType": "uint256",
              "name": "pactId",
              "type": "uint256"
            },
            {
              "indexed": false,
              "internalType": "enum PactFact.PactState",
              "name": "state",
              "type": "uint8"
            }
          ],
          "name": "SealPact",
          "type": "event"
        },
        {
          "anonymous": false,
          "inputs": [
            {
              "indexed": false,
              "internalType": "uint256",
              "name": "pactId",
              "type": "uint256"
            },
            {
              "indexed": false,
              "internalType": "bytes32",
              "name": "answerHash",
              "type": "bytes32"
            },
            {
              "indexed": false,
              "internalType": "enum PactFact.PactState",
              "name": "state",
              "type": "uint8"
            }
          ],
          "name": "SubmitAnswer1Hash",
          "type": "event"
        },
        {
          "anonymous": false,
          "inputs": [
            {
              "indexed": false,
              "internalType": "uint256",
              "name": "pactId",
              "type": "uint256"
            },
            {
              "indexed": false,
              "internalType": "bool",
              "name": "answer",
              "type": "bool"
            },
            {
              "indexed": false,
              "internalType": "uint256",
              "name": "block",
              "type": "uint256"
            },
            {
              "indexed": false,
              "internalType": "enum PactFact.PactState",
              "name": "state",
              "type": "uint8"
            }
          ],
          "name": "SubmitAnswer2",
          "type": "event"
        },
        {
          "anonymous": false,
          "inputs": [
            {
              "indexed": false,
              "internalType": "uint256",
              "name": "pactId",
              "type": "uint256"
            },
            {
              "indexed": false,
              "internalType": "enum PactFact.PactState",
              "name": "state",
              "type": "uint8"
            }
          ],
          "name": "TimeoutPact",
          "type": "event"
        },
        {
          "anonymous": false,
          "inputs": [
            {
              "indexed": false,
              "internalType": "address",
              "name": "to",
              "type": "address"
            },
            {
              "indexed": false,
              "internalType": "uint256",
              "name": "amount",
              "type": "uint256"
            }
          ],
          "name": "WithdrawEther",
          "type": "event"
        },
        {
          "inputs": [],
          "name": "TIMEOUT",
          "outputs": [
            {
              "internalType": "uint256",
              "name": "",
              "type": "uint256"
            }
          ],
          "stateMutability": "view",
          "type": "function"
        },
        {
          "inputs": [
            {
              "internalType": "address",
              "name": "",
              "type": "address"
            }
          ],
          "name": "accountBalances",
          "outputs": [
            {
              "internalType": "uint256",
              "name": "",
              "type": "uint256"
            }
          ],
          "stateMutability": "view",
          "type": "function"
        },
        {
          "inputs": [
            {
              "internalType": "uint256",
              "name": "pactId",
              "type": "uint256"
            }
          ],
          "name": "cancelPact",
          "outputs": [],
          "stateMutability": "nonpayable",
          "type": "function"
        },
        {
          "inputs": [
            {
              "internalType": "bool",
              "name": "answer",
              "type": "bool"
            },
            {
              "internalType": "bytes32",
              "name": "salt",
              "type": "bytes32"
            }
          ],
          "name": "hashAnswer",
          "outputs": [
            {
              "internalType": "bytes32",
              "name": "",
              "type": "bytes32"
            }
          ],
          "stateMutability": "pure",
          "type": "function"
        },
        {
          "inputs": [],
          "name": "pactCount",
          "outputs": [
            {
              "internalType": "uint256",
              "name": "",
              "type": "uint256"
            }
          ],
          "stateMutability": "view",
          "type": "function"
        },
        {
          "inputs": [
            {
              "internalType": "address",
              "name": "p2",
              "type": "address"
            },
            {
              "internalType": "uint256",
              "name": "p1Deposit",
              "type": "uint256"
            },
            {
              "internalType": "uint256",
              "name": "p2Deposit",
              "type": "uint256"
            },
            {
              "components": [
                {
                  "internalType": "uint256",
                  "name": "p1",
                  "type": "uint256"
                },
                {
                  "internalType": "uint256",
                  "name": "p2",
                  "type": "uint256"
                },
                {
                  "internalType": "uint256",
                  "name": "burn",
                  "type": "uint256"
                }
              ],
              "internalType": "struct PactFact.Payout",
              "name": "payoutYY",
              "type": "tuple"
            },
            {
              "components": [
                {
                  "internalType": "uint256",
                  "name": "p1",
                  "type": "uint256"
                },
                {
                  "internalType": "uint256",
                  "name": "p2",
                  "type": "uint256"
                },
                {
                  "internalType": "uint256",
                  "name": "burn",
                  "type": "uint256"
                }
              ],
              "internalType": "struct PactFact.Payout",
              "name": "payoutYN",
              "type": "tuple"
            },
            {
              "components": [
                {
                  "internalType": "uint256",
                  "name": "p1",
                  "type": "uint256"
                },
                {
                  "internalType": "uint256",
                  "name": "p2",
                  "type": "uint256"
                },
                {
                  "internalType": "uint256",
                  "name": "burn",
                  "type": "uint256"
                }
              ],
              "internalType": "struct PactFact.Payout",
              "name": "payoutNY",
              "type": "tuple"
            },
            {
              "components": [
                {
                  "internalType": "uint256",
                  "name": "p1",
                  "type": "uint256"
                },
                {
                  "internalType": "uint256",
                  "name": "p2",
                  "type": "uint256"
                },
                {
                  "internalType": "uint256",
                  "name": "burn",
                  "type": "uint256"
                }
              ],
              "internalType": "struct PactFact.Payout",
              "name": "payoutNN",
              "type": "tuple"
            },
            {
              "internalType": "string",
              "name": "tags",
              "type": "string"
            }
          ],
          "name": "proposePact",
          "outputs": [],
          "stateMutability": "payable",
          "type": "function"
        },
        {
          "inputs": [
            {
              "internalType": "uint256",
              "name": "pactId",
              "type": "uint256"
            }
          ],
          "name": "sealPact",
          "outputs": [],
          "stateMutability": "payable",
          "type": "function"
        },
        {
          "inputs": [
            {
              "internalType": "uint256",
              "name": "pactId",
              "type": "uint256"
            },
            {
              "internalType": "bool",
              "name": "answer",
              "type": "bool"
            },
            {
              "internalType": "bytes32",
              "name": "salt",
              "type": "bytes32"
            }
          ],
          "name": "submitAnswer1",
          "outputs": [],
          "stateMutability": "nonpayable",
          "type": "function"
        },
        {
          "inputs": [
            {
              "internalType": "uint256",
              "name": "pactId",
              "type": "uint256"
            },
            {
              "internalType": "bytes32",
              "name": "answerHash",
              "type": "bytes32"
            }
          ],
          "name": "submitAnswer1Hash",
          "outputs": [],
          "stateMutability": "nonpayable",
          "type": "function"
        },
        {
          "inputs": [
            {
              "internalType": "uint256",
              "name": "pactId",
              "type": "uint256"
            },
            {
              "internalType": "bool",
              "name": "answer",
              "type": "bool"
            }
          ],
          "name": "submitAnswer2",
          "outputs": [],
          "stateMutability": "nonpayable",
          "type": "function"
        },
        {
          "inputs": [
            {
              "internalType": "uint256",
              "name": "pactId",
              "type": "uint256"
            }
          ],
          "name": "timeOutPact",
          "outputs": [],
          "stateMutability": "nonpayable",
          "type": "function"
        },
        {
          "inputs": [
            {
              "internalType": "address",
              "name": "to",
              "type": "address"
            }
          ],
          "name": "withdraw",
          "outputs": [],
          "stateMutability": "nonpayable",
          "type": "function"
        },
        {
          "stateMutability": "payable",
          "type": "receive"
        }
      ],
      "evm": {
        "bytecode": {
          "linkReferences": {},
          "object": "60a06040523480156200001157600080fd5b50604051620036083803806200360883398181016040528101906200003791906200006d565b62015180816200004891906200009f565b608081815250505062000158565b60008151905062000067816200013e565b92915050565b60006020828403121562000086576200008562000139565b5b6000620000968482850162000056565b91505092915050565b6000620000ac8262000100565b9150620000b98362000100565b9250817fffffffffffffffffffffffffffffffffffffffffffffffffffffffffffffffff0483118215151615620000f557620000f46200010a565b5b828202905092915050565b6000819050919050565b7f4e487b7100000000000000000000000000000000000000000000000000000000600052601160045260246000fd5b600080fd5b620001498162000100565b81146200015557600080fd5b50565b60805161348d6200017b600039600081816107ce0152611249015261348d6000f3fe6080604052600436106100ab5760003560e01c80637e4820d8116100645780637e4820d8146101ed578063847a9e0b1461022a578063a3a8682714610246578063e2868e7a1461026f578063f10fb3da14610298578063f56f48f2146102c3576100eb565b80630a2f86da146100f05780631f497479146101195780632c8582fb146101355780632d451d0f1461015e57806351cff8d9146101875780636ff96d17146101b0576100eb565b366100eb577ff32a9f77675fd5917534c7746608fd3e309eac68fbdcbf5925e24ca97a70439633346040516100e1929190612508565b60405180910390a1005b600080fd5b3480156100fc57600080fd5b5061011760048036038101906101129190611dc5565b6102ee565b005b610133600480360381019061012e9190611d98565b6104c9565b005b34801561014157600080fd5b5061015c60048036038101906101579190611d98565b6106ab565b005b34801561016a57600080fd5b5061018560048036038101906101809190611e58565b6108c2565b005b34801561019357600080fd5b506101ae60048036038101906101a99190611c52565b610a6e565b005b3480156101bc57600080fd5b506101d760048036038101906101d29190611c52565b610b79565b6040516101e491906127ee565b60405180910390f35b3480156101f957600080fd5b50610214600480360381019061020f9190611d58565b610b91565b6040516102219190612531565b60405180910390f35b610244600480360381019061023f9190611c7f565b610bc4565b005b34801561025257600080fd5b5061026d60048036038101906102689190611d98565b610e1e565b005b34801561027b57600080fd5b5061029660048036038101906102919190611e05565b610fec565b005b3480156102a457600080fd5b506102ad611241565b6040516102ba91906127ee565b60405180910390f35b3480156102cf57600080fd5b506102d8611247565b6040516102e591906127ee565b60405180910390f35b60006002600084815260200190815260200160002090506003600681111561031957610318612c7c565b5b8160160160009054906101000a900460ff16600681111561033d5761033c612c7c565b5b1461037d576040517f08c379a0000000000000000000000000000000000000000000000000000000008152600401610374906126ec565b60405180910390fd5b3373ffffffffffffffffffffffffffffffffffffffff168160010160009054906101000a900473ffffffffffffffffffffffffffffffffffffffff1673ffffffffffffffffffffffffffffffffffffffff161461040f576040517f08c379a00000000000000000000000000000000000000000000000000000000081526004016104069061260c565b60405180910390fd5b818160120160006101000a81548160ff02191690831515021790555043816013018190555060048160160160006101000a81548160ff0219169083600681111561045c5761045b612c7c565b5b02179055507f8c519cdbe21cf251cf06f8f9d7d750b9bbb2e8f2f38c0936bc7ace41db406522838260120160009054906101000a900460ff1683601301548460160160009054906101000a900460ff166040516104bc9493929190612885565b60405180910390a1505050565b6000600260008381526020019081526020016000209050600060068111156104f4576104f3612c7c565b5b8160160160009054906101000a900460ff16600681111561051857610517612c7c565b5b14610558576040517f08c379a000000000000000000000000000000000000000000000000000000000815260040161054f906126cc565b60405180910390fd5b3373ffffffffffffffffffffffffffffffffffffffff168160010160009054906101000a900473ffffffffffffffffffffffffffffffffffffffff1673ffffffffffffffffffffffffffffffffffffffff16146105ea576040517f08c379a00000000000000000000000000000000000000000000000000000000081526004016105e19061266c565b60405180910390fd5b80600301543414610630576040517f08c379a0000000000000000000000000000000000000000000000000000000008152600401610627906125cc565b60405180910390fd5b60028160160160006101000a81548160ff0219169083600681111561065857610657612c7c565b5b02179055507f802dabd127ab1cb2f508c4b573914e7a7c87655ce06722edbbebd42b10f7a596828260160160009054906101000a900460ff1660405161069f929190612901565b60405180910390a15050565b6000600260008381526020019081526020016000209050600460068111156106d6576106d5612c7c565b5b8160160160009054906101000a900460ff1660068111156106fa576106f9612c7c565b5b1461073a576040517f08c379a00000000000000000000000000000000000000000000000000000000081526004016107319061258c565b60405180910390fd5b8060010160009054906101000a900473ffffffffffffffffffffffffffffffffffffffff1673ffffffffffffffffffffffffffffffffffffffff163373ffffffffffffffffffffffffffffffffffffffff16146107cc576040517f08c379a00000000000000000000000000000000000000000000000000000000081526004016107c3906126ac565b60405180910390fd5b7f000000000000000000000000000000000000000000000000000000000000000081601301546107fc919061298e565b43101561083e576040517f08c379a00000000000000000000000000000000000000000000000000000000081526004016108359061254c565b60405180910390fd5b60058160160160006101000a81548160ff0219169083600681111561086657610865612c7c565b5b02179055506108748261126b565b7f1298e8412738ab53eae8076a7ec2c244acc3f16c33ca1bb088fc8ca4fe187e74828260160160009054906101000a900460ff166040516108b6929190612901565b60405180910390a15050565b6000600260008481526020019081526020016000209050600260068111156108ed576108ec612c7c565b5b8160160160009054906101000a900460ff16600681111561091157610910612c7c565b5b14610951576040517f08c379a00000000000000000000000000000000000000000000000000000000081526004016109489061262c565b60405180910390fd5b3373ffffffffffffffffffffffffffffffffffffffff168160000160009054906101000a900473ffffffffffffffffffffffffffffffffffffffff1673ffffffffffffffffffffffffffffffffffffffff16146109e3576040517f08c379a00000000000000000000000000000000000000000000000000000000081526004016109da9061268c565b60405180910390fd5b81816011018190555060038160160160006101000a81548160ff02191690836006811115610a1457610a13612c7c565b5b02179055507f3bd3c4c5c531bcb5e716b2ccc90104e86d8df90828515ab0d4530d02509ea5df8382601101548360160160009054906101000a900460ff16604051610a61939291906128ca565b60405180910390a1505050565b60008060008373ffffffffffffffffffffffffffffffffffffffff1673ffffffffffffffffffffffffffffffffffffffff16815260200190815260200160002054905060008060008473ffffffffffffffffffffffffffffffffffffffff1673ffffffffffffffffffffffffffffffffffffffff168152602001908152602001600020819055508173ffffffffffffffffffffffffffffffffffffffff166108fc829081150290604051600060405180830381858888f19350505050158015610b3b573d6000803e3d6000fd5b507fdb35132c111efe920cede025e819975671cfd1b8fcc1174762c8670c4e94c2118282604051610b6d929190612508565b60405180910390a15050565b60006020528060005260406000206000915090505481565b60008282604051602001610ba69291906124dc565b60405160208183030381529060405280519060200120905092915050565b873414610c06576040517f08c379a0000000000000000000000000000000000000000000000000000000008152600401610bfd9061274c565b60405180910390fd5b610c148888888888886114fe565b600060018054610c24919061298e565b90506000600260008381526020019081526020016000209050338160000160006101000a81548173ffffffffffffffffffffffffffffffffffffffff021916908373ffffffffffffffffffffffffffffffffffffffff1602179055508a8160010160006101000a81548173ffffffffffffffffffffffffffffffffffffffff021916908373ffffffffffffffffffffffffffffffffffffffff1602179055508981600201819055508881600301819055508781600401600060048110610ced57610cec612cda565b5b600302018181610cfd91906133b6565b9050508681600401600160048110610d1857610d17612cda565b5b600302018181610d2891906133b6565b9050508581600401600260048110610d4357610d42612cda565b5b600302018181610d5391906133b6565b9050508481600401600360048110610d6e57610d6d612cda565b5b600302018181610d7e91906133b6565b9050508383826010019190610d94929190611ae6565b5060008160160160006101000a81548160ff02191690836006811115610dbd57610dbc612c7c565b5b021790555060016000815480929190610dd590612bd6565b91905055507fd93c07e6d2930c0b25150e2d51c102a0dc67b32ec91d7582a92c4f6e61ce3a3281604051610e0991906127cc565b60405180910390a15050505050505050505050565b600060026000838152602001908152602001600020905060006006811115610e4957610e48612c7c565b5b8160160160009054906101000a900460ff166006811115610e6d57610e6c612c7c565b5b14610ead576040517f08c379a0000000000000000000000000000000000000000000000000000000008152600401610ea4906125ac565b60405180910390fd5b3373ffffffffffffffffffffffffffffffffffffffff168160000160009054906101000a900473ffffffffffffffffffffffffffffffffffffffff1673ffffffffffffffffffffffffffffffffffffffff1614610f3f576040517f08c379a0000000000000000000000000000000000000000000000000000000008152600401610f369061276c565b60405180910390fd5b60018160160160006101000a81548160ff02191690836006811115610f6757610f66612c7c565b5b0217905550610f9e8160000160009054906101000a900473ffffffffffffffffffffffffffffffffffffffff1682600201546116a7565b7fe43c1de399fa9e7b593892fee78094d0c09bf97c0c52094e46b324b5e96949e0828260160160009054906101000a900460ff16604051610fe0929190612901565b60405180910390a15050565b60006002600085815260200190815260200160002090506004600681111561101757611016612c7c565b5b8160160160009054906101000a900460ff16600681111561103b5761103a612c7c565b5b1461107b576040517f08c379a00000000000000000000000000000000000000000000000000000000081526004016110729061272c565b60405180910390fd5b8060000160009054906101000a900473ffffffffffffffffffffffffffffffffffffffff1673ffffffffffffffffffffffffffffffffffffffff163373ffffffffffffffffffffffffffffffffffffffff161461110d576040517f08c379a00000000000000000000000000000000000000000000000000000000081526004016111049061256c565b60405180910390fd5b828160140160006101000a81548160ff021916908315150217905550818160150181905550600061113e8484610b91565b9050816011015481146111a0577f880b3536f22b8a3305eff5008daa498e1309a219e6013d53622848754710b587858360140160009054906101000a900460ff16846015015460405161119393929190612809565b60405180910390a161123a565b60068260160160006101000a81548160ff021916908360068111156111c8576111c7612c7c565b5b02179055506111d685611739565b7ff29b5a479b9ae259e2be6d0141f4db810dd113de2d329007eccae006b409fe69858360140160009054906101000a900460ff1684601501548560160160009054906101000a900460ff166040516112319493929190612840565b60405180910390a15b5050505050565b60015481565b7f000000000000000000000000000000000000000000000000000000000000000081565b600060026000838152602001908152602001600020604051806101800160405290816000820160009054906101000a900473ffffffffffffffffffffffffffffffffffffffff1673ffffffffffffffffffffffffffffffffffffffff1673ffffffffffffffffffffffffffffffffffffffff1681526020016001820160009054906101000a900473ffffffffffffffffffffffffffffffffffffffff1673ffffffffffffffffffffffffffffffffffffffff1673ffffffffffffffffffffffffffffffffffffffff168152602001600282015481526020016003820154815260200160048201600480602002604051908101604052809291906000905b828210156113ae57838260030201604051806060016040529081600082015481526020016001820154815260200160028201548152505081526020019060010190611368565b5050505081526020016010820180546113c690612b22565b80601f01602080910402602001604051908101604052809291908181526020018280546113f290612b22565b801561143f5780601f106114145761010080835404028352916020019161143f565b820191906000526020600020905b81548152906001019060200180831161142257829003601f168201915b50505050508152602001601182015481526020016012820160009054906101000a900460ff16151515158152602001601382015481526020016014820160009054906101000a900460ff16151515158152602001601582015481526020016016820160009054906101000a900460ff1660068111156114c1576114c0612c7c565b5b60068111156114d3576114d2612c7c565b5b8152505090506114fa8160200151826060015183604001516114f5919061298e565b6116a7565b5050565b6000858761150c919061298e565b9050846040013585602001358660000135611527919061298e565b611531919061298e565b8114611572576040517f08c379a0000000000000000000000000000000000000000000000000000000008152600401611569906127ac565b60405180910390fd5b83604001358460200135856000013561158b919061298e565b611595919061298e565b81146115d6576040517f08c379a00000000000000000000000000000000000000000000000000000000081526004016115cd9061270c565b60405180910390fd5b8260400135836020013584600001356115ef919061298e565b6115f9919061298e565b811461163a576040517f08c379a00000000000000000000000000000000000000000000000000000000081526004016116319061264c565b60405180910390fd5b816040013582602001358360000135611653919061298e565b61165d919061298e565b811461169e576040517f08c379a0000000000000000000000000000000000000000000000000000000008152600401611695906125ec565b60405180910390fd5b50505050505050565b806000808473ffffffffffffffffffffffffffffffffffffffff1673ffffffffffffffffffffffffffffffffffffffff16815260200190815260200160002060008282546116f5919061298e565b925050819055507ffb7dc1a1f27a348f858cd8c345b43cbbe6cc5f96a89e5a6133c8c134c1cf9c01828260405161172d929190612508565b60405180910390a15050565b600060026000838152602001908152602001600020604051806101800160405290816000820160009054906101000a900473ffffffffffffffffffffffffffffffffffffffff1673ffffffffffffffffffffffffffffffffffffffff1673ffffffffffffffffffffffffffffffffffffffff1681526020016001820160009054906101000a900473ffffffffffffffffffffffffffffffffffffffff1673ffffffffffffffffffffffffffffffffffffffff1673ffffffffffffffffffffffffffffffffffffffff168152602001600282015481526020016003820154815260200160048201600480602002604051908101604052809291906000905b8282101561187c57838260030201604051806060016040529081600082015481526020016001820154815260200160028201548152505081526020019060010190611836565b50505050815260200160108201805461189490612b22565b80601f01602080910402602001604051908101604052809291908181526020018280546118c090612b22565b801561190d5780601f106118e25761010080835404028352916020019161190d565b820191906000526020600020905b8154815290600101906020018083116118f057829003601f168201915b50505050508152602001601182015481526020016012820160009054906101000a900460ff16151515158152602001601382015481526020016014820160009054906101000a900460ff16151515158152602001601582015481526020016016820160009054906101000a900460ff16600681111561198f5761198e612c7c565b5b60068111156119a1576119a0612c7c565b5b81525050905060006119bc8261012001518360e00151611a0b565b9050600082608001518260ff16600481106119da576119d9612cda565b5b602002015190506119f3836000015182600001516116a7565b611a05836020015182602001516116a7565b50505050565b600060011515831515148015611a25575060011515821515145b15611a335760009050611ae0565b60011515831515148015611a4b575060001515821515145b15611a595760019050611ae0565b60001515831515148015611a71575060011515821515145b15611a7f5760029050611ae0565b60001515831515148015611a97575060001515821515145b15611aa55760039050611ae0565b6040517f08c379a0000000000000000000000000000000000000000000000000000000008152600401611ad79061278c565b60405180910390fd5b92915050565b828054611af290612b22565b90600052602060002090601f016020900481019282611b145760008555611b5b565b82601f10611b2d57803560ff1916838001178555611b5b565b82800160010185558215611b5b579182015b82811115611b5a578235825591602001919060010190611b3f565b5b509050611b689190611b6c565b5090565b5b80821115611b85576000816000905550600101611b6d565b5090565b600081359050611b98816133fb565b92915050565b600081359050611bad81613412565b92915050565b600081359050611bc281613429565b92915050565b60008083601f840112611bde57611bdd612d2e565b5b8235905067ffffffffffffffff811115611bfb57611bfa612d29565b5b602083019150836001820283011115611c1757611c16612d38565b5b9250929050565b600060608284031215611c3457611c33612d33565b5b81905092915050565b600081359050611c4c81613440565b92915050565b600060208284031215611c6857611c67612d42565b5b6000611c7684828501611b89565b91505092915050565b60008060008060008060008060006102008a8c031215611ca257611ca1612d42565b5b6000611cb08c828d01611b89565b9950506020611cc18c828d01611c3d565b9850506040611cd28c828d01611c3d565b9750506060611ce38c828d01611c1e565b96505060c0611cf48c828d01611c1e565b955050610120611d068c828d01611c1e565b945050610180611d188c828d01611c1e565b9350506101e08a013567ffffffffffffffff811115611d3a57611d39612d3d565b5b611d468c828d01611bc8565b92509250509295985092959850929598565b60008060408385031215611d6f57611d6e612d42565b5b6000611d7d85828601611b9e565b9250506020611d8e85828601611bb3565b9150509250929050565b600060208284031215611dae57611dad612d42565b5b6000611dbc84828501611c3d565b91505092915050565b60008060408385031215611ddc57611ddb612d42565b5b6000611dea85828601611c3d565b9250506020611dfb85828601611b9e565b9150509250929050565b600080600060608486031215611e1e57611e1d612d42565b5b6000611e2c86828701611c3d565b9350506020611e3d86828701611b9e565b9250506040611e4e86828701611bb3565b9150509250925092565b60008060408385031215611e6f57611e6e612d42565b5b6000611e7d85828601611c3d565b9250506020611e8e85828601611bb3565b9150509250929050565b6000611ea48383612459565b60608301905092915050565b611eb981612a32565b82525050565b611ec881612a32565b82525050565b611ed781612949565b611ee18184612961565b9250611eec8261292a565b8060005b83811015611f1c5781611f038782611e98565b9650611f0e83612954565b925050600181019050611ef0565b505050505050565b611f2d81612a44565b82525050565b611f3c81612a44565b82525050565b611f53611f4e82612a44565b612c1f565b82525050565b611f6281612a50565b82525050565b611f7181612a50565b82525050565b611f88611f8382612a50565b612c31565b82525050565b611f9781612a97565b82525050565b611fa681612a97565b82525050565b60008154611fb981612b22565b611fc3818661296c565b94506001821660008114611fde5760018114611ff057612023565b60ff1983168652602086019350612023565b611ff985612934565b60005b8381101561201b57815481890152600182019150602081019050611ffc565b808801955050505b50505092915050565b6000612039604d8361297d565b915061204482612d6e565b606082019050919050565b600061205c602e8361297d565b915061206782612de3565b604082019050919050565b600061207f602f8361297d565b915061208a82612e32565b604082019050919050565b60006120a260228361297d565b91506120ad82612e81565b604082019050919050565b60006120c560358361297d565b91506120d082612ed0565b604082019050919050565b60006120e8602d8361297d565b91506120f382612f1f565b604082019050919050565b600061210b602e8361297d565b915061211682612f6e565b604082019050919050565b600061212e60278361297d565b915061213982612fbd565b604082019050919050565b6000612151602d8361297d565b915061215c8261300c565b604082019050919050565b600061217460298361297d565b915061217f8261305b565b604082019050919050565b600061219760328361297d565b91506121a2826130aa565b604082019050919050565b60006121ba602c8361297d565b91506121c5826130f9565b604082019050919050565b60006121dd60208361297d565b91506121e882613148565b602082019050919050565b600061220060368361297d565b915061220b82613171565b604082019050919050565b6000612223602d8361297d565b915061222e826131c0565b604082019050919050565b600061224660318361297d565b91506122518261320f565b604082019050919050565b6000612269602b8361297d565b91506122748261325e565b604082019050919050565b600061228c602b8361297d565b9150612297826132ad565b604082019050919050565b60006122af601c8361297d565b91506122ba826132fc565b602082019050919050565b60006122d2602d8361297d565b91506122dd82613325565b604082019050919050565b60006102e08301600080840154905061230081612b54565b61230d6000870182611eb0565b506001840154905061231e81612b54565b61232b6020870182611eb0565b506002840154905061233c81612bbc565b61234960408701826124be565b506003840154905061235a81612bbc565b61236760608701826124be565b50600484016123796080870182611ece565b50601084018583036102008701526123918382611fac565b925050601184015490506123a481612b88565b6123b2610220870182611f59565b50601284015490506123c381612b6e565b6123d1610240870182611f24565b50601384015490506123e281612bbc565b6123f06102608701826124be565b506014840154905061240181612b6e565b61240f610280870182611f24565b506015840154905061242081612b88565b61242e6102a0870182611f59565b506016840154905061243f81612ba2565b61244d6102c0870182611f8e565b50819250505092915050565b60608201600080830154905061246e81612bbc565b61247b60008601826124be565b506001830154905061248c81612bbc565b61249960208601826124be565b50600283015490506124aa81612bbc565b6124b760408601826124be565b5050505050565b6124c781612a8d565b82525050565b6124d681612a8d565b82525050565b60006124e88285611f42565b6001820191506124f88284611f77565b6020820191508190509392505050565b600060408201905061251d6000830185611ebf565b61252a60208301846124cd565b9392505050565b60006020820190506125466000830184611f68565b92915050565b600060208201905081810360008301526125658161202c565b9050919050565b600060208201905081810360008301526125858161204f565b9050919050565b600060208201905081810360008301526125a581612072565b9050919050565b600060208201905081810360008301526125c581612095565b9050919050565b600060208201905081810360008301526125e5816120b8565b9050919050565b60006020820190508181036000830152612605816120db565b9050919050565b60006020820190508181036000830152612625816120fe565b9050919050565b6000602082019050818103600083015261264581612121565b9050919050565b6000602082019050818103600083015261266581612144565b9050919050565b6000602082019050818103600083015261268581612167565b9050919050565b600060208201905081810360008301526126a58161218a565b9050919050565b600060208201905081810360008301526126c5816121ad565b9050919050565b600060208201905081810360008301526126e5816121d0565b9050919050565b60006020820190508181036000830152612705816121f3565b9050919050565b6000602082019050818103600083015261272581612216565b9050919050565b6000602082019050818103600083015261274581612239565b9050919050565b600060208201905081810360008301526127658161225c565b9050919050565b600060208201905081810360008301526127858161227f565b9050919050565b600060208201905081810360008301526127a5816122a2565b9050919050565b600060208201905081810360008301526127c5816122c5565b9050919050565b600060208201905081810360008301526127e681846122e8565b905092915050565b600060208201905061280360008301846124cd565b92915050565b600060608201905061281e60008301866124cd565b61282b6020830185611f33565b6128386040830184611f68565b949350505050565b600060808201905061285560008301876124cd565b6128626020830186611f33565b61286f6040830185611f68565b61287c6060830184611f9d565b95945050505050565b600060808201905061289a60008301876124cd565b6128a76020830186611f33565b6128b460408301856124cd565b6128c16060830184611f9d565b95945050505050565b60006060820190506128df60008301866124cd565b6128ec6020830185611f68565b6128f96040830184611f9d565b949350505050565b600060408201905061291660008301856124cd565b6129236020830184611f9d565b9392505050565b6000819050919050565b60008190508160005260206000209050919050565b600060049050919050565b6000600382019050919050565b600081905092915050565b600082825260208201905092915050565b600082825260208201905092915050565b600061299982612a8d565b91506129a483612a8d565b9250827fffffffffffffffffffffffffffffffffffffffffffffffffffffffffffffffff038211156129d9576129d8612c4d565b5b828201905092915050565b600073ffffffffffffffffffffffffffffffffffffffff82169050919050565b600060ff82169050919050565b6000819050919050565b600060ff82169050919050565b6000819050919050565b6000612a3d82612a6d565b9050919050565b60008115159050919050565b6000819050919050565b6000819050612a68826133e7565b919050565b600073ffffffffffffffffffffffffffffffffffffffff82169050919050565b6000819050919050565b6000612aa282612a5a565b9050919050565b6000612ab482612a8d565b9050919050565b600081016000830180612acd81612d13565b9050612ad981846133c4565b505050600181016020830180612aee81612d13565b9050612afa81846133c4565b505050600281016040830180612b0f81612d13565b9050612b1b81846133c4565b5050505050565b60006002820490506001821680612b3a57607f821691505b60208210811415612b4e57612b4d612cab565b5b50919050565b6000612b67612b6283612d61565b6129e4565b9050919050565b6000612b81612b7c83612d61565b612a04565b9050919050565b6000612b9b612b9683612d61565b612a11565b9050919050565b6000612bb5612bb083612d61565b612a1b565b9050919050565b6000612bcf612bca83612d61565b612a28565b9050919050565b6000612be182612a8d565b91507fffffffffffffffffffffffffffffffffffffffffffffffffffffffffffffffff821415612c1457612c13612c4d565b5b600182019050919050565b6000612c2a82612c3b565b9050919050565b6000819050919050565b6000612c4682612d54565b9050919050565b7f4e487b7100000000000000000000000000000000000000000000000000000000600052601160045260246000fd5b7f4e487b7100000000000000000000000000000000000000000000000000000000600052602160045260246000fd5b7f4e487b7100000000000000000000000000000000000000000000000000000000600052602260045260246000fd5b7f4e487b7100000000000000000000000000000000000000000000000000000000600052603260045260246000fd5b6000819050919050565b60008135612d2081613440565b80915050919050565b600080fd5b600080fd5b600080fd5b600080fd5b600080fd5b600080fd5b60008160001b9050919050565b60008160f81b9050919050565b60008160001c9050919050565b7f74696d656f7574506163743a20426c6f636b206d75737420626520677265617460008201527f6572207468616e206f7220657175616c20746f20616e73776572203220626c6f60208201527f636b202b2074696d656f75742e00000000000000000000000000000000000000604082015250565b7f7375626d6974416e73776572313a204d6573736167652073656e646572206d7560008201527f737420626520706172747920312e000000000000000000000000000000000000602082015250565b7f74696d656f7574506163743a2050616374206d757374206861766520616e737760008201527f65722032207375626d69747465642e0000000000000000000000000000000000602082015250565b7f63616e63656c506163743a2050616374206d7573742062652070726f706f736560008201527f642e000000000000000000000000000000000000000000000000000000000000602082015250565b7f7365616c506163743a204d6573736167652076616c7565206e6f74206571756160008201527f6c20746f2070617274792032206465706f7369742e0000000000000000000000602082015250565b7f4465706f73697420746f74616c20646f6573206e6f7420657175616c204e4e2060008201527f7061796f757420746f74616c2e00000000000000000000000000000000000000602082015250565b7f7375626d6974416e73776572323a204d6573736167652073656e646572206d7560008201527f737420626520706172747920322e000000000000000000000000000000000000602082015250565b7f7375626d6974416e7377657231486173683a2050616374206d7573742062652060008201527f7365616c65642e00000000000000000000000000000000000000000000000000602082015250565b7f4465706f73697420746f74616c20646f6573206e6f7420657175616c204e592060008201527f7061796f757420746f74616c2e00000000000000000000000000000000000000602082015250565b7f7365616c506163743a204d6573736167652073656e646572206d75737420626560008201527f20706172747920322e0000000000000000000000000000000000000000000000602082015250565b7f7375626d6974416e7377657231486173683a204d6573736167652073656e646560008201527f72206d75737420626520706172747920312e0000000000000000000000000000602082015250565b7f74696d656f7574506163743a204d6573736167652073656e646572206d75737460008201527f20626520706172747920322e0000000000000000000000000000000000000000602082015250565b7f7365616c506163743a2050616374206d7573742062652070726f706f7365642e600082015250565b7f7375626d6974416e73776572323a2050616374206d757374206861766520616e60008201527f7377657220312068617368207375626d69747465642e00000000000000000000602082015250565b7f4465706f73697420746f74616c20646f6573206e6f7420657175616c20594e2060008201527f7061796f757420746f74616c2e00000000000000000000000000000000000000602082015250565b7f7375626d6974416e73776572313a2050616374206d757374206861766520616e60008201527f737765722032207375626d69747465642e000000000000000000000000000000602082015250565b7f4d6573736167652076616c7565206e6f7420657175616c20746f20706172747960008201527f2031206465706f7369742e000000000000000000000000000000000000000000602082015250565b7f63616e63656c506163743a204d6573736167652073656e646572206d7573742060008201527f626520706172747920312e000000000000000000000000000000000000000000602082015250565b7f4661696c656420746f2066696e64207061796f757420696e6465782e00000000600082015250565b7f4465706f73697420746f74616c20646f6573206e6f7420657175616c2059592060008201527f7061796f757420746f74616c2e00000000000000000000000000000000000000602082015250565b60007fffffffffffffffffffffffffffffffffffffffffffffffffffffffffffffffff6133a084612d47565b9350801983169250808416831791505092915050565b6133c08282612abb565b5050565b6133cd82612aa9565b6133e06133d982612d09565b8354613374565b8255505050565b600781106133f8576133f7612c7c565b5b50565b61340481612a32565b811461340f57600080fd5b50565b61341b81612a44565b811461342657600080fd5b50565b61343281612a50565b811461343d57600080fd5b50565b61344981612a8d565b811461345457600080fd5b5056fea26469706673582212204121c6d548d67f28986be7b941b6d2ae90140fe3ebc12c58c07a67a7abebff4364736f6c63430008050033",
          "opcodes": "PUSH1 0xA0 PUSH1 0x40 MSTORE CALLVALUE DUP1 ISZERO PUSH3 0x11 JUMPI PUSH1 0x0 DUP1 REVERT JUMPDEST POP PUSH1 0x40 MLOAD PUSH3 0x3608 CODESIZE SUB DUP1 PUSH3 0x3608 DUP4 CODECOPY DUP2 DUP2 ADD PUSH1 0x40 MSTORE DUP2 ADD SWAP1 PUSH3 0x37 SWAP2 SWAP1 PUSH3 0x6D JUMP JUMPDEST PUSH3 0x15180 DUP2 PUSH3 0x48 SWAP2 SWAP1 PUSH3 0x9F JUMP JUMPDEST PUSH1 0x80 DUP2 DUP2 MSTORE POP POP POP PUSH3 0x158 JUMP JUMPDEST PUSH1 0x0 DUP2 MLOAD SWAP1 POP PUSH3 0x67 DUP2 PUSH3 0x13E JUMP JUMPDEST SWAP3 SWAP2 POP POP JUMP JUMPDEST PUSH1 0x0 PUSH1 0x20 DUP3 DUP5 SUB SLT ISZERO PUSH3 0x86 JUMPI PUSH3 0x85 PUSH3 0x139 JUMP JUMPDEST JUMPDEST PUSH1 0x0 PUSH3 0x96 DUP5 DUP3 DUP6 ADD PUSH3 0x56 JUMP JUMPDEST SWAP2 POP POP SWAP3 SWAP2 POP POP JUMP JUMPDEST PUSH1 0x0 PUSH3 0xAC DUP3 PUSH3 0x100 JUMP JUMPDEST SWAP2 POP PUSH3 0xB9 DUP4 PUSH3 0x100 JUMP JUMPDEST SWAP3 POP DUP2 PUSH32 0xFFFFFFFFFFFFFFFFFFFFFFFFFFFFFFFFFFFFFFFFFFFFFFFFFFFFFFFFFFFFFFFF DIV DUP4 GT DUP3 ISZERO ISZERO AND ISZERO PUSH3 0xF5 JUMPI PUSH3 0xF4 PUSH3 0x10A JUMP JUMPDEST JUMPDEST DUP3 DUP3 MUL SWAP1 POP SWAP3 SWAP2 POP POP JUMP JUMPDEST PUSH1 0x0 DUP2 SWAP1 POP SWAP2 SWAP1 POP JUMP JUMPDEST PUSH32 0x4E487B7100000000000000000000000000000000000000000000000000000000 PUSH1 0x0 MSTORE PUSH1 0x11 PUSH1 0x4 MSTORE PUSH1 0x24 PUSH1 0x0 REVERT JUMPDEST PUSH1 0x0 DUP1 REVERT JUMPDEST PUSH3 0x149 DUP2 PUSH3 0x100 JUMP JUMPDEST DUP2 EQ PUSH3 0x155 JUMPI PUSH1 0x0 DUP1 REVERT JUMPDEST POP JUMP JUMPDEST PUSH1 0x80 MLOAD PUSH2 0x348D PUSH3 0x17B PUSH1 0x0 CODECOPY PUSH1 0x0 DUP2 DUP2 PUSH2 0x7CE ADD MSTORE PUSH2 0x1249 ADD MSTORE PUSH2 0x348D PUSH1 0x0 RETURN INVALID PUSH1 0x80 PUSH1 0x40 MSTORE PUSH1 0x4 CALLDATASIZE LT PUSH2 0xAB JUMPI PUSH1 0x0 CALLDATALOAD PUSH1 0xE0 SHR DUP1 PUSH4 0x7E4820D8 GT PUSH2 0x64 JUMPI DUP1 PUSH4 0x7E4820D8 EQ PUSH2 0x1ED JUMPI DUP1 PUSH4 0x847A9E0B EQ PUSH2 0x22A JUMPI DUP1 PUSH4 0xA3A86827 EQ PUSH2 0x246 JUMPI DUP1 PUSH4 0xE2868E7A EQ PUSH2 0x26F JUMPI DUP1 PUSH4 0xF10FB3DA EQ PUSH2 0x298 JUMPI DUP1 PUSH4 0xF56F48F2 EQ PUSH2 0x2C3 JUMPI PUSH2 0xEB JUMP JUMPDEST DUP1 PUSH4 0xA2F86DA EQ PUSH2 0xF0 JUMPI DUP1 PUSH4 0x1F497479 EQ PUSH2 0x119 JUMPI DUP1 PUSH4 0x2C8582FB EQ PUSH2 0x135 JUMPI DUP1 PUSH4 0x2D451D0F EQ PUSH2 0x15E JUMPI DUP1 PUSH4 0x51CFF8D9 EQ PUSH2 0x187 JUMPI DUP1 PUSH4 0x6FF96D17 EQ PUSH2 0x1B0 JUMPI PUSH2 0xEB JUMP JUMPDEST CALLDATASIZE PUSH2 0xEB JUMPI PUSH32 0xF32A9F77675FD5917534C7746608FD3E309EAC68FBDCBF5925E24CA97A704396 CALLER CALLVALUE PUSH1 0x40 MLOAD PUSH2 0xE1 SWAP3 SWAP2 SWAP1 PUSH2 0x2508 JUMP JUMPDEST PUSH1 0x40 MLOAD DUP1 SWAP2 SUB SWAP1 LOG1 STOP JUMPDEST PUSH1 0x0 DUP1 REVERT JUMPDEST CALLVALUE DUP1 ISZERO PUSH2 0xFC JUMPI PUSH1 0x0 DUP1 REVERT JUMPDEST POP PUSH2 0x117 PUSH1 0x4 DUP1 CALLDATASIZE SUB DUP2 ADD SWAP1 PUSH2 0x112 SWAP2 SWAP1 PUSH2 0x1DC5 JUMP JUMPDEST PUSH2 0x2EE JUMP JUMPDEST STOP JUMPDEST PUSH2 0x133 PUSH1 0x4 DUP1 CALLDATASIZE SUB DUP2 ADD SWAP1 PUSH2 0x12E SWAP2 SWAP1 PUSH2 0x1D98 JUMP JUMPDEST PUSH2 0x4C9 JUMP JUMPDEST STOP JUMPDEST CALLVALUE DUP1 ISZERO PUSH2 0x141 JUMPI PUSH1 0x0 DUP1 REVERT JUMPDEST POP PUSH2 0x15C PUSH1 0x4 DUP1 CALLDATASIZE SUB DUP2 ADD SWAP1 PUSH2 0x157 SWAP2 SWAP1 PUSH2 0x1D98 JUMP JUMPDEST PUSH2 0x6AB JUMP JUMPDEST STOP JUMPDEST CALLVALUE DUP1 ISZERO PUSH2 0x16A JUMPI PUSH1 0x0 DUP1 REVERT JUMPDEST POP PUSH2 0x185 PUSH1 0x4 DUP1 CALLDATASIZE SUB DUP2 ADD SWAP1 PUSH2 0x180 SWAP2 SWAP1 PUSH2 0x1E58 JUMP JUMPDEST PUSH2 0x8C2 JUMP JUMPDEST STOP JUMPDEST CALLVALUE DUP1 ISZERO PUSH2 0x193 JUMPI PUSH1 0x0 DUP1 REVERT JUMPDEST POP PUSH2 0x1AE PUSH1 0x4 DUP1 CALLDATASIZE SUB DUP2 ADD SWAP1 PUSH2 0x1A9 SWAP2 SWAP1 PUSH2 0x1C52 JUMP JUMPDEST PUSH2 0xA6E JUMP JUMPDEST STOP JUMPDEST CALLVALUE DUP1 ISZERO PUSH2 0x1BC JUMPI PUSH1 0x0 DUP1 REVERT JUMPDEST POP PUSH2 0x1D7 PUSH1 0x4 DUP1 CALLDATASIZE SUB DUP2 ADD SWAP1 PUSH2 0x1D2 SWAP2 SWAP1 PUSH2 0x1C52 JUMP JUMPDEST PUSH2 0xB79 JUMP JUMPDEST PUSH1 0x40 MLOAD PUSH2 0x1E4 SWAP2 SWAP1 PUSH2 0x27EE JUMP JUMPDEST PUSH1 0x40 MLOAD DUP1 SWAP2 SUB SWAP1 RETURN JUMPDEST CALLVALUE DUP1 ISZERO PUSH2 0x1F9 JUMPI PUSH1 0x0 DUP1 REVERT JUMPDEST POP PUSH2 0x214 PUSH1 0x4 DUP1 CALLDATASIZE SUB DUP2 ADD SWAP1 PUSH2 0x20F SWAP2 SWAP1 PUSH2 0x1D58 JUMP JUMPDEST PUSH2 0xB91 JUMP JUMPDEST PUSH1 0x40 MLOAD PUSH2 0x221 SWAP2 SWAP1 PUSH2 0x2531 JUMP JUMPDEST PUSH1 0x40 MLOAD DUP1 SWAP2 SUB SWAP1 RETURN JUMPDEST PUSH2 0x244 PUSH1 0x4 DUP1 CALLDATASIZE SUB DUP2 ADD SWAP1 PUSH2 0x23F SWAP2 SWAP1 PUSH2 0x1C7F JUMP JUMPDEST PUSH2 0xBC4 JUMP JUMPDEST STOP JUMPDEST CALLVALUE DUP1 ISZERO PUSH2 0x252 JUMPI PUSH1 0x0 DUP1 REVERT JUMPDEST POP PUSH2 0x26D PUSH1 0x4 DUP1 CALLDATASIZE SUB DUP2 ADD SWAP1 PUSH2 0x268 SWAP2 SWAP1 PUSH2 0x1D98 JUMP JUMPDEST PUSH2 0xE1E JUMP JUMPDEST STOP JUMPDEST CALLVALUE DUP1 ISZERO PUSH2 0x27B JUMPI PUSH1 0x0 DUP1 REVERT JUMPDEST POP PUSH2 0x296 PUSH1 0x4 DUP1 CALLDATASIZE SUB DUP2 ADD SWAP1 PUSH2 0x291 SWAP2 SWAP1 PUSH2 0x1E05 JUMP JUMPDEST PUSH2 0xFEC JUMP JUMPDEST STOP JUMPDEST CALLVALUE DUP1 ISZERO PUSH2 0x2A4 JUMPI PUSH1 0x0 DUP1 REVERT JUMPDEST POP PUSH2 0x2AD PUSH2 0x1241 JUMP JUMPDEST PUSH1 0x40 MLOAD PUSH2 0x2BA SWAP2 SWAP1 PUSH2 0x27EE JUMP JUMPDEST PUSH1 0x40 MLOAD DUP1 SWAP2 SUB SWAP1 RETURN JUMPDEST CALLVALUE DUP1 ISZERO PUSH2 0x2CF JUMPI PUSH1 0x0 DUP1 REVERT JUMPDEST POP PUSH2 0x2D8 PUSH2 0x1247 JUMP JUMPDEST PUSH1 0x40 MLOAD PUSH2 0x2E5 SWAP2 SWAP1 PUSH2 0x27EE JUMP JUMPDEST PUSH1 0x40 MLOAD DUP1 SWAP2 SUB SWAP1 RETURN JUMPDEST PUSH1 0x0 PUSH1 0x2 PUSH1 0x0 DUP5 DUP2 MSTORE PUSH1 0x20 ADD SWAP1 DUP2 MSTORE PUSH1 0x20 ADD PUSH1 0x0 KECCAK256 SWAP1 POP PUSH1 0x3 PUSH1 0x6 DUP2 GT ISZERO PUSH2 0x319 JUMPI PUSH2 0x318 PUSH2 0x2C7C JUMP JUMPDEST JUMPDEST DUP2 PUSH1 0x16 ADD PUSH1 0x0 SWAP1 SLOAD SWAP1 PUSH2 0x100 EXP SWAP1 DIV PUSH1 0xFF AND PUSH1 0x6 DUP2 GT ISZERO PUSH2 0x33D JUMPI PUSH2 0x33C PUSH2 0x2C7C JUMP JUMPDEST JUMPDEST EQ PUSH2 0x37D JUMPI PUSH1 0x40 MLOAD PUSH32 0x8C379A000000000000000000000000000000000000000000000000000000000 DUP2 MSTORE PUSH1 0x4 ADD PUSH2 0x374 SWAP1 PUSH2 0x26EC JUMP JUMPDEST PUSH1 0x40 MLOAD DUP1 SWAP2 SUB SWAP1 REVERT JUMPDEST CALLER PUSH20 0xFFFFFFFFFFFFFFFFFFFFFFFFFFFFFFFFFFFFFFFF AND DUP2 PUSH1 0x1 ADD PUSH1 0x0 SWAP1 SLOAD SWAP1 PUSH2 0x100 EXP SWAP1 DIV PUSH20 0xFFFFFFFFFFFFFFFFFFFFFFFFFFFFFFFFFFFFFFFF AND PUSH20 0xFFFFFFFFFFFFFFFFFFFFFFFFFFFFFFFFFFFFFFFF AND EQ PUSH2 0x40F JUMPI PUSH1 0x40 MLOAD PUSH32 0x8C379A000000000000000000000000000000000000000000000000000000000 DUP2 MSTORE PUSH1 0x4 ADD PUSH2 0x406 SWAP1 PUSH2 0x260C JUMP JUMPDEST PUSH1 0x40 MLOAD DUP1 SWAP2 SUB SWAP1 REVERT JUMPDEST DUP2 DUP2 PUSH1 0x12 ADD PUSH1 0x0 PUSH2 0x100 EXP DUP2 SLOAD DUP2 PUSH1 0xFF MUL NOT AND SWAP1 DUP4 ISZERO ISZERO MUL OR SWAP1 SSTORE POP NUMBER DUP2 PUSH1 0x13 ADD DUP2 SWAP1 SSTORE POP PUSH1 0x4 DUP2 PUSH1 0x16 ADD PUSH1 0x0 PUSH2 0x100 EXP DUP2 SLOAD DUP2 PUSH1 0xFF MUL NOT AND SWAP1 DUP4 PUSH1 0x6 DUP2 GT ISZERO PUSH2 0x45C JUMPI PUSH2 0x45B PUSH2 0x2C7C JUMP JUMPDEST JUMPDEST MUL OR SWAP1 SSTORE POP PUSH32 0x8C519CDBE21CF251CF06F8F9D7D750B9BBB2E8F2F38C0936BC7ACE41DB406522 DUP4 DUP3 PUSH1 0x12 ADD PUSH1 0x0 SWAP1 SLOAD SWAP1 PUSH2 0x100 EXP SWAP1 DIV PUSH1 0xFF AND DUP4 PUSH1 0x13 ADD SLOAD DUP5 PUSH1 0x16 ADD PUSH1 0x0 SWAP1 SLOAD SWAP1 PUSH2 0x100 EXP SWAP1 DIV PUSH1 0xFF AND PUSH1 0x40 MLOAD PUSH2 0x4BC SWAP5 SWAP4 SWAP3 SWAP2 SWAP1 PUSH2 0x2885 JUMP JUMPDEST PUSH1 0x40 MLOAD DUP1 SWAP2 SUB SWAP1 LOG1 POP POP POP JUMP JUMPDEST PUSH1 0x0 PUSH1 0x2 PUSH1 0x0 DUP4 DUP2 MSTORE PUSH1 0x20 ADD SWAP1 DUP2 MSTORE PUSH1 0x20 ADD PUSH1 0x0 KECCAK256 SWAP1 POP PUSH1 0x0 PUSH1 0x6 DUP2 GT ISZERO PUSH2 0x4F4 JUMPI PUSH2 0x4F3 PUSH2 0x2C7C JUMP JUMPDEST JUMPDEST DUP2 PUSH1 0x16 ADD PUSH1 0x0 SWAP1 SLOAD SWAP1 PUSH2 0x100 EXP SWAP1 DIV PUSH1 0xFF AND PUSH1 0x6 DUP2 GT ISZERO PUSH2 0x518 JUMPI PUSH2 0x517 PUSH2 0x2C7C JUMP JUMPDEST JUMPDEST EQ PUSH2 0x558 JUMPI PUSH1 0x40 MLOAD PUSH32 0x8C379A000000000000000000000000000000000000000000000000000000000 DUP2 MSTORE PUSH1 0x4 ADD PUSH2 0x54F SWAP1 PUSH2 0x26CC JUMP JUMPDEST PUSH1 0x40 MLOAD DUP1 SWAP2 SUB SWAP1 REVERT JUMPDEST CALLER PUSH20 0xFFFFFFFFFFFFFFFFFFFFFFFFFFFFFFFFFFFFFFFF AND DUP2 PUSH1 0x1 ADD PUSH1 0x0 SWAP1 SLOAD SWAP1 PUSH2 0x100 EXP SWAP1 DIV PUSH20 0xFFFFFFFFFFFFFFFFFFFFFFFFFFFFFFFFFFFFFFFF AND PUSH20 0xFFFFFFFFFFFFFFFFFFFFFFFFFFFFFFFFFFFFFFFF AND EQ PUSH2 0x5EA JUMPI PUSH1 0x40 MLOAD PUSH32 0x8C379A000000000000000000000000000000000000000000000000000000000 DUP2 MSTORE PUSH1 0x4 ADD PUSH2 0x5E1 SWAP1 PUSH2 0x266C JUMP JUMPDEST PUSH1 0x40 MLOAD DUP1 SWAP2 SUB SWAP1 REVERT JUMPDEST DUP1 PUSH1 0x3 ADD SLOAD CALLVALUE EQ PUSH2 0x630 JUMPI PUSH1 0x40 MLOAD PUSH32 0x8C379A000000000000000000000000000000000000000000000000000000000 DUP2 MSTORE PUSH1 0x4 ADD PUSH2 0x627 SWAP1 PUSH2 0x25CC JUMP JUMPDEST PUSH1 0x40 MLOAD DUP1 SWAP2 SUB SWAP1 REVERT JUMPDEST PUSH1 0x2 DUP2 PUSH1 0x16 ADD PUSH1 0x0 PUSH2 0x100 EXP DUP2 SLOAD DUP2 PUSH1 0xFF MUL NOT AND SWAP1 DUP4 PUSH1 0x6 DUP2 GT ISZERO PUSH2 0x658 JUMPI PUSH2 0x657 PUSH2 0x2C7C JUMP JUMPDEST JUMPDEST MUL OR SWAP1 SSTORE POP PUSH32 0x802DABD127AB1CB2F508C4B573914E7A7C87655CE06722EDBBEBD42B10F7A596 DUP3 DUP3 PUSH1 0x16 ADD PUSH1 0x0 SWAP1 SLOAD SWAP1 PUSH2 0x100 EXP SWAP1 DIV PUSH1 0xFF AND PUSH1 0x40 MLOAD PUSH2 0x69F SWAP3 SWAP2 SWAP1 PUSH2 0x2901 JUMP JUMPDEST PUSH1 0x40 MLOAD DUP1 SWAP2 SUB SWAP1 LOG1 POP POP JUMP JUMPDEST PUSH1 0x0 PUSH1 0x2 PUSH1 0x0 DUP4 DUP2 MSTORE PUSH1 0x20 ADD SWAP1 DUP2 MSTORE PUSH1 0x20 ADD PUSH1 0x0 KECCAK256 SWAP1 POP PUSH1 0x4 PUSH1 0x6 DUP2 GT ISZERO PUSH2 0x6D6 JUMPI PUSH2 0x6D5 PUSH2 0x2C7C JUMP JUMPDEST JUMPDEST DUP2 PUSH1 0x16 ADD PUSH1 0x0 SWAP1 SLOAD SWAP1 PUSH2 0x100 EXP SWAP1 DIV PUSH1 0xFF AND PUSH1 0x6 DUP2 GT ISZERO PUSH2 0x6FA JUMPI PUSH2 0x6F9 PUSH2 0x2C7C JUMP JUMPDEST JUMPDEST EQ PUSH2 0x73A JUMPI PUSH1 0x40 MLOAD PUSH32 0x8C379A000000000000000000000000000000000000000000000000000000000 DUP2 MSTORE PUSH1 0x4 ADD PUSH2 0x731 SWAP1 PUSH2 0x258C JUMP JUMPDEST PUSH1 0x40 MLOAD DUP1 SWAP2 SUB SWAP1 REVERT JUMPDEST DUP1 PUSH1 0x1 ADD PUSH1 0x0 SWAP1 SLOAD SWAP1 PUSH2 0x100 EXP SWAP1 DIV PUSH20 0xFFFFFFFFFFFFFFFFFFFFFFFFFFFFFFFFFFFFFFFF AND PUSH20 0xFFFFFFFFFFFFFFFFFFFFFFFFFFFFFFFFFFFFFFFF AND CALLER PUSH20 0xFFFFFFFFFFFFFFFFFFFFFFFFFFFFFFFFFFFFFFFF AND EQ PUSH2 0x7CC JUMPI PUSH1 0x40 MLOAD PUSH32 0x8C379A000000000000000000000000000000000000000000000000000000000 DUP2 MSTORE PUSH1 0x4 ADD PUSH2 0x7C3 SWAP1 PUSH2 0x26AC JUMP JUMPDEST PUSH1 0x40 MLOAD DUP1 SWAP2 SUB SWAP1 REVERT JUMPDEST PUSH32 0x0 DUP2 PUSH1 0x13 ADD SLOAD PUSH2 0x7FC SWAP2 SWAP1 PUSH2 0x298E JUMP JUMPDEST NUMBER LT ISZERO PUSH2 0x83E JUMPI PUSH1 0x40 MLOAD PUSH32 0x8C379A000000000000000000000000000000000000000000000000000000000 DUP2 MSTORE PUSH1 0x4 ADD PUSH2 0x835 SWAP1 PUSH2 0x254C JUMP JUMPDEST PUSH1 0x40 MLOAD DUP1 SWAP2 SUB SWAP1 REVERT JUMPDEST PUSH1 0x5 DUP2 PUSH1 0x16 ADD PUSH1 0x0 PUSH2 0x100 EXP DUP2 SLOAD DUP2 PUSH1 0xFF MUL NOT AND SWAP1 DUP4 PUSH1 0x6 DUP2 GT ISZERO PUSH2 0x866 JUMPI PUSH2 0x865 PUSH2 0x2C7C JUMP JUMPDEST JUMPDEST MUL OR SWAP1 SSTORE POP PUSH2 0x874 DUP3 PUSH2 0x126B JUMP JUMPDEST PUSH32 0x1298E8412738AB53EAE8076A7EC2C244ACC3F16C33CA1BB088FC8CA4FE187E74 DUP3 DUP3 PUSH1 0x16 ADD PUSH1 0x0 SWAP1 SLOAD SWAP1 PUSH2 0x100 EXP SWAP1 DIV PUSH1 0xFF AND PUSH1 0x40 MLOAD PUSH2 0x8B6 SWAP3 SWAP2 SWAP1 PUSH2 0x2901 JUMP JUMPDEST PUSH1 0x40 MLOAD DUP1 SWAP2 SUB SWAP1 LOG1 POP POP JUMP JUMPDEST PUSH1 0x0 PUSH1 0x2 PUSH1 0x0 DUP5 DUP2 MSTORE PUSH1 0x20 ADD SWAP1 DUP2 MSTORE PUSH1 0x20 ADD PUSH1 0x0 KECCAK256 SWAP1 POP PUSH1 0x2 PUSH1 0x6 DUP2 GT ISZERO PUSH2 0x8ED JUMPI PUSH2 0x8EC PUSH2 0x2C7C JUMP JUMPDEST JUMPDEST DUP2 PUSH1 0x16 ADD PUSH1 0x0 SWAP1 SLOAD SWAP1 PUSH2 0x100 EXP SWAP1 DIV PUSH1 0xFF AND PUSH1 0x6 DUP2 GT ISZERO PUSH2 0x911 JUMPI PUSH2 0x910 PUSH2 0x2C7C JUMP JUMPDEST JUMPDEST EQ PUSH2 0x951 JUMPI PUSH1 0x40 MLOAD PUSH32 0x8C379A000000000000000000000000000000000000000000000000000000000 DUP2 MSTORE PUSH1 0x4 ADD PUSH2 0x948 SWAP1 PUSH2 0x262C JUMP JUMPDEST PUSH1 0x40 MLOAD DUP1 SWAP2 SUB SWAP1 REVERT JUMPDEST CALLER PUSH20 0xFFFFFFFFFFFFFFFFFFFFFFFFFFFFFFFFFFFFFFFF AND DUP2 PUSH1 0x0 ADD PUSH1 0x0 SWAP1 SLOAD SWAP1 PUSH2 0x100 EXP SWAP1 DIV PUSH20 0xFFFFFFFFFFFFFFFFFFFFFFFFFFFFFFFFFFFFFFFF AND PUSH20 0xFFFFFFFFFFFFFFFFFFFFFFFFFFFFFFFFFFFFFFFF AND EQ PUSH2 0x9E3 JUMPI PUSH1 0x40 MLOAD PUSH32 0x8C379A000000000000000000000000000000000000000000000000000000000 DUP2 MSTORE PUSH1 0x4 ADD PUSH2 0x9DA SWAP1 PUSH2 0x268C JUMP JUMPDEST PUSH1 0x40 MLOAD DUP1 SWAP2 SUB SWAP1 REVERT JUMPDEST DUP2 DUP2 PUSH1 0x11 ADD DUP2 SWAP1 SSTORE POP PUSH1 0x3 DUP2 PUSH1 0x16 ADD PUSH1 0x0 PUSH2 0x100 EXP DUP2 SLOAD DUP2 PUSH1 0xFF MUL NOT AND SWAP1 DUP4 PUSH1 0x6 DUP2 GT ISZERO PUSH2 0xA14 JUMPI PUSH2 0xA13 PUSH2 0x2C7C JUMP JUMPDEST JUMPDEST MUL OR SWAP1 SSTORE POP PUSH32 0x3BD3C4C5C531BCB5E716B2CCC90104E86D8DF90828515AB0D4530D02509EA5DF DUP4 DUP3 PUSH1 0x11 ADD SLOAD DUP4 PUSH1 0x16 ADD PUSH1 0x0 SWAP1 SLOAD SWAP1 PUSH2 0x100 EXP SWAP1 DIV PUSH1 0xFF AND PUSH1 0x40 MLOAD PUSH2 0xA61 SWAP4 SWAP3 SWAP2 SWAP1 PUSH2 0x28CA JUMP JUMPDEST PUSH1 0x40 MLOAD DUP1 SWAP2 SUB SWAP1 LOG1 POP POP POP JUMP JUMPDEST PUSH1 0x0 DUP1 PUSH1 0x0 DUP4 PUSH20 0xFFFFFFFFFFFFFFFFFFFFFFFFFFFFFFFFFFFFFFFF AND PUSH20 0xFFFFFFFFFFFFFFFFFFFFFFFFFFFFFFFFFFFFFFFF AND DUP2 MSTORE PUSH1 0x20 ADD SWAP1 DUP2 MSTORE PUSH1 0x20 ADD PUSH1 0x0 KECCAK256 SLOAD SWAP1 POP PUSH1 0x0 DUP1 PUSH1 0x0 DUP5 PUSH20 0xFFFFFFFFFFFFFFFFFFFFFFFFFFFFFFFFFFFFFFFF AND PUSH20 0xFFFFFFFFFFFFFFFFFFFFFFFFFFFFFFFFFFFFFFFF AND DUP2 MSTORE PUSH1 0x20 ADD SWAP1 DUP2 MSTORE PUSH1 0x20 ADD PUSH1 0x0 KECCAK256 DUP2 SWAP1 SSTORE POP DUP2 PUSH20 0xFFFFFFFFFFFFFFFFFFFFFFFFFFFFFFFFFFFFFFFF AND PUSH2 0x8FC DUP3 SWAP1 DUP2 ISZERO MUL SWAP1 PUSH1 0x40 MLOAD PUSH1 0x0 PUSH1 0x40 MLOAD DUP1 DUP4 SUB DUP2 DUP6 DUP9 DUP9 CALL SWAP4 POP POP POP POP ISZERO DUP1 ISZERO PUSH2 0xB3B JUMPI RETURNDATASIZE PUSH1 0x0 DUP1 RETURNDATACOPY RETURNDATASIZE PUSH1 0x0 REVERT JUMPDEST POP PUSH32 0xDB35132C111EFE920CEDE025E819975671CFD1B8FCC1174762C8670C4E94C211 DUP3 DUP3 PUSH1 0x40 MLOAD PUSH2 0xB6D SWAP3 SWAP2 SWAP1 PUSH2 0x2508 JUMP JUMPDEST PUSH1 0x40 MLOAD DUP1 SWAP2 SUB SWAP1 LOG1 POP POP JUMP JUMPDEST PUSH1 0x0 PUSH1 0x20 MSTORE DUP1 PUSH1 0x0 MSTORE PUSH1 0x40 PUSH1 0x0 KECCAK256 PUSH1 0x0 SWAP2 POP SWAP1 POP SLOAD DUP2 JUMP JUMPDEST PUSH1 0x0 DUP3 DUP3 PUSH1 0x40 MLOAD PUSH1 0x20 ADD PUSH2 0xBA6 SWAP3 SWAP2 SWAP1 PUSH2 0x24DC JUMP JUMPDEST PUSH1 0x40 MLOAD PUSH1 0x20 DUP2 DUP4 SUB SUB DUP2 MSTORE SWAP1 PUSH1 0x40 MSTORE DUP1 MLOAD SWAP1 PUSH1 0x20 ADD KECCAK256 SWAP1 POP SWAP3 SWAP2 POP POP JUMP JUMPDEST DUP8 CALLVALUE EQ PUSH2 0xC06 JUMPI PUSH1 0x40 MLOAD PUSH32 0x8C379A000000000000000000000000000000000000000000000000000000000 DUP2 MSTORE PUSH1 0x4 ADD PUSH2 0xBFD SWAP1 PUSH2 0x274C JUMP JUMPDEST PUSH1 0x40 MLOAD DUP1 SWAP2 SUB SWAP1 REVERT JUMPDEST PUSH2 0xC14 DUP9 DUP9 DUP9 DUP9 DUP9 DUP9 PUSH2 0x14FE JUMP JUMPDEST PUSH1 0x0 PUSH1 0x1 DUP1 SLOAD PUSH2 0xC24 SWAP2 SWAP1 PUSH2 0x298E JUMP JUMPDEST SWAP1 POP PUSH1 0x0 PUSH1 0x2 PUSH1 0x0 DUP4 DUP2 MSTORE PUSH1 0x20 ADD SWAP1 DUP2 MSTORE PUSH1 0x20 ADD PUSH1 0x0 KECCAK256 SWAP1 POP CALLER DUP2 PUSH1 0x0 ADD PUSH1 0x0 PUSH2 0x100 EXP DUP2 SLOAD DUP2 PUSH20 0xFFFFFFFFFFFFFFFFFFFFFFFFFFFFFFFFFFFFFFFF MUL NOT AND SWAP1 DUP4 PUSH20 0xFFFFFFFFFFFFFFFFFFFFFFFFFFFFFFFFFFFFFFFF AND MUL OR SWAP1 SSTORE POP DUP11 DUP2 PUSH1 0x1 ADD PUSH1 0x0 PUSH2 0x100 EXP DUP2 SLOAD DUP2 PUSH20 0xFFFFFFFFFFFFFFFFFFFFFFFFFFFFFFFFFFFFFFFF MUL NOT AND SWAP1 DUP4 PUSH20 0xFFFFFFFFFFFFFFFFFFFFFFFFFFFFFFFFFFFFFFFF AND MUL OR SWAP1 SSTORE POP DUP10 DUP2 PUSH1 0x2 ADD DUP2 SWAP1 SSTORE POP DUP9 DUP2 PUSH1 0x3 ADD DUP2 SWAP1 SSTORE POP DUP8 DUP2 PUSH1 0x4 ADD PUSH1 0x0 PUSH1 0x4 DUP2 LT PUSH2 0xCED JUMPI PUSH2 0xCEC PUSH2 0x2CDA JUMP JUMPDEST JUMPDEST PUSH1 0x3 MUL ADD DUP2 DUP2 PUSH2 0xCFD SWAP2 SWAP1 PUSH2 0x33B6 JUMP JUMPDEST SWAP1 POP POP DUP7 DUP2 PUSH1 0x4 ADD PUSH1 0x1 PUSH1 0x4 DUP2 LT PUSH2 0xD18 JUMPI PUSH2 0xD17 PUSH2 0x2CDA JUMP JUMPDEST JUMPDEST PUSH1 0x3 MUL ADD DUP2 DUP2 PUSH2 0xD28 SWAP2 SWAP1 PUSH2 0x33B6 JUMP JUMPDEST SWAP1 POP POP DUP6 DUP2 PUSH1 0x4 ADD PUSH1 0x2 PUSH1 0x4 DUP2 LT PUSH2 0xD43 JUMPI PUSH2 0xD42 PUSH2 0x2CDA JUMP JUMPDEST JUMPDEST PUSH1 0x3 MUL ADD DUP2 DUP2 PUSH2 0xD53 SWAP2 SWAP1 PUSH2 0x33B6 JUMP JUMPDEST SWAP1 POP POP DUP5 DUP2 PUSH1 0x4 ADD PUSH1 0x3 PUSH1 0x4 DUP2 LT PUSH2 0xD6E JUMPI PUSH2 0xD6D PUSH2 0x2CDA JUMP JUMPDEST JUMPDEST PUSH1 0x3 MUL ADD DUP2 DUP2 PUSH2 0xD7E SWAP2 SWAP1 PUSH2 0x33B6 JUMP JUMPDEST SWAP1 POP POP DUP4 DUP4 DUP3 PUSH1 0x10 ADD SWAP2 SWAP1 PUSH2 0xD94 SWAP3 SWAP2 SWAP1 PUSH2 0x1AE6 JUMP JUMPDEST POP PUSH1 0x0 DUP2 PUSH1 0x16 ADD PUSH1 0x0 PUSH2 0x100 EXP DUP2 SLOAD DUP2 PUSH1 0xFF MUL NOT AND SWAP1 DUP4 PUSH1 0x6 DUP2 GT ISZERO PUSH2 0xDBD JUMPI PUSH2 0xDBC PUSH2 0x2C7C JUMP JUMPDEST JUMPDEST MUL OR SWAP1 SSTORE POP PUSH1 0x1 PUSH1 0x0 DUP2 SLOAD DUP1 SWAP3 SWAP2 SWAP1 PUSH2 0xDD5 SWAP1 PUSH2 0x2BD6 JUMP JUMPDEST SWAP2 SWAP1 POP SSTORE POP PUSH32 0xD93C07E6D2930C0B25150E2D51C102A0DC67B32EC91D7582A92C4F6E61CE3A32 DUP2 PUSH1 0x40 MLOAD PUSH2 0xE09 SWAP2 SWAP1 PUSH2 0x27CC JUMP JUMPDEST PUSH1 0x40 MLOAD DUP1 SWAP2 SUB SWAP1 LOG1 POP POP POP POP POP POP POP POP POP POP POP JUMP JUMPDEST PUSH1 0x0 PUSH1 0x2 PUSH1 0x0 DUP4 DUP2 MSTORE PUSH1 0x20 ADD SWAP1 DUP2 MSTORE PUSH1 0x20 ADD PUSH1 0x0 KECCAK256 SWAP1 POP PUSH1 0x0 PUSH1 0x6 DUP2 GT ISZERO PUSH2 0xE49 JUMPI PUSH2 0xE48 PUSH2 0x2C7C JUMP JUMPDEST JUMPDEST DUP2 PUSH1 0x16 ADD PUSH1 0x0 SWAP1 SLOAD SWAP1 PUSH2 0x100 EXP SWAP1 DIV PUSH1 0xFF AND PUSH1 0x6 DUP2 GT ISZERO PUSH2 0xE6D JUMPI PUSH2 0xE6C PUSH2 0x2C7C JUMP JUMPDEST JUMPDEST EQ PUSH2 0xEAD JUMPI PUSH1 0x40 MLOAD PUSH32 0x8C379A000000000000000000000000000000000000000000000000000000000 DUP2 MSTORE PUSH1 0x4 ADD PUSH2 0xEA4 SWAP1 PUSH2 0x25AC JUMP JUMPDEST PUSH1 0x40 MLOAD DUP1 SWAP2 SUB SWAP1 REVERT JUMPDEST CALLER PUSH20 0xFFFFFFFFFFFFFFFFFFFFFFFFFFFFFFFFFFFFFFFF AND DUP2 PUSH1 0x0 ADD PUSH1 0x0 SWAP1 SLOAD SWAP1 PUSH2 0x100 EXP SWAP1 DIV PUSH20 0xFFFFFFFFFFFFFFFFFFFFFFFFFFFFFFFFFFFFFFFF AND PUSH20 0xFFFFFFFFFFFFFFFFFFFFFFFFFFFFFFFFFFFFFFFF AND EQ PUSH2 0xF3F JUMPI PUSH1 0x40 MLOAD PUSH32 0x8C379A000000000000000000000000000000000000000000000000000000000 DUP2 MSTORE PUSH1 0x4 ADD PUSH2 0xF36 SWAP1 PUSH2 0x276C JUMP JUMPDEST PUSH1 0x40 MLOAD DUP1 SWAP2 SUB SWAP1 REVERT JUMPDEST PUSH1 0x1 DUP2 PUSH1 0x16 ADD PUSH1 0x0 PUSH2 0x100 EXP DUP2 SLOAD DUP2 PUSH1 0xFF MUL NOT AND SWAP1 DUP4 PUSH1 0x6 DUP2 GT ISZERO PUSH2 0xF67 JUMPI PUSH2 0xF66 PUSH2 0x2C7C JUMP JUMPDEST JUMPDEST MUL OR SWAP1 SSTORE POP PUSH2 0xF9E DUP2 PUSH1 0x0 ADD PUSH1 0x0 SWAP1 SLOAD SWAP1 PUSH2 0x100 EXP SWAP1 DIV PUSH20 0xFFFFFFFFFFFFFFFFFFFFFFFFFFFFFFFFFFFFFFFF AND DUP3 PUSH1 0x2 ADD SLOAD PUSH2 0x16A7 JUMP JUMPDEST PUSH32 0xE43C1DE399FA9E7B593892FEE78094D0C09BF97C0C52094E46B324B5E96949E0 DUP3 DUP3 PUSH1 0x16 ADD PUSH1 0x0 SWAP1 SLOAD SWAP1 PUSH2 0x100 EXP SWAP1 DIV PUSH1 0xFF AND PUSH1 0x40 MLOAD PUSH2 0xFE0 SWAP3 SWAP2 SWAP1 PUSH2 0x2901 JUMP JUMPDEST PUSH1 0x40 MLOAD DUP1 SWAP2 SUB SWAP1 LOG1 POP POP JUMP JUMPDEST PUSH1 0x0 PUSH1 0x2 PUSH1 0x0 DUP6 DUP2 MSTORE PUSH1 0x20 ADD SWAP1 DUP2 MSTORE PUSH1 0x20 ADD PUSH1 0x0 KECCAK256 SWAP1 POP PUSH1 0x4 PUSH1 0x6 DUP2 GT ISZERO PUSH2 0x1017 JUMPI PUSH2 0x1016 PUSH2 0x2C7C JUMP JUMPDEST JUMPDEST DUP2 PUSH1 0x16 ADD PUSH1 0x0 SWAP1 SLOAD SWAP1 PUSH2 0x100 EXP SWAP1 DIV PUSH1 0xFF AND PUSH1 0x6 DUP2 GT ISZERO PUSH2 0x103B JUMPI PUSH2 0x103A PUSH2 0x2C7C JUMP JUMPDEST JUMPDEST EQ PUSH2 0x107B JUMPI PUSH1 0x40 MLOAD PUSH32 0x8C379A000000000000000000000000000000000000000000000000000000000 DUP2 MSTORE PUSH1 0x4 ADD PUSH2 0x1072 SWAP1 PUSH2 0x272C JUMP JUMPDEST PUSH1 0x40 MLOAD DUP1 SWAP2 SUB SWAP1 REVERT JUMPDEST DUP1 PUSH1 0x0 ADD PUSH1 0x0 SWAP1 SLOAD SWAP1 PUSH2 0x100 EXP SWAP1 DIV PUSH20 0xFFFFFFFFFFFFFFFFFFFFFFFFFFFFFFFFFFFFFFFF AND PUSH20 0xFFFFFFFFFFFFFFFFFFFFFFFFFFFFFFFFFFFFFFFF AND CALLER PUSH20 0xFFFFFFFFFFFFFFFFFFFFFFFFFFFFFFFFFFFFFFFF AND EQ PUSH2 0x110D JUMPI PUSH1 0x40 MLOAD PUSH32 0x8C379A000000000000000000000000000000000000000000000000000000000 DUP2 MSTORE PUSH1 0x4 ADD PUSH2 0x1104 SWAP1 PUSH2 0x256C JUMP JUMPDEST PUSH1 0x40 MLOAD DUP1 SWAP2 SUB SWAP1 REVERT JUMPDEST DUP3 DUP2 PUSH1 0x14 ADD PUSH1 0x0 PUSH2 0x100 EXP DUP2 SLOAD DUP2 PUSH1 0xFF MUL NOT AND SWAP1 DUP4 ISZERO ISZERO MUL OR SWAP1 SSTORE POP DUP2 DUP2 PUSH1 0x15 ADD DUP2 SWAP1 SSTORE POP PUSH1 0x0 PUSH2 0x113E DUP5 DUP5 PUSH2 0xB91 JUMP JUMPDEST SWAP1 POP DUP2 PUSH1 0x11 ADD SLOAD DUP2 EQ PUSH2 0x11A0 JUMPI PUSH32 0x880B3536F22B8A3305EFF5008DAA498E1309A219E6013D53622848754710B587 DUP6 DUP4 PUSH1 0x14 ADD PUSH1 0x0 SWAP1 SLOAD SWAP1 PUSH2 0x100 EXP SWAP1 DIV PUSH1 0xFF AND DUP5 PUSH1 0x15 ADD SLOAD PUSH1 0x40 MLOAD PUSH2 0x1193 SWAP4 SWAP3 SWAP2 SWAP1 PUSH2 0x2809 JUMP JUMPDEST PUSH1 0x40 MLOAD DUP1 SWAP2 SUB SWAP1 LOG1 PUSH2 0x123A JUMP JUMPDEST PUSH1 0x6 DUP3 PUSH1 0x16 ADD PUSH1 0x0 PUSH2 0x100 EXP DUP2 SLOAD DUP2 PUSH1 0xFF MUL NOT AND SWAP1 DUP4 PUSH1 0x6 DUP2 GT ISZERO PUSH2 0x11C8 JUMPI PUSH2 0x11C7 PUSH2 0x2C7C JUMP JUMPDEST JUMPDEST MUL OR SWAP1 SSTORE POP PUSH2 0x11D6 DUP6 PUSH2 0x1739 JUMP JUMPDEST PUSH32 0xF29B5A479B9AE259E2BE6D0141F4DB810DD113DE2D329007ECCAE006B409FE69 DUP6 DUP4 PUSH1 0x14 ADD PUSH1 0x0 SWAP1 SLOAD SWAP1 PUSH2 0x100 EXP SWAP1 DIV PUSH1 0xFF AND DUP5 PUSH1 0x15 ADD SLOAD DUP6 PUSH1 0x16 ADD PUSH1 0x0 SWAP1 SLOAD SWAP1 PUSH2 0x100 EXP SWAP1 DIV PUSH1 0xFF AND PUSH1 0x40 MLOAD PUSH2 0x1231 SWAP5 SWAP4 SWAP3 SWAP2 SWAP1 PUSH2 0x2840 JUMP JUMPDEST PUSH1 0x40 MLOAD DUP1 SWAP2 SUB SWAP1 LOG1 JUMPDEST POP POP POP POP POP JUMP JUMPDEST PUSH1 0x1 SLOAD DUP2 JUMP JUMPDEST PUSH32 0x0 DUP2 JUMP JUMPDEST PUSH1 0x0 PUSH1 0x2 PUSH1 0x0 DUP4 DUP2 MSTORE PUSH1 0x20 ADD SWAP1 DUP2 MSTORE PUSH1 0x20 ADD PUSH1 0x0 KECCAK256 PUSH1 0x40 MLOAD DUP1 PUSH2 0x180 ADD PUSH1 0x40 MSTORE SWAP1 DUP2 PUSH1 0x0 DUP3 ADD PUSH1 0x0 SWAP1 SLOAD SWAP1 PUSH2 0x100 EXP SWAP1 DIV PUSH20 0xFFFFFFFFFFFFFFFFFFFFFFFFFFFFFFFFFFFFFFFF AND PUSH20 0xFFFFFFFFFFFFFFFFFFFFFFFFFFFFFFFFFFFFFFFF AND PUSH20 0xFFFFFFFFFFFFFFFFFFFFFFFFFFFFFFFFFFFFFFFF AND DUP2 MSTORE PUSH1 0x20 ADD PUSH1 0x1 DUP3 ADD PUSH1 0x0 SWAP1 SLOAD SWAP1 PUSH2 0x100 EXP SWAP1 DIV PUSH20 0xFFFFFFFFFFFFFFFFFFFFFFFFFFFFFFFFFFFFFFFF AND PUSH20 0xFFFFFFFFFFFFFFFFFFFFFFFFFFFFFFFFFFFFFFFF AND PUSH20 0xFFFFFFFFFFFFFFFFFFFFFFFFFFFFFFFFFFFFFFFF AND DUP2 MSTORE PUSH1 0x20 ADD PUSH1 0x2 DUP3 ADD SLOAD DUP2 MSTORE PUSH1 0x20 ADD PUSH1 0x3 DUP3 ADD SLOAD DUP2 MSTORE PUSH1 0x20 ADD PUSH1 0x4 DUP3 ADD PUSH1 0x4 DUP1 PUSH1 0x20 MUL PUSH1 0x40 MLOAD SWAP1 DUP2 ADD PUSH1 0x40 MSTORE DUP1 SWAP3 SWAP2 SWAP1 PUSH1 0x0 SWAP1 JUMPDEST DUP3 DUP3 LT ISZERO PUSH2 0x13AE JUMPI DUP4 DUP3 PUSH1 0x3 MUL ADD PUSH1 0x40 MLOAD DUP1 PUSH1 0x60 ADD PUSH1 0x40 MSTORE SWAP1 DUP2 PUSH1 0x0 DUP3 ADD SLOAD DUP2 MSTORE PUSH1 0x20 ADD PUSH1 0x1 DUP3 ADD SLOAD DUP2 MSTORE PUSH1 0x20 ADD PUSH1 0x2 DUP3 ADD SLOAD DUP2 MSTORE POP POP DUP2 MSTORE PUSH1 0x20 ADD SWAP1 PUSH1 0x1 ADD SWAP1 PUSH2 0x1368 JUMP JUMPDEST POP POP POP POP DUP2 MSTORE PUSH1 0x20 ADD PUSH1 0x10 DUP3 ADD DUP1 SLOAD PUSH2 0x13C6 SWAP1 PUSH2 0x2B22 JUMP JUMPDEST DUP1 PUSH1 0x1F ADD PUSH1 0x20 DUP1 SWAP2 DIV MUL PUSH1 0x20 ADD PUSH1 0x40 MLOAD SWAP1 DUP2 ADD PUSH1 0x40 MSTORE DUP1 SWAP3 SWAP2 SWAP1 DUP2 DUP2 MSTORE PUSH1 0x20 ADD DUP3 DUP1 SLOAD PUSH2 0x13F2 SWAP1 PUSH2 0x2B22 JUMP JUMPDEST DUP1 ISZERO PUSH2 0x143F JUMPI DUP1 PUSH1 0x1F LT PUSH2 0x1414 JUMPI PUSH2 0x100 DUP1 DUP4 SLOAD DIV MUL DUP4 MSTORE SWAP2 PUSH1 0x20 ADD SWAP2 PUSH2 0x143F JUMP JUMPDEST DUP3 ADD SWAP2 SWAP1 PUSH1 0x0 MSTORE PUSH1 0x20 PUSH1 0x0 KECCAK256 SWAP1 JUMPDEST DUP2 SLOAD DUP2 MSTORE SWAP1 PUSH1 0x1 ADD SWAP1 PUSH1 0x20 ADD DUP1 DUP4 GT PUSH2 0x1422 JUMPI DUP3 SWAP1 SUB PUSH1 0x1F AND DUP3 ADD SWAP2 JUMPDEST POP POP POP POP POP DUP2 MSTORE PUSH1 0x20 ADD PUSH1 0x11 DUP3 ADD SLOAD DUP2 MSTORE PUSH1 0x20 ADD PUSH1 0x12 DUP3 ADD PUSH1 0x0 SWAP1 SLOAD SWAP1 PUSH2 0x100 EXP SWAP1 DIV PUSH1 0xFF AND ISZERO ISZERO ISZERO ISZERO DUP2 MSTORE PUSH1 0x20 ADD PUSH1 0x13 DUP3 ADD SLOAD DUP2 MSTORE PUSH1 0x20 ADD PUSH1 0x14 DUP3 ADD PUSH1 0x0 SWAP1 SLOAD SWAP1 PUSH2 0x100 EXP SWAP1 DIV PUSH1 0xFF AND ISZERO ISZERO ISZERO ISZERO DUP2 MSTORE PUSH1 0x20 ADD PUSH1 0x15 DUP3 ADD SLOAD DUP2 MSTORE PUSH1 0x20 ADD PUSH1 0x16 DUP3 ADD PUSH1 0x0 SWAP1 SLOAD SWAP1 PUSH2 0x100 EXP SWAP1 DIV PUSH1 0xFF AND PUSH1 0x6 DUP2 GT ISZERO PUSH2 0x14C1 JUMPI PUSH2 0x14C0 PUSH2 0x2C7C JUMP JUMPDEST JUMPDEST PUSH1 0x6 DUP2 GT ISZERO PUSH2 0x14D3 JUMPI PUSH2 0x14D2 PUSH2 0x2C7C JUMP JUMPDEST JUMPDEST DUP2 MSTORE POP POP SWAP1 POP PUSH2 0x14FA DUP2 PUSH1 0x20 ADD MLOAD DUP3 PUSH1 0x60 ADD MLOAD DUP4 PUSH1 0x40 ADD MLOAD PUSH2 0x14F5 SWAP2 SWAP1 PUSH2 0x298E JUMP JUMPDEST PUSH2 0x16A7 JUMP JUMPDEST POP POP JUMP JUMPDEST PUSH1 0x0 DUP6 DUP8 PUSH2 0x150C SWAP2 SWAP1 PUSH2 0x298E JUMP JUMPDEST SWAP1 POP DUP5 PUSH1 0x40 ADD CALLDATALOAD DUP6 PUSH1 0x20 ADD CALLDATALOAD DUP7 PUSH1 0x0 ADD CALLDATALOAD PUSH2 0x1527 SWAP2 SWAP1 PUSH2 0x298E JUMP JUMPDEST PUSH2 0x1531 SWAP2 SWAP1 PUSH2 0x298E JUMP JUMPDEST DUP2 EQ PUSH2 0x1572 JUMPI PUSH1 0x40 MLOAD PUSH32 0x8C379A000000000000000000000000000000000000000000000000000000000 DUP2 MSTORE PUSH1 0x4 ADD PUSH2 0x1569 SWAP1 PUSH2 0x27AC JUMP JUMPDEST PUSH1 0x40 MLOAD DUP1 SWAP2 SUB SWAP1 REVERT JUMPDEST DUP4 PUSH1 0x40 ADD CALLDATALOAD DUP5 PUSH1 0x20 ADD CALLDATALOAD DUP6 PUSH1 0x0 ADD CALLDATALOAD PUSH2 0x158B SWAP2 SWAP1 PUSH2 0x298E JUMP JUMPDEST PUSH2 0x1595 SWAP2 SWAP1 PUSH2 0x298E JUMP JUMPDEST DUP2 EQ PUSH2 0x15D6 JUMPI PUSH1 0x40 MLOAD PUSH32 0x8C379A000000000000000000000000000000000000000000000000000000000 DUP2 MSTORE PUSH1 0x4 ADD PUSH2 0x15CD SWAP1 PUSH2 0x270C JUMP JUMPDEST PUSH1 0x40 MLOAD DUP1 SWAP2 SUB SWAP1 REVERT JUMPDEST DUP3 PUSH1 0x40 ADD CALLDATALOAD DUP4 PUSH1 0x20 ADD CALLDATALOAD DUP5 PUSH1 0x0 ADD CALLDATALOAD PUSH2 0x15EF SWAP2 SWAP1 PUSH2 0x298E JUMP JUMPDEST PUSH2 0x15F9 SWAP2 SWAP1 PUSH2 0x298E JUMP JUMPDEST DUP2 EQ PUSH2 0x163A JUMPI PUSH1 0x40 MLOAD PUSH32 0x8C379A000000000000000000000000000000000000000000000000000000000 DUP2 MSTORE PUSH1 0x4 ADD PUSH2 0x1631 SWAP1 PUSH2 0x264C JUMP JUMPDEST PUSH1 0x40 MLOAD DUP1 SWAP2 SUB SWAP1 REVERT JUMPDEST DUP2 PUSH1 0x40 ADD CALLDATALOAD DUP3 PUSH1 0x20 ADD CALLDATALOAD DUP4 PUSH1 0x0 ADD CALLDATALOAD PUSH2 0x1653 SWAP2 SWAP1 PUSH2 0x298E JUMP JUMPDEST PUSH2 0x165D SWAP2 SWAP1 PUSH2 0x298E JUMP JUMPDEST DUP2 EQ PUSH2 0x169E JUMPI PUSH1 0x40 MLOAD PUSH32 0x8C379A000000000000000000000000000000000000000000000000000000000 DUP2 MSTORE PUSH1 0x4 ADD PUSH2 0x1695 SWAP1 PUSH2 0x25EC JUMP JUMPDEST PUSH1 0x40 MLOAD DUP1 SWAP2 SUB SWAP1 REVERT JUMPDEST POP POP POP POP POP POP POP JUMP JUMPDEST DUP1 PUSH1 0x0 DUP1 DUP5 PUSH20 0xFFFFFFFFFFFFFFFFFFFFFFFFFFFFFFFFFFFFFFFF AND PUSH20 0xFFFFFFFFFFFFFFFFFFFFFFFFFFFFFFFFFFFFFFFF AND DUP2 MSTORE PUSH1 0x20 ADD SWAP1 DUP2 MSTORE PUSH1 0x20 ADD PUSH1 0x0 KECCAK256 PUSH1 0x0 DUP3 DUP3 SLOAD PUSH2 0x16F5 SWAP2 SWAP1 PUSH2 0x298E JUMP JUMPDEST SWAP3 POP POP DUP2 SWAP1 SSTORE POP PUSH32 0xFB7DC1A1F27A348F858CD8C345B43CBBE6CC5F96A89E5A6133C8C134C1CF9C01 DUP3 DUP3 PUSH1 0x40 MLOAD PUSH2 0x172D SWAP3 SWAP2 SWAP1 PUSH2 0x2508 JUMP JUMPDEST PUSH1 0x40 MLOAD DUP1 SWAP2 SUB SWAP1 LOG1 POP POP JUMP JUMPDEST PUSH1 0x0 PUSH1 0x2 PUSH1 0x0 DUP4 DUP2 MSTORE PUSH1 0x20 ADD SWAP1 DUP2 MSTORE PUSH1 0x20 ADD PUSH1 0x0 KECCAK256 PUSH1 0x40 MLOAD DUP1 PUSH2 0x180 ADD PUSH1 0x40 MSTORE SWAP1 DUP2 PUSH1 0x0 DUP3 ADD PUSH1 0x0 SWAP1 SLOAD SWAP1 PUSH2 0x100 EXP SWAP1 DIV PUSH20 0xFFFFFFFFFFFFFFFFFFFFFFFFFFFFFFFFFFFFFFFF AND PUSH20 0xFFFFFFFFFFFFFFFFFFFFFFFFFFFFFFFFFFFFFFFF AND PUSH20 0xFFFFFFFFFFFFFFFFFFFFFFFFFFFFFFFFFFFFFFFF AND DUP2 MSTORE PUSH1 0x20 ADD PUSH1 0x1 DUP3 ADD PUSH1 0x0 SWAP1 SLOAD SWAP1 PUSH2 0x100 EXP SWAP1 DIV PUSH20 0xFFFFFFFFFFFFFFFFFFFFFFFFFFFFFFFFFFFFFFFF AND PUSH20 0xFFFFFFFFFFFFFFFFFFFFFFFFFFFFFFFFFFFFFFFF AND PUSH20 0xFFFFFFFFFFFFFFFFFFFFFFFFFFFFFFFFFFFFFFFF AND DUP2 MSTORE PUSH1 0x20 ADD PUSH1 0x2 DUP3 ADD SLOAD DUP2 MSTORE PUSH1 0x20 ADD PUSH1 0x3 DUP3 ADD SLOAD DUP2 MSTORE PUSH1 0x20 ADD PUSH1 0x4 DUP3 ADD PUSH1 0x4 DUP1 PUSH1 0x20 MUL PUSH1 0x40 MLOAD SWAP1 DUP2 ADD PUSH1 0x40 MSTORE DUP1 SWAP3 SWAP2 SWAP1 PUSH1 0x0 SWAP1 JUMPDEST DUP3 DUP3 LT ISZERO PUSH2 0x187C JUMPI DUP4 DUP3 PUSH1 0x3 MUL ADD PUSH1 0x40 MLOAD DUP1 PUSH1 0x60 ADD PUSH1 0x40 MSTORE SWAP1 DUP2 PUSH1 0x0 DUP3 ADD SLOAD DUP2 MSTORE PUSH1 0x20 ADD PUSH1 0x1 DUP3 ADD SLOAD DUP2 MSTORE PUSH1 0x20 ADD PUSH1 0x2 DUP3 ADD SLOAD DUP2 MSTORE POP POP DUP2 MSTORE PUSH1 0x20 ADD SWAP1 PUSH1 0x1 ADD SWAP1 PUSH2 0x1836 JUMP JUMPDEST POP POP POP POP DUP2 MSTORE PUSH1 0x20 ADD PUSH1 0x10 DUP3 ADD DUP1 SLOAD PUSH2 0x1894 SWAP1 PUSH2 0x2B22 JUMP JUMPDEST DUP1 PUSH1 0x1F ADD PUSH1 0x20 DUP1 SWAP2 DIV MUL PUSH1 0x20 ADD PUSH1 0x40 MLOAD SWAP1 DUP2 ADD PUSH1 0x40 MSTORE DUP1 SWAP3 SWAP2 SWAP1 DUP2 DUP2 MSTORE PUSH1 0x20 ADD DUP3 DUP1 SLOAD PUSH2 0x18C0 SWAP1 PUSH2 0x2B22 JUMP JUMPDEST DUP1 ISZERO PUSH2 0x190D JUMPI DUP1 PUSH1 0x1F LT PUSH2 0x18E2 JUMPI PUSH2 0x100 DUP1 DUP4 SLOAD DIV MUL DUP4 MSTORE SWAP2 PUSH1 0x20 ADD SWAP2 PUSH2 0x190D JUMP JUMPDEST DUP3 ADD SWAP2 SWAP1 PUSH1 0x0 MSTORE PUSH1 0x20 PUSH1 0x0 KECCAK256 SWAP1 JUMPDEST DUP2 SLOAD DUP2 MSTORE SWAP1 PUSH1 0x1 ADD SWAP1 PUSH1 0x20 ADD DUP1 DUP4 GT PUSH2 0x18F0 JUMPI DUP3 SWAP1 SUB PUSH1 0x1F AND DUP3 ADD SWAP2 JUMPDEST POP POP POP POP POP DUP2 MSTORE PUSH1 0x20 ADD PUSH1 0x11 DUP3 ADD SLOAD DUP2 MSTORE PUSH1 0x20 ADD PUSH1 0x12 DUP3 ADD PUSH1 0x0 SWAP1 SLOAD SWAP1 PUSH2 0x100 EXP SWAP1 DIV PUSH1 0xFF AND ISZERO ISZERO ISZERO ISZERO DUP2 MSTORE PUSH1 0x20 ADD PUSH1 0x13 DUP3 ADD SLOAD DUP2 MSTORE PUSH1 0x20 ADD PUSH1 0x14 DUP3 ADD PUSH1 0x0 SWAP1 SLOAD SWAP1 PUSH2 0x100 EXP SWAP1 DIV PUSH1 0xFF AND ISZERO ISZERO ISZERO ISZERO DUP2 MSTORE PUSH1 0x20 ADD PUSH1 0x15 DUP3 ADD SLOAD DUP2 MSTORE PUSH1 0x20 ADD PUSH1 0x16 DUP3 ADD PUSH1 0x0 SWAP1 SLOAD SWAP1 PUSH2 0x100 EXP SWAP1 DIV PUSH1 0xFF AND PUSH1 0x6 DUP2 GT ISZERO PUSH2 0x198F JUMPI PUSH2 0x198E PUSH2 0x2C7C JUMP JUMPDEST JUMPDEST PUSH1 0x6 DUP2 GT ISZERO PUSH2 0x19A1 JUMPI PUSH2 0x19A0 PUSH2 0x2C7C JUMP JUMPDEST JUMPDEST DUP2 MSTORE POP POP SWAP1 POP PUSH1 0x0 PUSH2 0x19BC DUP3 PUSH2 0x120 ADD MLOAD DUP4 PUSH1 0xE0 ADD MLOAD PUSH2 0x1A0B JUMP JUMPDEST SWAP1 POP PUSH1 0x0 DUP3 PUSH1 0x80 ADD MLOAD DUP3 PUSH1 0xFF AND PUSH1 0x4 DUP2 LT PUSH2 0x19DA JUMPI PUSH2 0x19D9 PUSH2 0x2CDA JUMP JUMPDEST JUMPDEST PUSH1 0x20 MUL ADD MLOAD SWAP1 POP PUSH2 0x19F3 DUP4 PUSH1 0x0 ADD MLOAD DUP3 PUSH1 0x0 ADD MLOAD PUSH2 0x16A7 JUMP JUMPDEST PUSH2 0x1A05 DUP4 PUSH1 0x20 ADD MLOAD DUP3 PUSH1 0x20 ADD MLOAD PUSH2 0x16A7 JUMP JUMPDEST POP POP POP POP JUMP JUMPDEST PUSH1 0x0 PUSH1 0x1 ISZERO ISZERO DUP4 ISZERO ISZERO EQ DUP1 ISZERO PUSH2 0x1A25 JUMPI POP PUSH1 0x1 ISZERO ISZERO DUP3 ISZERO ISZERO EQ JUMPDEST ISZERO PUSH2 0x1A33 JUMPI PUSH1 0x0 SWAP1 POP PUSH2 0x1AE0 JUMP JUMPDEST PUSH1 0x1 ISZERO ISZERO DUP4 ISZERO ISZERO EQ DUP1 ISZERO PUSH2 0x1A4B JUMPI POP PUSH1 0x0 ISZERO ISZERO DUP3 ISZERO ISZERO EQ JUMPDEST ISZERO PUSH2 0x1A59 JUMPI PUSH1 0x1 SWAP1 POP PUSH2 0x1AE0 JUMP JUMPDEST PUSH1 0x0 ISZERO ISZERO DUP4 ISZERO ISZERO EQ DUP1 ISZERO PUSH2 0x1A71 JUMPI POP PUSH1 0x1 ISZERO ISZERO DUP3 ISZERO ISZERO EQ JUMPDEST ISZERO PUSH2 0x1A7F JUMPI PUSH1 0x2 SWAP1 POP PUSH2 0x1AE0 JUMP JUMPDEST PUSH1 0x0 ISZERO ISZERO DUP4 ISZERO ISZERO EQ DUP1 ISZERO PUSH2 0x1A97 JUMPI POP PUSH1 0x0 ISZERO ISZERO DUP3 ISZERO ISZERO EQ JUMPDEST ISZERO PUSH2 0x1AA5 JUMPI PUSH1 0x3 SWAP1 POP PUSH2 0x1AE0 JUMP JUMPDEST PUSH1 0x40 MLOAD PUSH32 0x8C379A000000000000000000000000000000000000000000000000000000000 DUP2 MSTORE PUSH1 0x4 ADD PUSH2 0x1AD7 SWAP1 PUSH2 0x278C JUMP JUMPDEST PUSH1 0x40 MLOAD DUP1 SWAP2 SUB SWAP1 REVERT JUMPDEST SWAP3 SWAP2 POP POP JUMP JUMPDEST DUP3 DUP1 SLOAD PUSH2 0x1AF2 SWAP1 PUSH2 0x2B22 JUMP JUMPDEST SWAP1 PUSH1 0x0 MSTORE PUSH1 0x20 PUSH1 0x0 KECCAK256 SWAP1 PUSH1 0x1F ADD PUSH1 0x20 SWAP1 DIV DUP2 ADD SWAP3 DUP3 PUSH2 0x1B14 JUMPI PUSH1 0x0 DUP6 SSTORE PUSH2 0x1B5B JUMP JUMPDEST DUP3 PUSH1 0x1F LT PUSH2 0x1B2D JUMPI DUP1 CALLDATALOAD PUSH1 0xFF NOT AND DUP4 DUP1 ADD OR DUP6 SSTORE PUSH2 0x1B5B JUMP JUMPDEST DUP3 DUP1 ADD PUSH1 0x1 ADD DUP6 SSTORE DUP3 ISZERO PUSH2 0x1B5B JUMPI SWAP2 DUP3 ADD JUMPDEST DUP3 DUP2 GT ISZERO PUSH2 0x1B5A JUMPI DUP3 CALLDATALOAD DUP3 SSTORE SWAP2 PUSH1 0x20 ADD SWAP2 SWAP1 PUSH1 0x1 ADD SWAP1 PUSH2 0x1B3F JUMP JUMPDEST JUMPDEST POP SWAP1 POP PUSH2 0x1B68 SWAP2 SWAP1 PUSH2 0x1B6C JUMP JUMPDEST POP SWAP1 JUMP JUMPDEST JUMPDEST DUP1 DUP3 GT ISZERO PUSH2 0x1B85 JUMPI PUSH1 0x0 DUP2 PUSH1 0x0 SWAP1 SSTORE POP PUSH1 0x1 ADD PUSH2 0x1B6D JUMP JUMPDEST POP SWAP1 JUMP JUMPDEST PUSH1 0x0 DUP2 CALLDATALOAD SWAP1 POP PUSH2 0x1B98 DUP2 PUSH2 0x33FB JUMP JUMPDEST SWAP3 SWAP2 POP POP JUMP JUMPDEST PUSH1 0x0 DUP2 CALLDATALOAD SWAP1 POP PUSH2 0x1BAD DUP2 PUSH2 0x3412 JUMP JUMPDEST SWAP3 SWAP2 POP POP JUMP JUMPDEST PUSH1 0x0 DUP2 CALLDATALOAD SWAP1 POP PUSH2 0x1BC2 DUP2 PUSH2 0x3429 JUMP JUMPDEST SWAP3 SWAP2 POP POP JUMP JUMPDEST PUSH1 0x0 DUP1 DUP4 PUSH1 0x1F DUP5 ADD SLT PUSH2 0x1BDE JUMPI PUSH2 0x1BDD PUSH2 0x2D2E JUMP JUMPDEST JUMPDEST DUP3 CALLDATALOAD SWAP1 POP PUSH8 0xFFFFFFFFFFFFFFFF DUP2 GT ISZERO PUSH2 0x1BFB JUMPI PUSH2 0x1BFA PUSH2 0x2D29 JUMP JUMPDEST JUMPDEST PUSH1 0x20 DUP4 ADD SWAP2 POP DUP4 PUSH1 0x1 DUP3 MUL DUP4 ADD GT ISZERO PUSH2 0x1C17 JUMPI PUSH2 0x1C16 PUSH2 0x2D38 JUMP JUMPDEST JUMPDEST SWAP3 POP SWAP3 SWAP1 POP JUMP JUMPDEST PUSH1 0x0 PUSH1 0x60 DUP3 DUP5 SUB SLT ISZERO PUSH2 0x1C34 JUMPI PUSH2 0x1C33 PUSH2 0x2D33 JUMP JUMPDEST JUMPDEST DUP2 SWAP1 POP SWAP3 SWAP2 POP POP JUMP JUMPDEST PUSH1 0x0 DUP2 CALLDATALOAD SWAP1 POP PUSH2 0x1C4C DUP2 PUSH2 0x3440 JUMP JUMPDEST SWAP3 SWAP2 POP POP JUMP JUMPDEST PUSH1 0x0 PUSH1 0x20 DUP3 DUP5 SUB SLT ISZERO PUSH2 0x1C68 JUMPI PUSH2 0x1C67 PUSH2 0x2D42 JUMP JUMPDEST JUMPDEST PUSH1 0x0 PUSH2 0x1C76 DUP5 DUP3 DUP6 ADD PUSH2 0x1B89 JUMP JUMPDEST SWAP2 POP POP SWAP3 SWAP2 POP POP JUMP JUMPDEST PUSH1 0x0 DUP1 PUSH1 0x0 DUP1 PUSH1 0x0 DUP1 PUSH1 0x0 DUP1 PUSH1 0x0 PUSH2 0x200 DUP11 DUP13 SUB SLT ISZERO PUSH2 0x1CA2 JUMPI PUSH2 0x1CA1 PUSH2 0x2D42 JUMP JUMPDEST JUMPDEST PUSH1 0x0 PUSH2 0x1CB0 DUP13 DUP3 DUP14 ADD PUSH2 0x1B89 JUMP JUMPDEST SWAP10 POP POP PUSH1 0x20 PUSH2 0x1CC1 DUP13 DUP3 DUP14 ADD PUSH2 0x1C3D JUMP JUMPDEST SWAP9 POP POP PUSH1 0x40 PUSH2 0x1CD2 DUP13 DUP3 DUP14 ADD PUSH2 0x1C3D JUMP JUMPDEST SWAP8 POP POP PUSH1 0x60 PUSH2 0x1CE3 DUP13 DUP3 DUP14 ADD PUSH2 0x1C1E JUMP JUMPDEST SWAP7 POP POP PUSH1 0xC0 PUSH2 0x1CF4 DUP13 DUP3 DUP14 ADD PUSH2 0x1C1E JUMP JUMPDEST SWAP6 POP POP PUSH2 0x120 PUSH2 0x1D06 DUP13 DUP3 DUP14 ADD PUSH2 0x1C1E JUMP JUMPDEST SWAP5 POP POP PUSH2 0x180 PUSH2 0x1D18 DUP13 DUP3 DUP14 ADD PUSH2 0x1C1E JUMP JUMPDEST SWAP4 POP POP PUSH2 0x1E0 DUP11 ADD CALLDATALOAD PUSH8 0xFFFFFFFFFFFFFFFF DUP2 GT ISZERO PUSH2 0x1D3A JUMPI PUSH2 0x1D39 PUSH2 0x2D3D JUMP JUMPDEST JUMPDEST PUSH2 0x1D46 DUP13 DUP3 DUP14 ADD PUSH2 0x1BC8 JUMP JUMPDEST SWAP3 POP SWAP3 POP POP SWAP3 SWAP6 SWAP9 POP SWAP3 SWAP6 SWAP9 POP SWAP3 SWAP6 SWAP9 JUMP JUMPDEST PUSH1 0x0 DUP1 PUSH1 0x40 DUP4 DUP6 SUB SLT ISZERO PUSH2 0x1D6F JUMPI PUSH2 0x1D6E PUSH2 0x2D42 JUMP JUMPDEST JUMPDEST PUSH1 0x0 PUSH2 0x1D7D DUP6 DUP3 DUP7 ADD PUSH2 0x1B9E JUMP JUMPDEST SWAP3 POP POP PUSH1 0x20 PUSH2 0x1D8E DUP6 DUP3 DUP7 ADD PUSH2 0x1BB3 JUMP JUMPDEST SWAP2 POP POP SWAP3 POP SWAP3 SWAP1 POP JUMP JUMPDEST PUSH1 0x0 PUSH1 0x20 DUP3 DUP5 SUB SLT ISZERO PUSH2 0x1DAE JUMPI PUSH2 0x1DAD PUSH2 0x2D42 JUMP JUMPDEST JUMPDEST PUSH1 0x0 PUSH2 0x1DBC DUP5 DUP3 DUP6 ADD PUSH2 0x1C3D JUMP JUMPDEST SWAP2 POP POP SWAP3 SWAP2 POP POP JUMP JUMPDEST PUSH1 0x0 DUP1 PUSH1 0x40 DUP4 DUP6 SUB SLT ISZERO PUSH2 0x1DDC JUMPI PUSH2 0x1DDB PUSH2 0x2D42 JUMP JUMPDEST JUMPDEST PUSH1 0x0 PUSH2 0x1DEA DUP6 DUP3 DUP7 ADD PUSH2 0x1C3D JUMP JUMPDEST SWAP3 POP POP PUSH1 0x20 PUSH2 0x1DFB DUP6 DUP3 DUP7 ADD PUSH2 0x1B9E JUMP JUMPDEST SWAP2 POP POP SWAP3 POP SWAP3 SWAP1 POP JUMP JUMPDEST PUSH1 0x0 DUP1 PUSH1 0x0 PUSH1 0x60 DUP5 DUP7 SUB SLT ISZERO PUSH2 0x1E1E JUMPI PUSH2 0x1E1D PUSH2 0x2D42 JUMP JUMPDEST JUMPDEST PUSH1 0x0 PUSH2 0x1E2C DUP7 DUP3 DUP8 ADD PUSH2 0x1C3D JUMP JUMPDEST SWAP4 POP POP PUSH1 0x20 PUSH2 0x1E3D DUP7 DUP3 DUP8 ADD PUSH2 0x1B9E JUMP JUMPDEST SWAP3 POP POP PUSH1 0x40 PUSH2 0x1E4E DUP7 DUP3 DUP8 ADD PUSH2 0x1BB3 JUMP JUMPDEST SWAP2 POP POP SWAP3 POP SWAP3 POP SWAP3 JUMP JUMPDEST PUSH1 0x0 DUP1 PUSH1 0x40 DUP4 DUP6 SUB SLT ISZERO PUSH2 0x1E6F JUMPI PUSH2 0x1E6E PUSH2 0x2D42 JUMP JUMPDEST JUMPDEST PUSH1 0x0 PUSH2 0x1E7D DUP6 DUP3 DUP7 ADD PUSH2 0x1C3D JUMP JUMPDEST SWAP3 POP POP PUSH1 0x20 PUSH2 0x1E8E DUP6 DUP3 DUP7 ADD PUSH2 0x1BB3 JUMP JUMPDEST SWAP2 POP POP SWAP3 POP SWAP3 SWAP1 POP JUMP JUMPDEST PUSH1 0x0 PUSH2 0x1EA4 DUP4 DUP4 PUSH2 0x2459 JUMP JUMPDEST PUSH1 0x60 DUP4 ADD SWAP1 POP SWAP3 SWAP2 POP POP JUMP JUMPDEST PUSH2 0x1EB9 DUP2 PUSH2 0x2A32 JUMP JUMPDEST DUP3 MSTORE POP POP JUMP JUMPDEST PUSH2 0x1EC8 DUP2 PUSH2 0x2A32 JUMP JUMPDEST DUP3 MSTORE POP POP JUMP JUMPDEST PUSH2 0x1ED7 DUP2 PUSH2 0x2949 JUMP JUMPDEST PUSH2 0x1EE1 DUP2 DUP5 PUSH2 0x2961 JUMP JUMPDEST SWAP3 POP PUSH2 0x1EEC DUP3 PUSH2 0x292A JUMP JUMPDEST DUP1 PUSH1 0x0 JUMPDEST DUP4 DUP2 LT ISZERO PUSH2 0x1F1C JUMPI DUP2 PUSH2 0x1F03 DUP8 DUP3 PUSH2 0x1E98 JUMP JUMPDEST SWAP7 POP PUSH2 0x1F0E DUP4 PUSH2 0x2954 JUMP JUMPDEST SWAP3 POP POP PUSH1 0x1 DUP2 ADD SWAP1 POP PUSH2 0x1EF0 JUMP JUMPDEST POP POP POP POP POP POP JUMP JUMPDEST PUSH2 0x1F2D DUP2 PUSH2 0x2A44 JUMP JUMPDEST DUP3 MSTORE POP POP JUMP JUMPDEST PUSH2 0x1F3C DUP2 PUSH2 0x2A44 JUMP JUMPDEST DUP3 MSTORE POP POP JUMP JUMPDEST PUSH2 0x1F53 PUSH2 0x1F4E DUP3 PUSH2 0x2A44 JUMP JUMPDEST PUSH2 0x2C1F JUMP JUMPDEST DUP3 MSTORE POP POP JUMP JUMPDEST PUSH2 0x1F62 DUP2 PUSH2 0x2A50 JUMP JUMPDEST DUP3 MSTORE POP POP JUMP JUMPDEST PUSH2 0x1F71 DUP2 PUSH2 0x2A50 JUMP JUMPDEST DUP3 MSTORE POP POP JUMP JUMPDEST PUSH2 0x1F88 PUSH2 0x1F83 DUP3 PUSH2 0x2A50 JUMP JUMPDEST PUSH2 0x2C31 JUMP JUMPDEST DUP3 MSTORE POP POP JUMP JUMPDEST PUSH2 0x1F97 DUP2 PUSH2 0x2A97 JUMP JUMPDEST DUP3 MSTORE POP POP JUMP JUMPDEST PUSH2 0x1FA6 DUP2 PUSH2 0x2A97 JUMP JUMPDEST DUP3 MSTORE POP POP JUMP JUMPDEST PUSH1 0x0 DUP2 SLOAD PUSH2 0x1FB9 DUP2 PUSH2 0x2B22 JUMP JUMPDEST PUSH2 0x1FC3 DUP2 DUP7 PUSH2 0x296C JUMP JUMPDEST SWAP5 POP PUSH1 0x1 DUP3 AND PUSH1 0x0 DUP2 EQ PUSH2 0x1FDE JUMPI PUSH1 0x1 DUP2 EQ PUSH2 0x1FF0 JUMPI PUSH2 0x2023 JUMP JUMPDEST PUSH1 0xFF NOT DUP4 AND DUP7 MSTORE PUSH1 0x20 DUP7 ADD SWAP4 POP PUSH2 0x2023 JUMP JUMPDEST PUSH2 0x1FF9 DUP6 PUSH2 0x2934 JUMP JUMPDEST PUSH1 0x0 JUMPDEST DUP4 DUP2 LT ISZERO PUSH2 0x201B JUMPI DUP2 SLOAD DUP2 DUP10 ADD MSTORE PUSH1 0x1 DUP3 ADD SWAP2 POP PUSH1 0x20 DUP2 ADD SWAP1 POP PUSH2 0x1FFC JUMP JUMPDEST DUP1 DUP9 ADD SWAP6 POP POP POP JUMPDEST POP POP POP SWAP3 SWAP2 POP POP JUMP JUMPDEST PUSH1 0x0 PUSH2 0x2039 PUSH1 0x4D DUP4 PUSH2 0x297D JUMP JUMPDEST SWAP2 POP PUSH2 0x2044 DUP3 PUSH2 0x2D6E JUMP JUMPDEST PUSH1 0x60 DUP3 ADD SWAP1 POP SWAP2 SWAP1 POP JUMP JUMPDEST PUSH1 0x0 PUSH2 0x205C PUSH1 0x2E DUP4 PUSH2 0x297D JUMP JUMPDEST SWAP2 POP PUSH2 0x2067 DUP3 PUSH2 0x2DE3 JUMP JUMPDEST PUSH1 0x40 DUP3 ADD SWAP1 POP SWAP2 SWAP1 POP JUMP JUMPDEST PUSH1 0x0 PUSH2 0x207F PUSH1 0x2F DUP4 PUSH2 0x297D JUMP JUMPDEST SWAP2 POP PUSH2 0x208A DUP3 PUSH2 0x2E32 JUMP JUMPDEST PUSH1 0x40 DUP3 ADD SWAP1 POP SWAP2 SWAP1 POP JUMP JUMPDEST PUSH1 0x0 PUSH2 0x20A2 PUSH1 0x22 DUP4 PUSH2 0x297D JUMP JUMPDEST SWAP2 POP PUSH2 0x20AD DUP3 PUSH2 0x2E81 JUMP JUMPDEST PUSH1 0x40 DUP3 ADD SWAP1 POP SWAP2 SWAP1 POP JUMP JUMPDEST PUSH1 0x0 PUSH2 0x20C5 PUSH1 0x35 DUP4 PUSH2 0x297D JUMP JUMPDEST SWAP2 POP PUSH2 0x20D0 DUP3 PUSH2 0x2ED0 JUMP JUMPDEST PUSH1 0x40 DUP3 ADD SWAP1 POP SWAP2 SWAP1 POP JUMP JUMPDEST PUSH1 0x0 PUSH2 0x20E8 PUSH1 0x2D DUP4 PUSH2 0x297D JUMP JUMPDEST SWAP2 POP PUSH2 0x20F3 DUP3 PUSH2 0x2F1F JUMP JUMPDEST PUSH1 0x40 DUP3 ADD SWAP1 POP SWAP2 SWAP1 POP JUMP JUMPDEST PUSH1 0x0 PUSH2 0x210B PUSH1 0x2E DUP4 PUSH2 0x297D JUMP JUMPDEST SWAP2 POP PUSH2 0x2116 DUP3 PUSH2 0x2F6E JUMP JUMPDEST PUSH1 0x40 DUP3 ADD SWAP1 POP SWAP2 SWAP1 POP JUMP JUMPDEST PUSH1 0x0 PUSH2 0x212E PUSH1 0x27 DUP4 PUSH2 0x297D JUMP JUMPDEST SWAP2 POP PUSH2 0x2139 DUP3 PUSH2 0x2FBD JUMP JUMPDEST PUSH1 0x40 DUP3 ADD SWAP1 POP SWAP2 SWAP1 POP JUMP JUMPDEST PUSH1 0x0 PUSH2 0x2151 PUSH1 0x2D DUP4 PUSH2 0x297D JUMP JUMPDEST SWAP2 POP PUSH2 0x215C DUP3 PUSH2 0x300C JUMP JUMPDEST PUSH1 0x40 DUP3 ADD SWAP1 POP SWAP2 SWAP1 POP JUMP JUMPDEST PUSH1 0x0 PUSH2 0x2174 PUSH1 0x29 DUP4 PUSH2 0x297D JUMP JUMPDEST SWAP2 POP PUSH2 0x217F DUP3 PUSH2 0x305B JUMP JUMPDEST PUSH1 0x40 DUP3 ADD SWAP1 POP SWAP2 SWAP1 POP JUMP JUMPDEST PUSH1 0x0 PUSH2 0x2197 PUSH1 0x32 DUP4 PUSH2 0x297D JUMP JUMPDEST SWAP2 POP PUSH2 0x21A2 DUP3 PUSH2 0x30AA JUMP JUMPDEST PUSH1 0x40 DUP3 ADD SWAP1 POP SWAP2 SWAP1 POP JUMP JUMPDEST PUSH1 0x0 PUSH2 0x21BA PUSH1 0x2C DUP4 PUSH2 0x297D JUMP JUMPDEST SWAP2 POP PUSH2 0x21C5 DUP3 PUSH2 0x30F9 JUMP JUMPDEST PUSH1 0x40 DUP3 ADD SWAP1 POP SWAP2 SWAP1 POP JUMP JUMPDEST PUSH1 0x0 PUSH2 0x21DD PUSH1 0x20 DUP4 PUSH2 0x297D JUMP JUMPDEST SWAP2 POP PUSH2 0x21E8 DUP3 PUSH2 0x3148 JUMP JUMPDEST PUSH1 0x20 DUP3 ADD SWAP1 POP SWAP2 SWAP1 POP JUMP JUMPDEST PUSH1 0x0 PUSH2 0x2200 PUSH1 0x36 DUP4 PUSH2 0x297D JUMP JUMPDEST SWAP2 POP PUSH2 0x220B DUP3 PUSH2 0x3171 JUMP JUMPDEST PUSH1 0x40 DUP3 ADD SWAP1 POP SWAP2 SWAP1 POP JUMP JUMPDEST PUSH1 0x0 PUSH2 0x2223 PUSH1 0x2D DUP4 PUSH2 0x297D JUMP JUMPDEST SWAP2 POP PUSH2 0x222E DUP3 PUSH2 0x31C0 JUMP JUMPDEST PUSH1 0x40 DUP3 ADD SWAP1 POP SWAP2 SWAP1 POP JUMP JUMPDEST PUSH1 0x0 PUSH2 0x2246 PUSH1 0x31 DUP4 PUSH2 0x297D JUMP JUMPDEST SWAP2 POP PUSH2 0x2251 DUP3 PUSH2 0x320F JUMP JUMPDEST PUSH1 0x40 DUP3 ADD SWAP1 POP SWAP2 SWAP1 POP JUMP JUMPDEST PUSH1 0x0 PUSH2 0x2269 PUSH1 0x2B DUP4 PUSH2 0x297D JUMP JUMPDEST SWAP2 POP PUSH2 0x2274 DUP3 PUSH2 0x325E JUMP JUMPDEST PUSH1 0x40 DUP3 ADD SWAP1 POP SWAP2 SWAP1 POP JUMP JUMPDEST PUSH1 0x0 PUSH2 0x228C PUSH1 0x2B DUP4 PUSH2 0x297D JUMP JUMPDEST SWAP2 POP PUSH2 0x2297 DUP3 PUSH2 0x32AD JUMP JUMPDEST PUSH1 0x40 DUP3 ADD SWAP1 POP SWAP2 SWAP1 POP JUMP JUMPDEST PUSH1 0x0 PUSH2 0x22AF PUSH1 0x1C DUP4 PUSH2 0x297D JUMP JUMPDEST SWAP2 POP PUSH2 0x22BA DUP3 PUSH2 0x32FC JUMP JUMPDEST PUSH1 0x20 DUP3 ADD SWAP1 POP SWAP2 SWAP1 POP JUMP JUMPDEST PUSH1 0x0 PUSH2 0x22D2 PUSH1 0x2D DUP4 PUSH2 0x297D JUMP JUMPDEST SWAP2 POP PUSH2 0x22DD DUP3 PUSH2 0x3325 JUMP JUMPDEST PUSH1 0x40 DUP3 ADD SWAP1 POP SWAP2 SWAP1 POP JUMP JUMPDEST PUSH1 0x0 PUSH2 0x2E0 DUP4 ADD PUSH1 0x0 DUP1 DUP5 ADD SLOAD SWAP1 POP PUSH2 0x2300 DUP2 PUSH2 0x2B54 JUMP JUMPDEST PUSH2 0x230D PUSH1 0x0 DUP8 ADD DUP3 PUSH2 0x1EB0 JUMP JUMPDEST POP PUSH1 0x1 DUP5 ADD SLOAD SWAP1 POP PUSH2 0x231E DUP2 PUSH2 0x2B54 JUMP JUMPDEST PUSH2 0x232B PUSH1 0x20 DUP8 ADD DUP3 PUSH2 0x1EB0 JUMP JUMPDEST POP PUSH1 0x2 DUP5 ADD SLOAD SWAP1 POP PUSH2 0x233C DUP2 PUSH2 0x2BBC JUMP JUMPDEST PUSH2 0x2349 PUSH1 0x40 DUP8 ADD DUP3 PUSH2 0x24BE JUMP JUMPDEST POP PUSH1 0x3 DUP5 ADD SLOAD SWAP1 POP PUSH2 0x235A DUP2 PUSH2 0x2BBC JUMP JUMPDEST PUSH2 0x2367 PUSH1 0x60 DUP8 ADD DUP3 PUSH2 0x24BE JUMP JUMPDEST POP PUSH1 0x4 DUP5 ADD PUSH2 0x2379 PUSH1 0x80 DUP8 ADD DUP3 PUSH2 0x1ECE JUMP JUMPDEST POP PUSH1 0x10 DUP5 ADD DUP6 DUP4 SUB PUSH2 0x200 DUP8 ADD MSTORE PUSH2 0x2391 DUP4 DUP3 PUSH2 0x1FAC JUMP JUMPDEST SWAP3 POP POP PUSH1 0x11 DUP5 ADD SLOAD SWAP1 POP PUSH2 0x23A4 DUP2 PUSH2 0x2B88 JUMP JUMPDEST PUSH2 0x23B2 PUSH2 0x220 DUP8 ADD DUP3 PUSH2 0x1F59 JUMP JUMPDEST POP PUSH1 0x12 DUP5 ADD SLOAD SWAP1 POP PUSH2 0x23C3 DUP2 PUSH2 0x2B6E JUMP JUMPDEST PUSH2 0x23D1 PUSH2 0x240 DUP8 ADD DUP3 PUSH2 0x1F24 JUMP JUMPDEST POP PUSH1 0x13 DUP5 ADD SLOAD SWAP1 POP PUSH2 0x23E2 DUP2 PUSH2 0x2BBC JUMP JUMPDEST PUSH2 0x23F0 PUSH2 0x260 DUP8 ADD DUP3 PUSH2 0x24BE JUMP JUMPDEST POP PUSH1 0x14 DUP5 ADD SLOAD SWAP1 POP PUSH2 0x2401 DUP2 PUSH2 0x2B6E JUMP JUMPDEST PUSH2 0x240F PUSH2 0x280 DUP8 ADD DUP3 PUSH2 0x1F24 JUMP JUMPDEST POP PUSH1 0x15 DUP5 ADD SLOAD SWAP1 POP PUSH2 0x2420 DUP2 PUSH2 0x2B88 JUMP JUMPDEST PUSH2 0x242E PUSH2 0x2A0 DUP8 ADD DUP3 PUSH2 0x1F59 JUMP JUMPDEST POP PUSH1 0x16 DUP5 ADD SLOAD SWAP1 POP PUSH2 0x243F DUP2 PUSH2 0x2BA2 JUMP JUMPDEST PUSH2 0x244D PUSH2 0x2C0 DUP8 ADD DUP3 PUSH2 0x1F8E JUMP JUMPDEST POP DUP2 SWAP3 POP POP POP SWAP3 SWAP2 POP POP JUMP JUMPDEST PUSH1 0x60 DUP3 ADD PUSH1 0x0 DUP1 DUP4 ADD SLOAD SWAP1 POP PUSH2 0x246E DUP2 PUSH2 0x2BBC JUMP JUMPDEST PUSH2 0x247B PUSH1 0x0 DUP7 ADD DUP3 PUSH2 0x24BE JUMP JUMPDEST POP PUSH1 0x1 DUP4 ADD SLOAD SWAP1 POP PUSH2 0x248C DUP2 PUSH2 0x2BBC JUMP JUMPDEST PUSH2 0x2499 PUSH1 0x20 DUP7 ADD DUP3 PUSH2 0x24BE JUMP JUMPDEST POP PUSH1 0x2 DUP4 ADD SLOAD SWAP1 POP PUSH2 0x24AA DUP2 PUSH2 0x2BBC JUMP JUMPDEST PUSH2 0x24B7 PUSH1 0x40 DUP7 ADD DUP3 PUSH2 0x24BE JUMP JUMPDEST POP POP POP POP POP JUMP JUMPDEST PUSH2 0x24C7 DUP2 PUSH2 0x2A8D JUMP JUMPDEST DUP3 MSTORE POP POP JUMP JUMPDEST PUSH2 0x24D6 DUP2 PUSH2 0x2A8D JUMP JUMPDEST DUP3 MSTORE POP POP JUMP JUMPDEST PUSH1 0x0 PUSH2 0x24E8 DUP3 DUP6 PUSH2 0x1F42 JUMP JUMPDEST PUSH1 0x1 DUP3 ADD SWAP2 POP PUSH2 0x24F8 DUP3 DUP5 PUSH2 0x1F77 JUMP JUMPDEST PUSH1 0x20 DUP3 ADD SWAP2 POP DUP2 SWAP1 POP SWAP4 SWAP3 POP POP POP JUMP JUMPDEST PUSH1 0x0 PUSH1 0x40 DUP3 ADD SWAP1 POP PUSH2 0x251D PUSH1 0x0 DUP4 ADD DUP6 PUSH2 0x1EBF JUMP JUMPDEST PUSH2 0x252A PUSH1 0x20 DUP4 ADD DUP5 PUSH2 0x24CD JUMP JUMPDEST SWAP4 SWAP3 POP POP POP JUMP JUMPDEST PUSH1 0x0 PUSH1 0x20 DUP3 ADD SWAP1 POP PUSH2 0x2546 PUSH1 0x0 DUP4 ADD DUP5 PUSH2 0x1F68 JUMP JUMPDEST SWAP3 SWAP2 POP POP JUMP JUMPDEST PUSH1 0x0 PUSH1 0x20 DUP3 ADD SWAP1 POP DUP2 DUP2 SUB PUSH1 0x0 DUP4 ADD MSTORE PUSH2 0x2565 DUP2 PUSH2 0x202C JUMP JUMPDEST SWAP1 POP SWAP2 SWAP1 POP JUMP JUMPDEST PUSH1 0x0 PUSH1 0x20 DUP3 ADD SWAP1 POP DUP2 DUP2 SUB PUSH1 0x0 DUP4 ADD MSTORE PUSH2 0x2585 DUP2 PUSH2 0x204F JUMP JUMPDEST SWAP1 POP SWAP2 SWAP1 POP JUMP JUMPDEST PUSH1 0x0 PUSH1 0x20 DUP3 ADD SWAP1 POP DUP2 DUP2 SUB PUSH1 0x0 DUP4 ADD MSTORE PUSH2 0x25A5 DUP2 PUSH2 0x2072 JUMP JUMPDEST SWAP1 POP SWAP2 SWAP1 POP JUMP JUMPDEST PUSH1 0x0 PUSH1 0x20 DUP3 ADD SWAP1 POP DUP2 DUP2 SUB PUSH1 0x0 DUP4 ADD MSTORE PUSH2 0x25C5 DUP2 PUSH2 0x2095 JUMP JUMPDEST SWAP1 POP SWAP2 SWAP1 POP JUMP JUMPDEST PUSH1 0x0 PUSH1 0x20 DUP3 ADD SWAP1 POP DUP2 DUP2 SUB PUSH1 0x0 DUP4 ADD MSTORE PUSH2 0x25E5 DUP2 PUSH2 0x20B8 JUMP JUMPDEST SWAP1 POP SWAP2 SWAP1 POP JUMP JUMPDEST PUSH1 0x0 PUSH1 0x20 DUP3 ADD SWAP1 POP DUP2 DUP2 SUB PUSH1 0x0 DUP4 ADD MSTORE PUSH2 0x2605 DUP2 PUSH2 0x20DB JUMP JUMPDEST SWAP1 POP SWAP2 SWAP1 POP JUMP JUMPDEST PUSH1 0x0 PUSH1 0x20 DUP3 ADD SWAP1 POP DUP2 DUP2 SUB PUSH1 0x0 DUP4 ADD MSTORE PUSH2 0x2625 DUP2 PUSH2 0x20FE JUMP JUMPDEST SWAP1 POP SWAP2 SWAP1 POP JUMP JUMPDEST PUSH1 0x0 PUSH1 0x20 DUP3 ADD SWAP1 POP DUP2 DUP2 SUB PUSH1 0x0 DUP4 ADD MSTORE PUSH2 0x2645 DUP2 PUSH2 0x2121 JUMP JUMPDEST SWAP1 POP SWAP2 SWAP1 POP JUMP JUMPDEST PUSH1 0x0 PUSH1 0x20 DUP3 ADD SWAP1 POP DUP2 DUP2 SUB PUSH1 0x0 DUP4 ADD MSTORE PUSH2 0x2665 DUP2 PUSH2 0x2144 JUMP JUMPDEST SWAP1 POP SWAP2 SWAP1 POP JUMP JUMPDEST PUSH1 0x0 PUSH1 0x20 DUP3 ADD SWAP1 POP DUP2 DUP2 SUB PUSH1 0x0 DUP4 ADD MSTORE PUSH2 0x2685 DUP2 PUSH2 0x2167 JUMP JUMPDEST SWAP1 POP SWAP2 SWAP1 POP JUMP JUMPDEST PUSH1 0x0 PUSH1 0x20 DUP3 ADD SWAP1 POP DUP2 DUP2 SUB PUSH1 0x0 DUP4 ADD MSTORE PUSH2 0x26A5 DUP2 PUSH2 0x218A JUMP JUMPDEST SWAP1 POP SWAP2 SWAP1 POP JUMP JUMPDEST PUSH1 0x0 PUSH1 0x20 DUP3 ADD SWAP1 POP DUP2 DUP2 SUB PUSH1 0x0 DUP4 ADD MSTORE PUSH2 0x26C5 DUP2 PUSH2 0x21AD JUMP JUMPDEST SWAP1 POP SWAP2 SWAP1 POP JUMP JUMPDEST PUSH1 0x0 PUSH1 0x20 DUP3 ADD SWAP1 POP DUP2 DUP2 SUB PUSH1 0x0 DUP4 ADD MSTORE PUSH2 0x26E5 DUP2 PUSH2 0x21D0 JUMP JUMPDEST SWAP1 POP SWAP2 SWAP1 POP JUMP JUMPDEST PUSH1 0x0 PUSH1 0x20 DUP3 ADD SWAP1 POP DUP2 DUP2 SUB PUSH1 0x0 DUP4 ADD MSTORE PUSH2 0x2705 DUP2 PUSH2 0x21F3 JUMP JUMPDEST SWAP1 POP SWAP2 SWAP1 POP JUMP JUMPDEST PUSH1 0x0 PUSH1 0x20 DUP3 ADD SWAP1 POP DUP2 DUP2 SUB PUSH1 0x0 DUP4 ADD MSTORE PUSH2 0x2725 DUP2 PUSH2 0x2216 JUMP JUMPDEST SWAP1 POP SWAP2 SWAP1 POP JUMP JUMPDEST PUSH1 0x0 PUSH1 0x20 DUP3 ADD SWAP1 POP DUP2 DUP2 SUB PUSH1 0x0 DUP4 ADD MSTORE PUSH2 0x2745 DUP2 PUSH2 0x2239 JUMP JUMPDEST SWAP1 POP SWAP2 SWAP1 POP JUMP JUMPDEST PUSH1 0x0 PUSH1 0x20 DUP3 ADD SWAP1 POP DUP2 DUP2 SUB PUSH1 0x0 DUP4 ADD MSTORE PUSH2 0x2765 DUP2 PUSH2 0x225C JUMP JUMPDEST SWAP1 POP SWAP2 SWAP1 POP JUMP JUMPDEST PUSH1 0x0 PUSH1 0x20 DUP3 ADD SWAP1 POP DUP2 DUP2 SUB PUSH1 0x0 DUP4 ADD MSTORE PUSH2 0x2785 DUP2 PUSH2 0x227F JUMP JUMPDEST SWAP1 POP SWAP2 SWAP1 POP JUMP JUMPDEST PUSH1 0x0 PUSH1 0x20 DUP3 ADD SWAP1 POP DUP2 DUP2 SUB PUSH1 0x0 DUP4 ADD MSTORE PUSH2 0x27A5 DUP2 PUSH2 0x22A2 JUMP JUMPDEST SWAP1 POP SWAP2 SWAP1 POP JUMP JUMPDEST PUSH1 0x0 PUSH1 0x20 DUP3 ADD SWAP1 POP DUP2 DUP2 SUB PUSH1 0x0 DUP4 ADD MSTORE PUSH2 0x27C5 DUP2 PUSH2 0x22C5 JUMP JUMPDEST SWAP1 POP SWAP2 SWAP1 POP JUMP JUMPDEST PUSH1 0x0 PUSH1 0x20 DUP3 ADD SWAP1 POP DUP2 DUP2 SUB PUSH1 0x0 DUP4 ADD MSTORE PUSH2 0x27E6 DUP2 DUP5 PUSH2 0x22E8 JUMP JUMPDEST SWAP1 POP SWAP3 SWAP2 POP POP JUMP JUMPDEST PUSH1 0x0 PUSH1 0x20 DUP3 ADD SWAP1 POP PUSH2 0x2803 PUSH1 0x0 DUP4 ADD DUP5 PUSH2 0x24CD JUMP JUMPDEST SWAP3 SWAP2 POP POP JUMP JUMPDEST PUSH1 0x0 PUSH1 0x60 DUP3 ADD SWAP1 POP PUSH2 0x281E PUSH1 0x0 DUP4 ADD DUP7 PUSH2 0x24CD JUMP JUMPDEST PUSH2 0x282B PUSH1 0x20 DUP4 ADD DUP6 PUSH2 0x1F33 JUMP JUMPDEST PUSH2 0x2838 PUSH1 0x40 DUP4 ADD DUP5 PUSH2 0x1F68 JUMP JUMPDEST SWAP5 SWAP4 POP POP POP POP JUMP JUMPDEST PUSH1 0x0 PUSH1 0x80 DUP3 ADD SWAP1 POP PUSH2 0x2855 PUSH1 0x0 DUP4 ADD DUP8 PUSH2 0x24CD JUMP JUMPDEST PUSH2 0x2862 PUSH1 0x20 DUP4 ADD DUP7 PUSH2 0x1F33 JUMP JUMPDEST PUSH2 0x286F PUSH1 0x40 DUP4 ADD DUP6 PUSH2 0x1F68 JUMP JUMPDEST PUSH2 0x287C PUSH1 0x60 DUP4 ADD DUP5 PUSH2 0x1F9D JUMP JUMPDEST SWAP6 SWAP5 POP POP POP POP POP JUMP JUMPDEST PUSH1 0x0 PUSH1 0x80 DUP3 ADD SWAP1 POP PUSH2 0x289A PUSH1 0x0 DUP4 ADD DUP8 PUSH2 0x24CD JUMP JUMPDEST PUSH2 0x28A7 PUSH1 0x20 DUP4 ADD DUP7 PUSH2 0x1F33 JUMP JUMPDEST PUSH2 0x28B4 PUSH1 0x40 DUP4 ADD DUP6 PUSH2 0x24CD JUMP JUMPDEST PUSH2 0x28C1 PUSH1 0x60 DUP4 ADD DUP5 PUSH2 0x1F9D JUMP JUMPDEST SWAP6 SWAP5 POP POP POP POP POP JUMP JUMPDEST PUSH1 0x0 PUSH1 0x60 DUP3 ADD SWAP1 POP PUSH2 0x28DF PUSH1 0x0 DUP4 ADD DUP7 PUSH2 0x24CD JUMP JUMPDEST PUSH2 0x28EC PUSH1 0x20 DUP4 ADD DUP6 PUSH2 0x1F68 JUMP JUMPDEST PUSH2 0x28F9 PUSH1 0x40 DUP4 ADD DUP5 PUSH2 0x1F9D JUMP JUMPDEST SWAP5 SWAP4 POP POP POP POP JUMP JUMPDEST PUSH1 0x0 PUSH1 0x40 DUP3 ADD SWAP1 POP PUSH2 0x2916 PUSH1 0x0 DUP4 ADD DUP6 PUSH2 0x24CD JUMP JUMPDEST PUSH2 0x2923 PUSH1 0x20 DUP4 ADD DUP5 PUSH2 0x1F9D JUMP JUMPDEST SWAP4 SWAP3 POP POP POP JUMP JUMPDEST PUSH1 0x0 DUP2 SWAP1 POP SWAP2 SWAP1 POP JUMP JUMPDEST PUSH1 0x0 DUP2 SWAP1 POP DUP2 PUSH1 0x0 MSTORE PUSH1 0x20 PUSH1 0x0 KECCAK256 SWAP1 POP SWAP2 SWAP1 POP JUMP JUMPDEST PUSH1 0x0 PUSH1 0x4 SWAP1 POP SWAP2 SWAP1 POP JUMP JUMPDEST PUSH1 0x0 PUSH1 0x3 DUP3 ADD SWAP1 POP SWAP2 SWAP1 POP JUMP JUMPDEST PUSH1 0x0 DUP2 SWAP1 POP SWAP3 SWAP2 POP POP JUMP JUMPDEST PUSH1 0x0 DUP3 DUP3 MSTORE PUSH1 0x20 DUP3 ADD SWAP1 POP SWAP3 SWAP2 POP POP JUMP JUMPDEST PUSH1 0x0 DUP3 DUP3 MSTORE PUSH1 0x20 DUP3 ADD SWAP1 POP SWAP3 SWAP2 POP POP JUMP JUMPDEST PUSH1 0x0 PUSH2 0x2999 DUP3 PUSH2 0x2A8D JUMP JUMPDEST SWAP2 POP PUSH2 0x29A4 DUP4 PUSH2 0x2A8D JUMP JUMPDEST SWAP3 POP DUP3 PUSH32 0xFFFFFFFFFFFFFFFFFFFFFFFFFFFFFFFFFFFFFFFFFFFFFFFFFFFFFFFFFFFFFFFF SUB DUP3 GT ISZERO PUSH2 0x29D9 JUMPI PUSH2 0x29D8 PUSH2 0x2C4D JUMP JUMPDEST JUMPDEST DUP3 DUP3 ADD SWAP1 POP SWAP3 SWAP2 POP POP JUMP JUMPDEST PUSH1 0x0 PUSH20 0xFFFFFFFFFFFFFFFFFFFFFFFFFFFFFFFFFFFFFFFF DUP3 AND SWAP1 POP SWAP2 SWAP1 POP JUMP JUMPDEST PUSH1 0x0 PUSH1 0xFF DUP3 AND SWAP1 POP SWAP2 SWAP1 POP JUMP JUMPDEST PUSH1 0x0 DUP2 SWAP1 POP SWAP2 SWAP1 POP JUMP JUMPDEST PUSH1 0x0 PUSH1 0xFF DUP3 AND SWAP1 POP SWAP2 SWAP1 POP JUMP JUMPDEST PUSH1 0x0 DUP2 SWAP1 POP SWAP2 SWAP1 POP JUMP JUMPDEST PUSH1 0x0 PUSH2 0x2A3D DUP3 PUSH2 0x2A6D JUMP JUMPDEST SWAP1 POP SWAP2 SWAP1 POP JUMP JUMPDEST PUSH1 0x0 DUP2 ISZERO ISZERO SWAP1 POP SWAP2 SWAP1 POP JUMP JUMPDEST PUSH1 0x0 DUP2 SWAP1 POP SWAP2 SWAP1 POP JUMP JUMPDEST PUSH1 0x0 DUP2 SWAP1 POP PUSH2 0x2A68 DUP3 PUSH2 0x33E7 JUMP JUMPDEST SWAP2 SWAP1 POP JUMP JUMPDEST PUSH1 0x0 PUSH20 0xFFFFFFFFFFFFFFFFFFFFFFFFFFFFFFFFFFFFFFFF DUP3 AND SWAP1 POP SWAP2 SWAP1 POP JUMP JUMPDEST PUSH1 0x0 DUP2 SWAP1 POP SWAP2 SWAP1 POP JUMP JUMPDEST PUSH1 0x0 PUSH2 0x2AA2 DUP3 PUSH2 0x2A5A JUMP JUMPDEST SWAP1 POP SWAP2 SWAP1 POP JUMP JUMPDEST PUSH1 0x0 PUSH2 0x2AB4 DUP3 PUSH2 0x2A8D JUMP JUMPDEST SWAP1 POP SWAP2 SWAP1 POP JUMP JUMPDEST PUSH1 0x0 DUP2 ADD PUSH1 0x0 DUP4 ADD DUP1 PUSH2 0x2ACD DUP2 PUSH2 0x2D13 JUMP JUMPDEST SWAP1 POP PUSH2 0x2AD9 DUP2 DUP5 PUSH2 0x33C4 JUMP JUMPDEST POP POP POP PUSH1 0x1 DUP2 ADD PUSH1 0x20 DUP4 ADD DUP1 PUSH2 0x2AEE DUP2 PUSH2 0x2D13 JUMP JUMPDEST SWAP1 POP PUSH2 0x2AFA DUP2 DUP5 PUSH2 0x33C4 JUMP JUMPDEST POP POP POP PUSH1 0x2 DUP2 ADD PUSH1 0x40 DUP4 ADD DUP1 PUSH2 0x2B0F DUP2 PUSH2 0x2D13 JUMP JUMPDEST SWAP1 POP PUSH2 0x2B1B DUP2 DUP5 PUSH2 0x33C4 JUMP JUMPDEST POP POP POP POP POP JUMP JUMPDEST PUSH1 0x0 PUSH1 0x2 DUP3 DIV SWAP1 POP PUSH1 0x1 DUP3 AND DUP1 PUSH2 0x2B3A JUMPI PUSH1 0x7F DUP3 AND SWAP2 POP JUMPDEST PUSH1 0x20 DUP3 LT DUP2 EQ ISZERO PUSH2 0x2B4E JUMPI PUSH2 0x2B4D PUSH2 0x2CAB JUMP JUMPDEST JUMPDEST POP SWAP2 SWAP1 POP JUMP JUMPDEST PUSH1 0x0 PUSH2 0x2B67 PUSH2 0x2B62 DUP4 PUSH2 0x2D61 JUMP JUMPDEST PUSH2 0x29E4 JUMP JUMPDEST SWAP1 POP SWAP2 SWAP1 POP JUMP JUMPDEST PUSH1 0x0 PUSH2 0x2B81 PUSH2 0x2B7C DUP4 PUSH2 0x2D61 JUMP JUMPDEST PUSH2 0x2A04 JUMP JUMPDEST SWAP1 POP SWAP2 SWAP1 POP JUMP JUMPDEST PUSH1 0x0 PUSH2 0x2B9B PUSH2 0x2B96 DUP4 PUSH2 0x2D61 JUMP JUMPDEST PUSH2 0x2A11 JUMP JUMPDEST SWAP1 POP SWAP2 SWAP1 POP JUMP JUMPDEST PUSH1 0x0 PUSH2 0x2BB5 PUSH2 0x2BB0 DUP4 PUSH2 0x2D61 JUMP JUMPDEST PUSH2 0x2A1B JUMP JUMPDEST SWAP1 POP SWAP2 SWAP1 POP JUMP JUMPDEST PUSH1 0x0 PUSH2 0x2BCF PUSH2 0x2BCA DUP4 PUSH2 0x2D61 JUMP JUMPDEST PUSH2 0x2A28 JUMP JUMPDEST SWAP1 POP SWAP2 SWAP1 POP JUMP JUMPDEST PUSH1 0x0 PUSH2 0x2BE1 DUP3 PUSH2 0x2A8D JUMP JUMPDEST SWAP2 POP PUSH32 0xFFFFFFFFFFFFFFFFFFFFFFFFFFFFFFFFFFFFFFFFFFFFFFFFFFFFFFFFFFFFFFFF DUP3 EQ ISZERO PUSH2 0x2C14 JUMPI PUSH2 0x2C13 PUSH2 0x2C4D JUMP JUMPDEST JUMPDEST PUSH1 0x1 DUP3 ADD SWAP1 POP SWAP2 SWAP1 POP JUMP JUMPDEST PUSH1 0x0 PUSH2 0x2C2A DUP3 PUSH2 0x2C3B JUMP JUMPDEST SWAP1 POP SWAP2 SWAP1 POP JUMP JUMPDEST PUSH1 0x0 DUP2 SWAP1 POP SWAP2 SWAP1 POP JUMP JUMPDEST PUSH1 0x0 PUSH2 0x2C46 DUP3 PUSH2 0x2D54 JUMP JUMPDEST SWAP1 POP SWAP2 SWAP1 POP JUMP JUMPDEST PUSH32 0x4E487B7100000000000000000000000000000000000000000000000000000000 PUSH1 0x0 MSTORE PUSH1 0x11 PUSH1 0x4 MSTORE PUSH1 0x24 PUSH1 0x0 REVERT JUMPDEST PUSH32 0x4E487B7100000000000000000000000000000000000000000000000000000000 PUSH1 0x0 MSTORE PUSH1 0x21 PUSH1 0x4 MSTORE PUSH1 0x24 PUSH1 0x0 REVERT JUMPDEST PUSH32 0x4E487B7100000000000000000000000000000000000000000000000000000000 PUSH1 0x0 MSTORE PUSH1 0x22 PUSH1 0x4 MSTORE PUSH1 0x24 PUSH1 0x0 REVERT JUMPDEST PUSH32 0x4E487B7100000000000000000000000000000000000000000000000000000000 PUSH1 0x0 MSTORE PUSH1 0x32 PUSH1 0x4 MSTORE PUSH1 0x24 PUSH1 0x0 REVERT JUMPDEST PUSH1 0x0 DUP2 SWAP1 POP SWAP2 SWAP1 POP JUMP JUMPDEST PUSH1 0x0 DUP2 CALLDATALOAD PUSH2 0x2D20 DUP2 PUSH2 0x3440 JUMP JUMPDEST DUP1 SWAP2 POP POP SWAP2 SWAP1 POP JUMP JUMPDEST PUSH1 0x0 DUP1 REVERT JUMPDEST PUSH1 0x0 DUP1 REVERT JUMPDEST PUSH1 0x0 DUP1 REVERT JUMPDEST PUSH1 0x0 DUP1 REVERT JUMPDEST PUSH1 0x0 DUP1 REVERT JUMPDEST PUSH1 0x0 DUP1 REVERT JUMPDEST PUSH1 0x0 DUP2 PUSH1 0x0 SHL SWAP1 POP SWAP2 SWAP1 POP JUMP JUMPDEST PUSH1 0x0 DUP2 PUSH1 0xF8 SHL SWAP1 POP SWAP2 SWAP1 POP JUMP JUMPDEST PUSH1 0x0 DUP2 PUSH1 0x0 SHR SWAP1 POP SWAP2 SWAP1 POP JUMP JUMPDEST PUSH32 0x74696D656F7574506163743A20426C6F636B206D757374206265206772656174 PUSH1 0x0 DUP3 ADD MSTORE PUSH32 0x6572207468616E206F7220657175616C20746F20616E73776572203220626C6F PUSH1 0x20 DUP3 ADD MSTORE PUSH32 0x636B202B2074696D656F75742E00000000000000000000000000000000000000 PUSH1 0x40 DUP3 ADD MSTORE POP JUMP JUMPDEST PUSH32 0x7375626D6974416E73776572313A204D6573736167652073656E646572206D75 PUSH1 0x0 DUP3 ADD MSTORE PUSH32 0x737420626520706172747920312E000000000000000000000000000000000000 PUSH1 0x20 DUP3 ADD MSTORE POP JUMP JUMPDEST PUSH32 0x74696D656F7574506163743A2050616374206D757374206861766520616E7377 PUSH1 0x0 DUP3 ADD MSTORE PUSH32 0x65722032207375626D69747465642E0000000000000000000000000000000000 PUSH1 0x20 DUP3 ADD MSTORE POP JUMP JUMPDEST PUSH32 0x63616E63656C506163743A2050616374206D7573742062652070726F706F7365 PUSH1 0x0 DUP3 ADD MSTORE PUSH32 0x642E000000000000000000000000000000000000000000000000000000000000 PUSH1 0x20 DUP3 ADD MSTORE POP JUMP JUMPDEST PUSH32 0x7365616C506163743A204D6573736167652076616C7565206E6F742065717561 PUSH1 0x0 DUP3 ADD MSTORE PUSH32 0x6C20746F2070617274792032206465706F7369742E0000000000000000000000 PUSH1 0x20 DUP3 ADD MSTORE POP JUMP JUMPDEST PUSH32 0x4465706F73697420746F74616C20646F6573206E6F7420657175616C204E4E20 PUSH1 0x0 DUP3 ADD MSTORE PUSH32 0x7061796F757420746F74616C2E00000000000000000000000000000000000000 PUSH1 0x20 DUP3 ADD MSTORE POP JUMP JUMPDEST PUSH32 0x7375626D6974416E73776572323A204D6573736167652073656E646572206D75 PUSH1 0x0 DUP3 ADD MSTORE PUSH32 0x737420626520706172747920322E000000000000000000000000000000000000 PUSH1 0x20 DUP3 ADD MSTORE POP JUMP JUMPDEST PUSH32 0x7375626D6974416E7377657231486173683A2050616374206D75737420626520 PUSH1 0x0 DUP3 ADD MSTORE PUSH32 0x7365616C65642E00000000000000000000000000000000000000000000000000 PUSH1 0x20 DUP3 ADD MSTORE POP JUMP JUMPDEST PUSH32 0x4465706F73697420746F74616C20646F6573206E6F7420657175616C204E5920 PUSH1 0x0 DUP3 ADD MSTORE PUSH32 0x7061796F757420746F74616C2E00000000000000000000000000000000000000 PUSH1 0x20 DUP3 ADD MSTORE POP JUMP JUMPDEST PUSH32 0x7365616C506163743A204D6573736167652073656E646572206D757374206265 PUSH1 0x0 DUP3 ADD MSTORE PUSH32 0x20706172747920322E0000000000000000000000000000000000000000000000 PUSH1 0x20 DUP3 ADD MSTORE POP JUMP JUMPDEST PUSH32 0x7375626D6974416E7377657231486173683A204D6573736167652073656E6465 PUSH1 0x0 DUP3 ADD MSTORE PUSH32 0x72206D75737420626520706172747920312E0000000000000000000000000000 PUSH1 0x20 DUP3 ADD MSTORE POP JUMP JUMPDEST PUSH32 0x74696D656F7574506163743A204D6573736167652073656E646572206D757374 PUSH1 0x0 DUP3 ADD MSTORE PUSH32 0x20626520706172747920322E0000000000000000000000000000000000000000 PUSH1 0x20 DUP3 ADD MSTORE POP JUMP JUMPDEST PUSH32 0x7365616C506163743A2050616374206D7573742062652070726F706F7365642E PUSH1 0x0 DUP3 ADD MSTORE POP JUMP JUMPDEST PUSH32 0x7375626D6974416E73776572323A2050616374206D757374206861766520616E PUSH1 0x0 DUP3 ADD MSTORE PUSH32 0x7377657220312068617368207375626D69747465642E00000000000000000000 PUSH1 0x20 DUP3 ADD MSTORE POP JUMP JUMPDEST PUSH32 0x4465706F73697420746F74616C20646F6573206E6F7420657175616C20594E20 PUSH1 0x0 DUP3 ADD MSTORE PUSH32 0x7061796F757420746F74616C2E00000000000000000000000000000000000000 PUSH1 0x20 DUP3 ADD MSTORE POP JUMP JUMPDEST PUSH32 0x7375626D6974416E73776572313A2050616374206D757374206861766520616E PUSH1 0x0 DUP3 ADD MSTORE PUSH32 0x737765722032207375626D69747465642E000000000000000000000000000000 PUSH1 0x20 DUP3 ADD MSTORE POP JUMP JUMPDEST PUSH32 0x4D6573736167652076616C7565206E6F7420657175616C20746F207061727479 PUSH1 0x0 DUP3 ADD MSTORE PUSH32 0x2031206465706F7369742E000000000000000000000000000000000000000000 PUSH1 0x20 DUP3 ADD MSTORE POP JUMP JUMPDEST PUSH32 0x63616E63656C506163743A204D6573736167652073656E646572206D75737420 PUSH1 0x0 DUP3 ADD MSTORE PUSH32 0x626520706172747920312E000000000000000000000000000000000000000000 PUSH1 0x20 DUP3 ADD MSTORE POP JUMP JUMPDEST PUSH32 0x4661696C656420746F2066696E64207061796F757420696E6465782E00000000 PUSH1 0x0 DUP3 ADD MSTORE POP JUMP JUMPDEST PUSH32 0x4465706F73697420746F74616C20646F6573206E6F7420657175616C20595920 PUSH1 0x0 DUP3 ADD MSTORE PUSH32 0x7061796F757420746F74616C2E00000000000000000000000000000000000000 PUSH1 0x20 DUP3 ADD MSTORE POP JUMP JUMPDEST PUSH1 0x0 PUSH32 0xFFFFFFFFFFFFFFFFFFFFFFFFFFFFFFFFFFFFFFFFFFFFFFFFFFFFFFFFFFFFFFFF PUSH2 0x33A0 DUP5 PUSH2 0x2D47 JUMP JUMPDEST SWAP4 POP DUP1 NOT DUP4 AND SWAP3 POP DUP1 DUP5 AND DUP4 OR SWAP2 POP POP SWAP3 SWAP2 POP POP JUMP JUMPDEST PUSH2 0x33C0 DUP3 DUP3 PUSH2 0x2ABB JUMP JUMPDEST POP POP JUMP JUMPDEST PUSH2 0x33CD DUP3 PUSH2 0x2AA9 JUMP JUMPDEST PUSH2 0x33E0 PUSH2 0x33D9 DUP3 PUSH2 0x2D09 JUMP JUMPDEST DUP4 SLOAD PUSH2 0x3374 JUMP JUMPDEST DUP3 SSTORE POP POP POP JUMP JUMPDEST PUSH1 0x7 DUP2 LT PUSH2 0x33F8 JUMPI PUSH2 0x33F7 PUSH2 0x2C7C JUMP JUMPDEST JUMPDEST POP JUMP JUMPDEST PUSH2 0x3404 DUP2 PUSH2 0x2A32 JUMP JUMPDEST DUP2 EQ PUSH2 0x340F JUMPI PUSH1 0x0 DUP1 REVERT JUMPDEST POP JUMP JUMPDEST PUSH2 0x341B DUP2 PUSH2 0x2A44 JUMP JUMPDEST DUP2 EQ PUSH2 0x3426 JUMPI PUSH1 0x0 DUP1 REVERT JUMPDEST POP JUMP JUMPDEST PUSH2 0x3432 DUP2 PUSH2 0x2A50 JUMP JUMPDEST DUP2 EQ PUSH2 0x343D JUMPI PUSH1 0x0 DUP1 REVERT JUMPDEST POP JUMP JUMPDEST PUSH2 0x3449 DUP2 PUSH2 0x2A8D JUMP JUMPDEST DUP2 EQ PUSH2 0x3454 JUMPI PUSH1 0x0 DUP1 REVERT JUMPDEST POP JUMP INVALID LOG2 PUSH5 0x6970667358 0x22 SLT KECCAK256 COINBASE 0x21 0xC6 0xD5 0x48 0xD6 PUSH32 0x28986BE7B941B6D2AE90140FE3EBC12C58C07A67A7ABEBFF4364736F6C634300 ADDMOD SDIV STOP CALLER "
        },
        "methodIdentifiers": {
          "TIMEOUT()": "f56f48f2",
          "accountBalances(address)": "6ff96d17",
          "cancelPact(uint256)": "a3a86827",
          "hashAnswer(bool,bytes32)": "7e4820d8",
          "pactCount()": "f10fb3da",
          "proposePact(address,uint256,uint256,(uint256,uint256,uint256),(uint256,uint256,uint256),(uint256,uint256,uint256),(uint256,uint256,uint256),string)": "847a9e0b",
          "sealPact(uint256)": "1f497479",
          "submitAnswer1(uint256,bool,bytes32)": "e2868e7a",
          "submitAnswer1Hash(uint256,bytes32)": "2d451d0f",
          "submitAnswer2(uint256,bool)": "0a2f86da",
          "timeOutPact(uint256)": "2c8582fb",
          "withdraw(address)": "51cff8d9"
        }
      }
    }
  }
}